:100000000C94C3000C94E0000C94E0000C94E0000D
:100010000C94E0000C94E0000C94E0000C94E000E0
:100020000C94E0000C94E0000C94E0000C944B0461
:100030000C94E0000C94E0000C94E0000C94E000C0
:100040000C9401040C94E0000C94E0000C94E0008B
:100050000C94E0000C94E0000C94E0000C94E000A0
:100060000C94E0000C94E000E807F007E807E807CC
:10007000E807E407E407E407E407E807E8073508CA
:100080004C0A5208C3084C0A140A140A140A140A27
:10009000190A3809CE05D005AF0575047D0495040D
:1000A000E9043D056A0585048D0407634236B79B64
:1000B000D8A71A39685618AEBAAB558C1D3CB7CCC8
:1000C0005763BD6DEDFD753EF6177231BF00000040
:1000D000803F08000000BE922449123EABAAAA2A23
:1000E000BECDCCCC4C3E00000080BEABAAAAAA3E3E
:1000F00000000000BF000000803F0000000000087A
:100100004178D3BB4387D1133D190E3CC3BD428216
:10011000AD2B3E68EC8276BED98FE1A93E4C80EFD4
:10012000FFBE01C4FF7F3F00000000000000000090
:1001300023002600290000000000250028002B00D5
:100140000000000800020100000304070000000096
:100150000000000000000000240027002A00010227
:100160000408102040800102040810200102040845
:100170001020040404040404040402020202020223
:1001800003030303030311241FBECFEFD8E0DEBF38
:10019000CDBF12E0A0E0B1E0E8E8FEE102C00590CA
:1001A0000D92AC32B107D9F723E0ACE2B2E001C066
:1001B0001D92A936B207E1F70E94ED050C94420F9B
:1001C0000C940000833081F028F4813099F0823063
:1001D000A1F008958730A9F08830B9F08430D1F4C7
:1001E000809180008F7D03C0809180008F77809305
:1001F0008000089584B58F7702C084B58F7D84BD5B
:1002000008958091B0008F7703C08091B0008F7DFA
:100210008093B00008951F93CF93DF93282F30E091
:10022000F901E05CFE4F8491F901E25AFE4FD4914E
:10023000F901EE58FE4FC491CC23C1F0162F811165
:100240000E94E200EC2FF0E0EE0FFF1FEA5CFE4F91
:10025000A591B4919FB7F894111104C08C91D095D9
:10026000D82302C0EC91DE2BDC939FBFDF91CF91AE
:100270001F910895CF93DF9390E0FC01E25AFE4F67
:100280002491FC01EE58FE4F8491882361F190E0A7
:10029000880F991FFC01EC5AFE4FC591D491FC01C7
:1002A000EA5CFE4FA591B491611109C09FB7F89423
:1002B0008881209582238883EC912E230BC06230A5
:1002C00061F49FB7F8948881322F30958323888317
:1002D000EC912E2B2C939FBF06C08FB7F894E8812A
:1002E0002E2B28838FBFDF91CF9108951092850028
:1002F00010928400E1E8F0E09081892B80830895DA
:10030000E1E8F0E08081887F80831092890010927C
:100310008800109285001092840010924102089586
:10032000CF93DF9300D000D0CDB7DEB769837A8357
:100330008B839C831BB8409A40988C818BB9409AE0
:1003400040988B818BB9409A40988A818BB9409AAA
:10035000409889818BB9409A4098419A41981BB83E
:100360000F900F900F900F90DF91CF9108950E9402
:10037000E60C2FE530E749E052E40E94610E0E944E
:10038000B70C0C949001CF92DF92EF92FF920F93F3
:100390001F93CF93DF93449A00000000C8E4D1E09C
:1003A00006E611E09AE7E92E91E0F92EFE0184912C
:1003B000F801C490F701D490DD20C1F381110E94AF
:1003C000E200ED2DF0E0EE0FFF1FE45DFE4FA59182
:1003D000B4918C918C2121E030E011F420E030E0E8
:1003E000232B21F3DF91CF911F910F91FF90EF907D
:1003F000DF90CF9008958EBD00000DB407FEFDCFB5
:100400008EB50895CF93C62F29980E94FB018C2F9B
:100410000E94FB01299ACF910895E82FF0E0E75C54
:10042000FE4F908180910001981738F4609100018F
:1004300080910001691B891B02C060E080E00C9480
:100440000202E0914202F0E0EE0FFF1FEB53FE4F7D
:1004500080819181909389008093880080914202ED
:100460000E940D02809142028F5F809342020895A4
:100470009091420283E2891BE82FF0E0EE0FFF1F0C
:10048000EB53FE4F90812181209389009093880047
:100490000E940D02809142028F5F80934202089574
:1004A000E82FF0E0EB5FFE4F9081809100019817FC
:1004B00038F46091000180910001691B891B02C022
:1004C00060E080E00C940202E0914202F0E0EE0F66
:1004D000FF1FE35AFE4F80819181909389008093A2
:1004E0008800809142020E945002809142028F5FF8
:1004F0008093420208959091420283E3891BE82F82
:10050000F0E0EE0FFF1FE35AFE4F90812181209310
:100510008900909388000E945002809142028F5F70
:10052000809342020895DF92EF92FF920F931F9300
:10053000CF93DF93EB01D82E8A0179010E94C3018A
:1005400060E08AE00E940B0182E00E94FB018D2D99
:100550000E94FB018D2F0E94FB018C2F0E94FB014A
:10056000E7010E0D1F1DC017D10721F089910E94D0
:10057000FB01F9CF61E08AE00E940B014498DF9112
:10058000CF911F910F91FF90EF90DF9008958F9280
:100590009F92AF92BF92CF92DF92EF92FF920F9312
:1005A0001F936217730784079507A4F489019A01C2
:1005B0006B017C0148015901861A970AA80AB90AF9
:1005C0000E94E40AA50194010E943B0B6C0D7D1D65
:1005D0008E1D9F1D1F910F91FF90EF90DF90CF9088
:1005E000BF90AF909F908F9008954F925F926F92BF
:1005F0007F928F929F92AF92BF92CF92DF92EF92B3
:10060000FF928090590290905A02A0905B02B090A5
:100610005C0280915D0290915E02A0915F02B091B8
:10062000600288159905AA05BB0510F4FC0102C0FB
:10063000F4014C0180916102863009F447C060F4F6
:10064000853009F08AC0940140E050E0BF0180E0AD
:1006500090E00E94C70281C0873009F456C08830FC
:1006600009F07BC0A12CB12C2F01612C712CA501AC
:100670009401C301B2010E94C7026B017C01A50174
:100680009401C301B2010E94C702C60ED71EE81E24
:10069000F91EA5019401C301B2010E94C702C60E52
:1006A000D71EE81EF91EA5019401C301B2010E94E4
:1006B000C702C60ED71EE81EF91E82E0F694E79424
:1006C000D794C7948A95D1F7B60147C0A12CB12C15
:1006D0002F01612C712CA5019401C301B2010E946C
:1006E000C7026B017C01A5019401C301B2010E9404
:1006F000C702DC01CB018C0D9D1DAE1DBF1DB69543
:10070000A79597958795BC0128C0A12CB12C2F01E6
:10071000612C712CA5019401C301B2010E94C70292
:100720006B017C01A5019401C301B2010E94C702C3
:10073000C60ED71EE81EF91EA5019401C301B20121
:100740000E94C7026C0D7D1D8E1D9F1D23E030E0B1
:1007500040E050E00E946D0BB901CB01FF90EF909B
:10076000DF90CF90BF90AF909F908F907F906F90D1
:100770005F904F900895CF92DF92EF92FF926B01BE
:100780007C0187E0809341020E94F502BC0180E079
:1007900090E00E94B70110923D0210923E0210922A
:1007A0003F0210924002A8EEB3E0A70196010E941A
:1007B0005A0B24EF31E040E050E00E946D0B209393
:1007C000390230933A0240933B0250933C028FE14E
:1007D0008093890080E48093880081E00E94760104
:1007E000809141028111FCCF10923D0210923E0295
:1007F00010923F0210924002FF90EF90DF90CF9056
:1008000008951F920F920FB60F9211242F933F93CA
:100810008F939F93AF93BF938091650390916603ED
:10082000A0916703B09168033091640323E0230F24
:100830002D3720F40196A11DB11D05C026E8230F18
:100840000296A11DB11D20936403809365039093CC
:100850006603A0936703B09368038091600390914F
:100860006103A0916203B09163030196A11DB11DC4
:100870008093600390936103A0936203B09363033A
:10088000BF91AF919F918F913F912F910F900FBE8C
:100890000F901F9018951F920F920FB60F92112470
:1008A0004F925F926F927F928F929F92AF92BF9280
:1008B000CF92DF92EF92FF922F933F934F935F93EC
:1008C0006F937F938F939F93AF93BF93EF93FF9318
:1008D000E09141028E2F90E08B30910508F060C1CD
:1008E000FC01E65BFF4F0C942C0F80914202843395
:1008F00008F054C10E947B0253C1809142028433AC
:1009000008F04CC10E9464024BC1809142028432C3
:1009100008F044C10E94380243C1809142028432EF
:1009200008F03CC10E9421023BC140913D02509120
:100930003E0260913F027091400280913902909195
:100940003A02A0913B02B0913C02481759076A074E
:100950007B0708F023C180913D0290913E02A09157
:100960003F02B09140020196A11DB11D80933D024E
:1009700090933E02A0933F02B093400240903D020C
:1009800050903E0260903F0270904002809035028D
:1009900090903602A0903702B090380260915D02CC
:1009A00070915E0280915F02909160020E94E60C5D
:1009B0006B017C01C301B2010E94E60CA501940108
:1009C0000E94610E9B01AC01C701B6010E949F0B02
:1009D00051C040913D0250913E0260913F027091A2
:1009E00040028091390290913A02A0913B02B0916D
:1009F0003C02481759076A077B0708F0CFC080916F
:100A00003D0290913E02A0913F02B09140020196BA
:100A1000A11DB11D80933D0290933E02A0933F0221
:100A2000B093400260913D0270913E0280913F027E
:100A300090914002C0903102D0903202E090330297
:100A4000F09034020E94E60C9B01AC01C701B60194
:100A50000E94CE0E6B017C0160915D0270915E027E
:100A600080915F02909160020E94E60CA7019601BE
:100A70000E94610E0E94B70C6FC040913D025091E0
:100A80003E0260913F027091400280913902909144
:100A90003A02A0913B02B0913C02481759076A07FD
:100AA0007B0708F07BC080913D0290913E02A091AF
:100AB0003F02B09140020196A11DB11D80933D02FD
:100AC00090933E02A0933F02B09340020E94F50231
:100AD000BC0140C040913D0250913E0260913F02F6
:100AE000709140028091390290913A02A0913B02AC
:100AF000B0913C02481759076A077B0708F04EC0BF
:100B000080913D0290913E02A0913F02B09140023F
:100B10000196A11DB11D80933D0290933E02A093CA
:100B20003F02B093400260913D0270913E0280917D
:100B30003F0290914002209143023091440240E0F4
:100B400050E00E946D0B660F771FFB01EB5BFD4FC2
:100B50006081718180E090E00E94B70121C08091A6
:100B60002D0290912E02A0912F02B0913002019798
:100B7000A109B10980932D0290932E02A0932F0218
:100B8000B093300280912D0290912E02A0912F02FD
:100B9000B0913002892B8A2B8B2B11F40E9480019B
:100BA000FF91EF91BF91AF919F918F917F916F9145
:100BB0005F914F913F912F91FF90EF90DF90CF90F9
:100BC000BF90AF909F908F907F906F905F904F906D
:100BD0000F900FBE0F901F901895CF93DF93CDB756
:100BE000DEB72C970FB6F894DEBF0FBECDBF78945A
:100BF00084B5826084BD84B5816084BD85B5826022
:100C000085BD85B5816085BD80916E0081608093D2
:100C10006E0010928100809181008260809381003B
:100C2000809181008160809381008091800081604B
:100C3000809380008091B10084608093B1008091A6
:100C4000B00081608093B00080917A0084608093CE
:100C50007A0080917A00826080937A0080917A0095
:100C6000816080937A0080917A00806880937A0016
:100C70001092C10015BC1092B10080918100887F54
:100C80008093810010928000809181008860809321
:100C900081001092820010928500109284001092C0
:100CA00089001092880080916F00826080936F00AD
:100CB000789487B1876087B9000088B1887F88B948
:100CC0009FEF9AB900001BB888B1887F88B9429A13
:100CD00088B1887F88B93D9A0000459A219A000022
:100CE000299A90936202E3ECF2E0DF0135E31D9272
:100CF0003A95E9F705E310E01093C4020093C302AC
:100D00008BE08093C50266E172E086EC92E00E947F
:100D10003B0FE8EFF2E0DF0135E31D923A95E9F78A
:100D20001093F9020093F8026DE072E08BEF92E00D
:100D30000E943B0F20E3EDE2F3E0DF01322F1D9232
:100D40003A95E9F780E390E090932E0380932D038A
:100D5000ABE0A0932F03E3E6F2E0DF01322F1D9218
:100D60003A95E9F79093640280936302ABE0A09315
:100D70006502E3E9F2E0DF011D922A95E9F790931D
:100D8000940280939302BBE0B093950283E0EDE57B
:100D9000F3E0DF011D928A95E9F761E08AE00E94A5
:100DA0003A0161E08DE00E943A0161E08BE00E942F
:100DB0003A0160E08CE00E943A013C9A60E088E0F1
:100DC0000E943A013B9861E08AE00E940B0160E0DA
:100DD0008DE00E940B0160E08BE00E940B014498C3
:100DE0008CB5837F8CBD8CB58C7F8CBD8DB58E7F93
:100DF0008DBDBFB7B983F89480912C02811127C0B3
:100E0000ECE7F1E08491E8E6F1E09491E82FF0E07E
:100E1000EE0FFF1FEC5AFE4FA591B491EC91E92320
:100E200021F461E08AE00E940B0161E08AE00E9407
:100E30003A018CB580618CBD8CB580648CBD61E05D
:100E40008DE00E943A0161E08BE00E943A018091BE
:100E50002C028F5F80932C02E981EFBF23EC32E0FC
:100E600045E350E060E070E0CB010E94930228EF80
:100E700032E045E350E064E670E080E090E00E94FC
:100E8000930260EC80EC0E94020260E070E0CB0113
:100E90000E94900102E015E0339BFECF0E94C30147
:100EA00060E08AE00E940B0183E00E94FB0180E089
:100EB0000E94FB0180E00E94FB0188EC0E94FB0184
:100EC0009DE2E92E93E0F92E80E00E94FB01D7011C
:100ED0008D937D01BDE5EB16B3E0FB06A9F761E05C
:100EE0008AE00E940B01449880913003813009F020
:100EF00018C3809133038093000180913103809364
:100F000061028091390390913A03A0E0B0E08093B0
:100F10005D0290935E02A0935F02B09360028091A5
:100F20003B0390913C03A0E0B0E080935902909382
:100F30005A02A0935B02B0935C02A0903703B0907A
:100F400038032501612C712CE0905303F090540379
:100F5000A701440F551F69E373E085E492E00E9406
:100F6000320FF0924402E092430280915903909133
:100F70005A03A0915B03B0915C030097A105B105F2
:100F800061F4E09131038E2F90E08B30910540F5B4
:100F9000FC01EC5CFF4F0C942C0F80932D0290937E
:100FA0002E02A0932F02B0933002009341021092C0
:100FB0008900EAEFE093880083E00E947601809147
:100FC00041028111FCCFDDCF0E94F502BC0104C0BB
:100FD0006091390370913A0380E090E00E94B7017C
:100FE00080913503813089F0823041F58091000194
:100FF0008093000110924202F9E0F09341020E94B6
:10100000380281E00E94760113C080910001809334
:1010100000011092420283E0809341020E947B0211
:1010200081E00E947601809141028111FCCF04C0D1
:10103000809141028111FCCF1092420280913203D3
:10104000813031F460910001809100010E94020220
:10105000E09131038E2F90E08B30910508F01CC297
:10106000FC01E15CFF4F0C942C0F4114510461040E
:10107000710409F411C240922D0250922E02609226
:101080002F027092300200934102109289003AEFD1
:101090003093880083E00E947601809141028111A3
:1010A000FCCFFAC18091000180903B0390903C03FB
:1010B000C0903903D0903A03682F0E940202E12CBD
:1010C000F12CC701B6010E94B70110923D021092A7
:1010D0003E0210923F02109240029501A8EEB3E04A
:1010E0000E948F0B24EF31E040E050E00E946D0B36
:1010F0002093390230933A0240933B0250933C02D2
:101100008091390290913A02A0913B02B0913C0249
:1011100089839A83AB83BC83B40180E090E00E9412
:10112000E60C4B015C01C701B6010E94E60C9B0175
:10113000AC01C501B4010E949E0B6B017C01698169
:101140007A818B819C810E94E60C9B01AC01C701D6
:10115000B6010E940B0C60933502709336028093A7
:10116000370290933802109341029FE190938900D7
:10117000A0E4A093880081E00E9476018091410262
:101180008111FCCF81C180910001C0903B03D090C0
:101190003C03E0903903F0903A03682F0E9402026A
:1011A000C701A0E0B0E089839A83AB83BC83BC0114
:1011B000CD010E94B70110923D0210923E021092A2
:1011C0003F02109240029501A8EEB3E00E948F0BFF
:1011D00024EF31E040E050E00E946D0B2093390293
:1011E00030933A0240933B0250933C02B60180E0B8
:1011F00090E00E94E60C6B017C0169817A818B8111
:101200009C810E94E60C9B01AC01C701B6010E94C3
:101210000B0C0E94E50D6B017C016091390270910D
:101220003A0280913B0290913C020E94E60C9B01A5
:10123000AC01C701B6010E940B0C0E94850C6093A3
:10124000310270933202809333029093340296E01D
:1012500090934102AFE1A0938900B0E4B09388007D
:1012600081E00E947601809141028111FCCF0CC186
:101270008091000120903D0330903E0380903B031D
:1012800090903C03C0903903D0903A03682F0E949D
:101290000202E12CF12CC701B6010E94B7011092A5
:1012A0003D0210923E0210923F02109240029501C0
:1012B000A8EEB3E00E948F0B28EE33E040E050E050
:1012C0000E946D0B2D833E834F83588720933902F4
:1012D00030933A0240933B0250933C02A12CB12C34
:1012E000C501B4010E94E60C69837A838B839C83D9
:1012F0008091390290913A02A0913B02B0913C0258
:1013000089879A87AB87BC87C701B6010E94E60C24
:101310009B01AC0169817A818B819C810E949E0B2B
:101320006B017C0169857A858B859C850E94E60C22
:101330009B01AC01C701B6010E940B0C6093350202
:1013400070933602809337029093380210934102D3
:101350009FE190938900A0E4A093880081E00E941F
:101360007601809141028111FCCF10923D021092D2
:101370003E0210923F0210924002C501B4010E9449
:10138000B7018091590290915A02A0915B02B091ED
:101390005C0280935D0290935E02A0935F02B09323
:1013A00060028D819E81AF81B885809339029093D0
:1013B0003A02A0933B02B0933C02C0903902D09015
:1013C0003A02E0903B02F0903C02B10180E090E0F4
:1013D0000E94E60C29813A814B815C810E949E0B20
:1013E0004B015C01C701B6010E94E60C9B01AC01F8
:1013F000C501B4010E940B0C609335027093360254
:101400008093370290933802109341029FE19093AA
:101410008900A0E4A093880081E00E947601809179
:1014200041028111FCCF30C0C301B2010E94BB0355
:1014300033C0B8E0B093410210923D0210923E02D8
:1014400010923F02109240029501A8EEB3E00E9474
:101450008F0B24EF31E040E050E00E946D0B2093B1
:10146000390230933A0240933B0250933C02EFE141
:10147000E0938900F0E4F093880081E00E94760117
:10148000809141028111FCCF10923D0210923E02E8
:1014900010923F021092400280913603813089F011
:1014A000823041F580910001809300011092420248
:1014B0008AE0809341020E94210281E00E9476012D
:1014C00013C080910001809300011092420234E029
:1014D000309341020E94640281E00E947601809173
:1014E00041028111FCCF04C0809141028111FCCFE7
:1014F0001092420245284628472849F060E080E0E3
:101500000E94020260E070E0CB010E94900123E69D
:1015100032E040E350E068EC70E080E090E00E9450
:10152000930280E090E0892B09F4B6CC0E94000081
:10153000B2CC8F929F92AF92BF92CF92DF92EF92F6
:10154000FF92CF93DF93EC01688179818A819B813F
:10155000611571058105910521F464E279ED8BE552
:1015600097E02DE133EF41E050E00E943B0B490151
:101570005A019B01AC01A7EAB1E40E945A0B6B012E
:101580007C01ACEEB4EFA50194010E94680BDC0174
:10159000CB018C0D9D1DAE1DBF1DB7FF03C0019774
:1015A000A109B04888839983AA83BB83BC01CD017C
:1015B0009F77DF91CF91FF90EF90DF90CF90BF901A
:1015C000AF909F908F9008958F929F92AF92BF920D
:1015D000CF92DF92EF92FF92609101017091020130
:1015E00080910301909104016115710581059105B8
:1015F00021F464E279ED8BE597E02DE133EF41E0F2
:1016000050E00E943B0B49015A019B01AC01A7EA43
:10161000B1E40E945A0B6B017C01ACEEB4EFA50162
:1016200094010E94680BDC01CB018C0D9D1DAE1D49
:10163000BF1DB7FF03C00197A109B0488093010106
:1016400090930201A0930301B0930401BC01CD016A
:101650009F77FF90EF90DF90CF90BF90AF909F90DB
:101660008F900895609301017093020180930301AC
:10167000909304010895052E97FB1EF400940E9498
:10168000520B57FD07D00E946D0B07FC03D04EF4A0
:101690000C94520B50954095309521953F4F4F4FEC
:1016A0005F4F089590958095709561957F4F8F4F0E
:1016B0009F4F08950E948F0BA59F900DB49F900D92
:1016C000A49F800D911D11240895B7FF0C945A0B0F
:1016D0000E945A0B821B930B0895A1E21A2EAA1B9B
:1016E000BB1BFD010DC0AA1FBB1FEE1FFF1FA217D2
:1016F000B307E407F50720F0A21BB30BE40BF50BCF
:10170000661F771F881F991F1A9469F76095709557
:10171000809590959B01AC01BD01CF010895A29FDA
:10172000B001B39FC001A39F700D811D1124911DB5
:10173000B29F700D811D1124911D08955058BB2733
:10174000AA270E94B60B0C94610D0E94530D38F02D
:101750000E945A0D20F039F49F3F19F426F40C949E
:10176000290D0EF4E095E7FB0C94230DE92F0E9460
:10177000720D58F3BA17620773078407950720F0B4
:1017800079F4A6F50C94940D0EF4E0950B2EBA2F77
:10179000A02D0B01B90190010C01CA01A001112477
:1017A000FF27591B99F0593F50F4503E68F11A1623
:1017B000F040A22F232F342F4427585FF3CF4695B4
:1017C00037952795A795F0405395C9F77EF41F16D6
:1017D000BA0B620B730B840BBAF09150A1F0FF0FA0
:1017E000BB1F661F771F881FC2F70EC0BA0F621F8C
:1017F000731F841F48F4879577956795B795F7957C
:101800009E3F08F0B0CF9395880F08F09927EE0F10
:101810009795879508950E941F0C0C94610D0E9466
:101820005A0D58F00E94530D40F029F45F3F29F003
:101830000C94230D51110C94950D0C94290D0E94BC
:10184000720D68F39923B1F3552391F3951B550B52
:10185000BB27AA2762177307840738F09F5F5F4F83
:10186000220F331F441FAA1FA9F335D00E2E3AF0C2
:10187000E0E832D091505040E695001CCAF72BD0DA
:10188000FE2F29D0660F771F881FBB1F261737072B
:101890004807AB07B0E809F0BB0B802DBF01FF275D
:1018A00093585F4F3AF09E3F510578F00C94230D0A
:1018B0000C94950D5F3FE4F3983ED4F386957795AD
:1018C0006795B795F7959F5FC9F7880F911D969516
:1018D000879597F90895E1E0660F771F881FBB1F72
:1018E000621773078407BA0720F0621B730B840B1F
:1018F000BA0BEE1F88F7E095089529F416F00C94C2
:10190000230D0C94940D0C94290D0E947A0DA8F3CC
:101910009638A0F707F80F92E8942BE33AEA48EBE1
:101920005FE70E94770E0F920F920F924DB75EB74E
:101930000F920E942D0EEAEAF0E00E942C0D4F91CA
:101940005F91EF91FF91E595EE1FFF1F49F0FE5764
:10195000E0684427EE0F441FFA95E1F74195550BD7
:101960000E94A70D0F9007FE0C949B0D08950E94F6
:101970007A0D88F09F5798F0B92F9927B751B0F09A
:10198000E1F0660F771F881F991F1AF0BA95C9F703
:1019900014C0B13091F00E94940DB1E008950C9400
:1019A000940D672F782F8827B85F39F0B93FCCF3B3
:1019B000869577956795B395D9F73EF49095809580
:1019C000709561957F4F8F4F9F4F0895E89409C0A0
:1019D00097FB3EF490958095709561957F4F8F4F62
:1019E0009F4F9923A9F0F92F96E9BB279395F69578
:1019F000879577956795B795F111F8CFFAF4BB0FF6
:101A000011F460FF1BC06F5F7F4F8F4F9F4F16C059
:101A1000882311F096E911C0772321F09EE8872FE3
:101A2000762F05C0662371F096E8862F70E060E09F
:101A30002AF09A95660F771F881FDAF7880F969518
:101A4000879597F9089597F99F6780E870E060E0BF
:101A500008959FEF80EC0895DF93CF931F930F932A
:101A6000FF92EF92DF927B018C01689406C0DA2E20
:101A7000EF010E94740EFE01E894A5912591359125
:101A800045915591A6F3EF010E94B60BFE01970117
:101A9000A801DA9469F7DF90EF90FF900F911F9102
:101AA000CF91DF91089500240A94161617061806A0
:101AB0000906089500240A94121613061406050652
:101AC0000895092E0394000C11F4882352F0BB0FE3
:101AD00040F4BF2B11F460FF04C06F5F7F4F8F4F46
:101AE0009F4F089557FD9058440F551F59F05F3F81
:101AF00071F04795880F97FB991F61F09F3F79F030
:101B000087950895121613061406551FF2CF4695B1
:101B1000F1DF08C0161617061806991FF1CF869533
:101B20007105610508940895E894BB276627772717
:101B3000CB0197F908959B01AC0160E070E080E86B
:101B40009FE30C940B0C0C94230D0C941E0F0E941D
:101B50007A0DD8F39923C9F3940F511DA3F3915033
:101B6000504094F059F0882332F0660F771F881F99
:101B700091505040C1F79E3F51052CF7880F911DA1
:101B80009695879597F908955F3FACF0983E9CF045
:101B9000BB27869577956795B79508F4B1609395BF
:101BA000C1F7BB0F58F711F460FFE8CF6F5F7F4FAD
:101BB0008F4F9F4FE3CF0C94950D16F00C941E0F92
:101BC0000C94290D68940C94230D0E947A0DA8F3AF
:101BD0009923C1F3AEF3DF93CF931F930F93FF923B
:101BE000C92FDD2788232AF02197660F771F881FCA
:101BF000DAF720E030E040E85FEB9FE3883920F03F
:101C0000803E38F021968F770E949F0BE2EDF0E046
:101C100004C00E949F0BEFEFF0E00E942C0D8B019F
:101C2000BE01EC01FB2E6F5771097595771F880B6C
:101C3000990B0E94E80C28E132E741E35FE30E9440
:101C4000740EAF2D9801AE01FF900F911F91CF91AF
:101C5000DF910E94B60B0C94610DFA01DC01AA0F12
:101C6000BB1F9B01AC01BF5728F422273327442711
:101C7000507820C0B75190F4AB2F0024469537958B
:101C80002795011CA395D2F3002071F0220F331F7A
:101C9000441FB395DAF30ED00C949E0B613071059E
:101CA000A0E88A07B94630F49B01AC016627772784
:101CB00088279078309621F02083318342835383A4
:101CC00008950E94740E0C94610D0E94530D38F01B
:101CD0000E945A0D20F0952311F00C94230D0C94C2
:101CE000290D11240C94950D0E94720D70F3959F8F
:101CF000C1F3950F50E0551F629FF001729FBB2703
:101D0000F00DB11D639FAA27F00DB11DAA1F649F9E
:101D10006627B00DA11D661F829F2227B00DA11D51
:101D2000621F739FB00DA11D621F839FA00D611DD7
:101D3000221F749F3327A00D611D231F849F600DF8
:101D4000211D822F762F6A2F11249F5750409AF021
:101D5000F1F088234AF0EE0FFF1FBB1F661F771FAD
:101D6000881F91505040A9F79E3F510580F00C9478
:101D7000230D0C94950D5F3FE4F3983ED4F38695C4
:101D800077956795B795F795E7959F5FC1F7FE2B18
:101D9000880F911D9695879597F90895FA01EE0F92
:101DA000FF1F309621053105A1F16115710561F420
:101DB0008038BFE39B0749F168949038810561F052
:101DC0008038BFEF9B0741F099234AF5FF3FE105BB
:101DD0003105210519F1E8940894E795D901AA2362
:101DE00029F4AB2FBE2FF85FD0F310C0FF5F70F463
:101DF000A695E0F7F73950F019F0FF3A38F49F77DD
:101E00009F930DD00F9007FC9058089546F00C94C6
:101E1000290D60E070E080E89FE308954FE79F7729
:101E20005F934F933F932F930E94E50D2F913F9126
:101E30004F915F910E94610E0C94850C9F3F31F091
:101E4000915020F4879577956795B795880F911DE8
:101E50009695879597F90895EE0FFF1F0590F491D9
:101E6000E02D0994FB01DC0102C001900D9241506C
:101E70005040D8F70895FB01DC0101900D9200203D
:081E8000E1F70895F894FFCF8B
:101E8800C0010000000102030405060708090A0B47
:101E98000C0D0E0F101112131415161718191A1B02
:101EA8001C1D1E1F2021222324252627292B2D2FE8
:101EB800313336393D4248516501020304050607AE
:101EC80008090A0B0C0D0E0F101112131415161712
:101ED800191B1D1F212326292D32384154DB42CAE4
:101EE8001AF1134E10ED0D330CDD0AC909E408226E
:101EF800087A07E5066406EE0585052505CE047E05
:101F0800043504F103B303790343031103E202B672
:101F1800028D026802430222020202E501C901AFF2
:101F28000196017F016A01550141014E020D02D35C
:101F380001A10173014A01AD0169018A017D014DC9
:101F48000146014901BE1AB70AFA0786069205E159
:101F5800045804EA038F034103FD02C2028E0260A3
:101F68000235020F02EC01CC01AF0193017B016441
:101F7800014E0161021B02DE01A80178014F01B286
:101F8800016D018D017F014F01480141016E6F20F4
:101F98006572726F72005645523030315F3230319F
:0C1FA80036303331385F504A572E0000AD
:00000001FF
