:100000000C94BC000C94D9000C94D9000C94D90029
:100010000C94D9000C94D9000C94D9000C94D900FC
:100020000C94D9000C94D9000C94D9000C94CE03F4
:100030000C94D9000C94D9000C94D9000C94D900DC
:100040000C940E050C94D9000C94D9000C94D90092
:100050000C94D9000C94D9000C94D9000C94D900BC
:100060000C94D9000C94D900D208ED08D208A90844
:10007000D208B908B908B908B908D208D208D20814
:10008000D2087D09710D9509EF09710D4F0A4F0ACC
:100090004F0A4F0A7D0AAB0A3E0B360C0763423605
:1000A000B79BD8A71A39685618AEBAAB558C1D3C09
:1000B000B7CC5763BD6DEDFD753EF6177231BF00CD
:1000C0000000803F08000000BE922449123EABAA07
:1000D000AA2ABECDCCCC4C3E00000080BEABAAAA62
:1000E000AA3E00000000BF000000803F00000000AA
:1000F00000084178D3BB4387D1133D190E3CC3BDE3
:100100004282AD2B3E68EC8276BED98FE1A93E4C8F
:1001100080EFFFBE01C4FF7F3F0000000000000031
:100120000000250028002B0000000000230026000E
:10013000290000000008000201000003040700007D
:1001400000000000000000000000240027002A003A
:10015000010204081020408001020408102001025E
:10016000040810200404040404040404020202022B
:10017000020203030303030311241FBECFEFD8E0E1
:10018000DEBFCDBF12E0A0E0B1E0EEEBF5E202C0D1
:1001900005900D92AC32B107D9F726E0ACE2B2E09F
:1001A00001C01D92AC3CB207E1F70E9486050C9499
:1001B000DD120C940000CF92DF92EF92FF92C0907C
:1001C0001306D0901406E0901506F0901606E09104
:1001D0006803F091690364817581868197810E942B
:1001E0008110A70196010E94FC116B017C016091B6
:1001F000490670914A0680914B0690914C060E94E8
:1002000081109B01AC01C701B6010E943A0F0E9408
:100210005210FF90EF90DF90CF9008952091170635
:1002200030911806E0916803F091690340E050E0D6
:1002300064817581868197810E94080F660F771F00
:10024000660F771FFB01E75EF94F60817181828144
:1002500093810895CF92DF92EF92FF92C0900B06A8
:10026000D0900C06E0900D06F0900E06E091680329
:10027000F091690364817581868197810E94811064
:10028000A70196010E94FC116B017C01609145065B
:100290007091460680914706909148060E94811011
:1002A0009B01AC01C701B6010E943A0F0E94521097
:1002B000FF90EF90DF90CF900895833081F028F485
:1002C000813099F08230A1F008958730A9F088300C
:1002D000B9F08430D1F4809180008F7D03C080918B
:1002E00080008F7780938000089584B58F7702C057
:1002F00084B58F7D84BD08958091B0008F7703C051
:100300008091B0008F7D8093B0000895CF93DF93EC
:1003100090E0FC01E05BFE4F2491FC01EC59FE4FA4
:100320008491882361F190E0880F991FFC01EA5BBA
:10033000FE4FC591D491FC01E25EFE4FA591B491B0
:10034000611109C09FB7F894888120958223888322
:10035000EC912E230BC0623061F49FB7F894888132
:10036000322F309583238883EC912E2B2C939FBFC3
:1003700006C08FB7F894E8812E2B28838FBFDF91BA
:10038000CF910895FC0181E090E0A0E0B0E080838F
:100390009183A283B383818780E991E0A0E0B0E0FC
:1003A00082879387A487B5870895CF93DF931F92A1
:1003B000CDB7DEB7E1E8F0E08081887F80838FB73A
:1003C0008983109285001092840010928900109207
:1003D000880089818FBF10924E060F90DF91CF91D8
:1003E0000895CF92DF92EF92FF92CF93DF9300D0E8
:1003F00000D0CDB7DEB7C0903902D0903A02E0907D
:100400003B02F0903C02C616D706E806F90671F1E9
:100410006B017C010E9481102FE530E749E052E436
:100420000E94FC110E94521069837A838B839C8303
:100430001BB8409A40988C818BB9409A40988B8128
:100440008BB9409A40988A818BB9409A40988981AB
:100450008BB9409A4098419A41981BB8C092390292
:10046000D0923A02E0923B02F0923C020F900F9041
:100470000F900F90DF91CF91FF90EF90DF90CF9092
:100480000895CF93DF93DB01EC9128E32E9FF001D9
:100490001124E559FC4FEF0119922A95E9F7EC0177
:1004A000288139812115310519F0E901FFABEEAB47
:1004B000EC01F983E8838C918F5F8C93DF91CF916E
:1004C0000895CF92DF92EF92FF92C0900F06D090E6
:1004D0001006E0901106F0901206E0916803F0918A
:1004E000690364817581868197810E9481109B01D7
:1004F000AC01C701B6010E9469126B017C016091D9
:10050000490670914A0680914B0690914C060E94D4
:100510008110A70196010E94FC110E945210FF90C9
:10052000EF90DF90CF9008954F925F926F927F92FD
:100530008F929F92AF92BF92CF92DF92EF92FF92F3
:10054000C0904506D0904606E0904706F0904806D9
:100550008090490690904A06A0904B06B0904C06B9
:100560008C149D04AE04BF0450F0582D492D3A2D33
:100570002B2D46015701C52ED42EE32EF22E2091AD
:100580004D06263009F44EC0A8F4253009F089C084
:10059000A7019601C501B401FF90EF90DF90CF90C5
:1005A000BF90AF909F908F907F906F905F904F9093
:1005B0000C945805273009F450C0283009F071C058
:1005C000A7019601C501B4010E9458052B013C0109
:1005D000A7019601C501B4010E945805460E571E99
:1005E000681E791EA7019601C501B4010E94580535
:1005F000460E571E681E791EA7019601C501B4015B
:100600000E945805DC01CB01840D951DA61DB71D68
:10061000BC01CD0122E096958795779567952A953F
:10062000D1F73FC0A7019601C501B4010E9458054A
:100630002B013C01A7019601C501B4010E94580598
:10064000DC01CB01840D951DA61DB71DBC01CD019C
:10065000969587957795679524C0A7019601C50162
:10066000B4010E9458052B013C01A7019601C50168
:10067000B4010E945805460E571E681E791EA70138
:100680009601C501B4010E945805640D751D861DB3
:10069000971D23E030E040E050E00E94080FCA01BF
:1006A000B901FF90EF90DF90CF90BF90AF909F90F7
:1006B0008F907F906F905F904F900895CF93DF93CE
:1006C000282F30E0F901EE5CFE4F8491F901E05BE8
:1006D000FE4FD491F901EC59FE4FC491CC2391F017
:1006E00081110E945D01EC2FF0E0EE0FFF1FE85D2D
:1006F000FE4FA591B491EC91ED2381E090E021F4BF
:1007000080E002C080E090E0DF91CF9108951F93D8
:10071000CF93DF93282F30E0F901EE5CFE4F8491F8
:10072000F901E05BFE4FD491F901EC59FE4FC49101
:10073000CC23C1F0162F81110E945D01EC2FF0E057
:10074000EE0FFF1FE25EFE4FA591B4919FB7F894A4
:10075000111104C08C91D095D82302C0EC91DE2BEE
:10076000DC939FBFDF91CF911F9108958EBD000054
:100770000DB407FEFDCF8EB50895CF9390916A0317
:10078000981751F0C82F29980E94B6038C2F0E9409
:10079000B603299AC0936A03CF9108951F920F92CE
:1007A0000FB60F9211242F933F934F935F936F9344
:1007B0007F938F939F93AF93BF93EF93FF9382E0C9
:1007C00080934E06E0916803F0916903309741F001
:1007D00080819181A281B381892B8A2B8B2B19F483
:1007E0000E94D501C5C08185823059F028F481303E
:1007F00089F5828593852AC0833079F08430F9F0B9
:1008000029C084819581880F991F0684F785E02D82
:10081000E80FF91F8081918119C0808991898150E9
:10082000904824813581821B930B880F991F068481
:10083000F785E02DE80FF91F8081918106C00288BD
:10084000F389E02D309731F0099544969093890013
:1008500080938800E0916803F09169038489813076
:1008600019F0843031F00DC0658976898789908DC3
:1008700006C0058CF68DE02D309719F009950E9481
:10088000F101E0916803F0916903878D823051F0A6
:1008900020F4813039F580A123C0833041F08430C9
:1008A000C9F020C0A4A1B5A18481958109C0A6A1E9
:1008B000B7A1119784819581A81BB90B84A195A13B
:1008C000A80FB91F9C918085981710F080E008C090
:1008D000891B06C000A4F1A5E02D309719F00995F9
:1008E0000E94BD03E0916803F091690384819581C2
:1008F000A681B7810196A11DB11D84839583A6832E
:10090000B783408151816281738184179507A6075F
:10091000B70770F1148215821682178282A593A5FB
:10092000A4A5B5A50097A105B10551F00197A109AE
:10093000B10982A793A7A4A7B5A786A597A514C0B8
:1009400080A991A9A2A9B3A90097A105B10551F069
:100950000197A109B10980AB91ABA2ABB3AB84A95C
:1009600095A902C086A997A990936903809368030B
:1009700081E080934E06FF91EF91BF91AF919F91DF
:100980008F917F916F915F914F913F912F910F9038
:100990000FBE0F901F901895FF920F931F93CF9348
:1009A000DF93EB01F82E8A0161E08091B5060E9489
:1009B000870360E08091BB060E94870382E00E946B
:1009C000B6038F2D0E94B6038D2F0E94B6038C2F85
:1009D0000E94B603E8010B5C1F4F89910E94B60389
:1009E000C017D107D1F761E08091BB060E94870351
:1009F00060E08091B506DF91CF911F910F91FF903C
:100A00000C94870361E08091B3060E948703809174
:100A1000B7060E945E03892BD1F308951F920F92AF
:100A20000FB60F9211242F933F938F939F93AF9301
:100A3000BF938091C8069091C906A091CA06B09153
:100A4000CB063091C70623E0230F2D3720F4019603
:100A5000A11DB11D05C026E8230F0296A11DB11DE1
:100A60002093C7068093C8069093C906A093CA0630
:100A7000B093CB068091C3069091C406A091C506A1
:100A8000B091C6060196A11DB11D8093C306909337
:100A9000C406A093C506B093C606BF91AF919F91BF
:100AA0008F913F912F910F900FBE0F901F9018952F
:100AB0008F929F92AF92BF92CF92DF92EF92FF926E
:100AC0000F931F936217730784079507A4F4890196
:100AD0009A016B017C0148015901861A970AA80AFC
:100AE000B90A0E947F0EA50194010E94D60E6C0DDA
:100AF0007D1D8E1D9F1D1F910F91FF90EF90DF9028
:100B0000CF90BF90AF909F908F900895CF93DF9339
:100B1000CDB7DEB72C970FB6F894DEBF0FBECDBFB2
:100B2000789484B5826084BD84B5816084BD85B5C8
:100B3000826085BD85B5816085BD80916E008160D4
:100B400080936E001092810080918100826080937A
:100B5000810080918100816080938100809180007C
:100B60008160809380008091B10084608093B100A7
:100B70008091B00081608093B00080917A008460A1
:100B800080937A0080917A00826080937A008091CD
:100B90007A00816080937A0080917A0080688093E7
:100BA0007A001092C10015BC1092B10080918100B2
:100BB000887F8093810010928000809181008860FE
:100BC00080938100109282008FB78C8310928500F1
:100BD0001092840010928900109288008C818FBF3F
:100BE00080916F00826080936F00789410924E061F
:100BF00087B1876087B9000088B1887F88B99FEF87
:100C00009AB900001BB888B1887F88B9429A88B128
:100C1000887F88B93D9A0000459A219A0000299A58
:100C20009093AF0605E3E3E3F3E0DF01202F1D928D
:100C30002A95E9F755E3E52EF12CF0923403E09282
:100C400033031BE0109335036EE071E086E393E01D
:100C50000E94D612EEEFF2E0DF011D920A95E9F74D
:100C6000F092FF02E092FE0265E071E081E093E025
:100C70000E94D61220E6EFE4F6E0DF01322F1D924B
:100C80003A95E9F780E690E09093500680934F06FE
:100C900010935106EEE9F2E0DF01322F1D923A95F2
:100CA000E9F790939F0280939E021093A002EEE3D7
:100CB000F2E0DF011D922A95E9F790933F028093BD
:100CC0003E021093400283E0E0EBF6E0DF011D926C
:100CD0008A95E9F78CE090E0EBE6F3E020EA32E079
:100CE000DF01A9011D9241505040E1F70197C1F782
:100CF000109269031092680381E190E09093BA0624
:100D00008093B90682E190E09093B4068093B30695
:100D100083E190E09093B6068093B50688E090E07A
:100D20009093B8068093B7068AE090E09093BC0653
:100D30008093BB068DE090E09093BE068093BD0645
:100D40008BE090E09093C0068093BF068CE090E02B
:100D50009093C2068093C10660E082E10E94860102
:100D600060E08091B3060E94870360E08091B50641
:100D70000E94860160E08091B5060E94870360E0D2
:100D80008091B7060E94860160E08091B7060E94BC
:100D9000870360E08091B9060E94860160E080913F
:100DA000B9060E94870360E08091BB060E9486011D
:100DB00060E08091BB060E94870360E08091BD06E1
:100DC0000E94860160E08091BD060E94870360E07A
:100DD0008091BF060E94860160E08091BF060E945C
:100DE000870360E08091C1060E94860160E08091E7
:100DF000C1060E94870361E08091B3060E948601CC
:100E000060E08091B3060E94870361E08091B5069F
:100E10000E94860160E08091B5060E94870361E030
:100E20008091BB060E94860161E08091BB060E9412
:100E3000870361E08091BD060E94860160E0809199
:100E4000BD060E94870361E08091BF060E94860173
:100E500060E08091BF060E9487038CB5837F8CBDC4
:100E60008CB58C7F8CBD8DB58E7F8DBD1FB7F894F2
:100E700080913D02811127C0EEE6F1E08491EAE520
:100E8000F1E09491E82FF0E0EE0FFF1FEA5BFE4FD8
:100E9000A591B491EC91E92321F461E08AE00E94EC
:100EA000870361E08AE00E9486018CB580618CBD79
:100EB0008CB580648CBD61E08DE00E94860161E0AC
:100EC0008BE00E94860180913D028F5F80933D02FE
:100ED0001FBF0E94020543E353E060E070E0CB01D6
:100EE0000E94CC0460E08091B3060E94870360E01A
:100EF0008091B5060E9487030E9402054EEF52E0E2
:100F000064E670E080E090E00E94CC0460E08091B4
:100F1000B3060E94870360E08091B5060E948703B4
:100F200081E00E94BD0361E070E080E090E00E94FB
:100F3000F10180E00E94BD0360E070E0CB010E94FF
:100F4000F10133E0332E81E10E945E03892BD9F356
:100F500080914E06882339F080918100887F8093AC
:100F6000810030924E060E94020560E08091BB062F
:100F70000E94870383E00E94B60380E00E94B603CC
:100F800080E00E94B60388EC0E94B6030FE416E0EE
:100F900080E00E94B603D8018D938D01B6E00F3A30
:100FA0001B07B1F761E08091BB060E94870360E0F8
:100FB0008091B3060E94870360E08091B5060E948D
:100FC00087031B821A82198280915206811109C0FF
:100FD00080914E06833009F03FC681E080934E0633
:100FE00036C60E94D5018091550680930001F0908D
:100FF0005306F0924D06809151068A3040F42091BC
:10100000590630915A062901612C712C0AC0409072
:101010007706509078066090790670907A068A304C
:1010200039F440915B0650915C0660E070E008C0C6
:1010300040917F06509180066091810670918206F2
:101040004093490650934A0660934B0670934C06B2
:101050008B3038F440915D0650915E0660E070E0A0
:1010600008C0409183065091840660918506709176
:101070008606409345065093460660934706709354
:1010800048068B3038F480915F0690916006A0E0AE
:10109000B0E008C08091870690918806A0918906EB
:1010A000B0918A068093410690934206A09343062E
:1010B000B09344060091750610917606A801440F7E
:1010C000551F440F551F69E476E089E196E00E94C0
:1010D000CD12109318060093170680917B0690910D
:1010E0007C06A0917D06B0917E06892B8A2B8B2BE6
:1010F000F9F0BE016D5F7F4FCE0101960E94410263
:10110000E981FA8180917B0690917C06A0917D0611
:10111000B0917E0680839183A283B38381E081872F
:1011200020E83EE340E050E022873387448755873C
:10113000411451046104710409F44FC08F2D90E0F3
:101140008D30910508F049C0FC01EC5CFF4F0C9418
:10115000C712BE016D5F7F4FCE0101960E94410212
:1011600089819A810E94C201E981FA8181E0848BA0
:1011700034C0BE016D5F7F4FCE0101960E944102D7
:1011800089819A810E94C20109811A8181E0D80176
:1011900054968C930E949402F801658B768B878B12
:1011A000908F1BC0BE016D5F7F4FCE0101960E94E4
:1011B000410289819A810E94C201E981FA8181E01C
:1011C000848B8091490690914A06A0914B06B0917C
:1011D0004C06858B968BA78BB08F809157068130FC
:1011E00011F1823009F043C0BE016D5F7F4FCE0127
:1011F00001960E94410280910001E981FA81808775
:1012000084E290E0A0E0B0E080839183A283B38386
:10121000918B808B27E431E03787268797A386A3BD
:1012200083E291E020C0BE016D5F7F4FCE01019649
:101230000E94410280910001E981FA81808724E3C4
:1012400030E040E050E0208331834283538384E3E5
:1012500090E0918B808B23EC31E03787268797A332
:1012600086A38FE891E095A384A33186378E1091F1
:1012700054061130F9F4BE016D5F7F4FCE01019627
:101280000E94410289819A810E94C201E981FA810A
:1012900021E030E040E050E02083318342835383FB
:1012A000178F8091000190E0A0E0B0E080A391A3AF
:1012B000A2A3B3A3411451046104710409F411C43D
:1012C000C090A706D090A806E090A906F090AA06C4
:1012D0008091AB069091AC06A091AD06B091AE06A0
:1012E000E0914D064E2F50E04D30510508F0F9C306
:1012F000FA01EF5BFF4F0C94C712BE016D5F7F4F89
:10130000CE0101960E944102E981FA814082518218
:101310006282738281E0818780E89EE3A0E0B0E092
:1013200082879387A487B587DCC3A8EEB3E0A301C7
:1013300092010E94F50E24EF31E040E050E00E945F
:10134000080F69017A016091450670914606809107
:101350004706909148060E9481104B015C01609104
:10136000490670914A0680914B0690914C060E9466
:1013700081109B01AC01C501B4010E94390F4B01E2
:101380005C01C701B6010E9481109B01AC01C5013F
:10139000B4010E94A60F6093130670931406809305
:1013A000150690931606BE016D5F7F4FCE01019624
:1013B0000E944102E981FA8181E0818720E43FE1D6
:1013C00040E050E02287338744875587C082D1822E
:1013D000E282F38284E0848B8BED90E05DC0A8EE26
:1013E000B3E0A30192010E94F50E24EF31E040E04A
:1013F00050E00E94080F69017A01609145067091E2
:10140000460680914706909148060E9481104B0144
:101410005C016091490670914A0680914B0690915B
:101420004C060E9481109B01AC01C501B4010E94D1
:10143000A60F0E9480114B015C01C701B6010E94FA
:1014400081109B01AC01C501B4010E94A60F0E944E
:10145000201060930F0670931006809311069093EE
:101460001206BE016D5F7F4FCE0101960E944102C0
:10147000E981FA8181E0818780E49FE1A0E0B0E02A
:1014800082879387A487B587C082D182E282F38264
:1014900084E0848B81E692E0968F858F22C3BE0123
:1014A0006D5F7F4FCE0101960E94410209811A8132
:1014B00081E0D80119968C93199720E43FE140E030
:1014C00050E01A962D933D934D935C931D97A8EE93
:1014D000B3E0A30192010E94F50E24EF31E040E059
:1014E00050E00E94080FF801208331834283538328
:1014F00084E0848B84E992E0CFCFBE016D5F7F4FA3
:10150000CE0101960E94410209811A8181E0D80131
:1015100019968C93199720E43FE140E050E01A9629
:101520002D933D934D935C931D97A8EEB3E0A301DB
:1015300092010E94F50E24EF31E040E050E00E945D
:10154000080FF801208331834283538384E0848B26
:101550008EE091E0A1CFA8EEB3E0A30192010E943A
:10156000F50E28EE33E040E050E00E94080F6901DC
:101570007A016091450670914606809147069091E8
:1015800048060E9481104B015C01C701B6010E9410
:1015900081106D837E838F83988760914906709157
:1015A0004A0680914B0690914C060E9481109B0147
:1015B000AC01C501B4010E94390F2D813E814F81DC
:1015C00058850E94A60F60931306709314068093AB
:1015D000150690931606609141067091420680911F
:1015E0004306909144060E948110A50194010E9437
:1015F000390F2D813E814F8158850E94A60F60933F
:101600000B0670930C0680930D0690930E06BE0198
:101610006D5F7F4FCE0101960E944102E981FA8100
:1016200001E0018720E43FE140E050E0228733877A
:1016300044875587C082D182E282F38214E0148B02
:101640008BED90E0968F858FBE016D5F7F4FCE0151
:1016500001960E944102E981FA81018780E49FE1BD
:10166000A0E0B0E082879387A487B587C082D1824B
:10167000E282F382148B8AE291E00ECFA7019601F9
:10168000C816D906EA06FB0610F49C01AD01490113
:101690005A018C189D08AE08BF08C301B2010E9410
:1016A000080F2D833E834F835887C616D706E8065A
:1016B000F90648F49B01AC012C193D094E095F095C
:1016C00069017A0103C0C12CD12C7601BE016D5F86
:1016D0007F4FCE0101960E944102A981BA814091BB
:1016E000A7065091A8066091A9067091AA064D938D
:1016F0005D936D937C93139781E019968C93199762
:1017000020E83EE340E050E01A962D933D934D9340
:101710005C931D975F968C935F974091000150E01A
:1017200060E070E090964D935D936D937C939397FA
:101730002D813E814F8158859A962D933D934D93EF
:101740005C939D976B8181149104A104B10439F0DD
:1017500038E3639FC001112485599C4F01C0CD011E
:101760009F969C938E939E9721E030E040E050E05E
:10177000D0962D933D934D935C93D397262F30E0D5
:10178000C114D104E104F10419F02F5F3F4F02C0EE
:101790002E5F3F4F48E3429FC001439F900D1124AD
:1017A00085599C4FD5969C938E93D497262F30E0E5
:1017B000A9014E5F5F4F78E3749FC001759F900D44
:1017C000112485599C4FD7969C938E93D697729FE0
:1017D000F001739FF00D11248F0105591C4FF80182
:1017E000272F11922A95E9F7F80180829182A2822F
:1017F000B38281E0818720E83EE340E050E0228729
:10180000338744875587878F10A211A212A213A293
:10181000B7ABA6ABE1E0E60F7E9FF00111248F018C
:1018200005591C4FF80111927A95E9F71A8309833B
:101830006E5F6B83F801C082D182E282F38281877E
:101840002287338744875587878F10A211A212A25F
:1018500013A221E030E040E050E022A733A744A7E4
:1018600055A7B7A7A6A7B7ABA6AB3BC1F4E0CF0E71
:10187000D11CE11CF11CA7019601C816D906EA0685
:10188000FB0610F49C01AD01DA01C9018C199D0918
:10189000AE09BF098D839E83AF83B887C301B201B0
:1018A0000E94080F29873A874B875C87C616D706A0
:1018B000E806F90638F44B015C018C189D08AE0867
:1018C000BF0803C0812C912C5401BE016D5F7F4F76
:1018D000CE0101960E9441028091000109811A8186
:1018E000D80118968C93189724E230E040E050E03D
:1018F0002D933D934D935C93139784E2E82EF12C46
:101900005196FC92EE925097E7E4F1E01F96FC931B
:10191000EE931E979796FC92EE92969793E2C92EBD
:1019200091E0D92E9596DC92CE92949719963C929E
:1019300019975F963C92BE016D5F7F4FCE01019675
:101940000E944102E981FA818091A7069091A80640
:10195000A091A906B091AA0680839183A283B38344
:1019600081E0818720E83EE340E050E02287338732
:1019700044875587BE016D5F7F4FCE0101960E945F
:10198000410280910001E981FA81808784E290E040
:10199000A0E0B0E080839183A283B383F18AE08AE0
:1019A000A7E4B1E0B787A687F7A2E6A2D5A2C4A2B2
:1019B00082E08187878F29853A854B855C8522A7C0
:1019C00033A744A755A76B818D819E81AF81B885D0
:1019D000892B8A2B8B2B39F0A8E36A9FC001112435
:1019E00085599C4F01C0C80197A786A721E030E028
:1019F00040E050E020AB31AB42AB53AB262F30E0A0
:101A000081149104A104B10419F02F5F3F4F02C06B
:101A10002E5F3F4F48E3429FC001439F900D11242A
:101A200085599C4F95AB84AB262F30E0A9014E5FC2
:101A30005F4F78E3749FC001759F900D1124855905
:101A40009C4F97AB86AB729FF001739FF00D1124F2
:101A5000E559FC4FDF01272F1D922A95E9F78D816B
:101A60009E81AF81B88580839183A283B38381E017
:101A7000818720E83EE340E050E0228733874487B7
:101A80005587878F10A211A212A213A217AB06AB23
:101A9000E1E0E60F7E9FF0011124E559FC4FDF01E4
:101AA0001D927A95E9F7FA83E9836E5F6B838082F2
:101AB0009182A282B38281872287338744875587A8
:101AC000878F10A211A212A213A221E030E040E001
:101AD00050E022A733A744A755A717A706A717AB1F
:101AE00006AB109158061230A9F168F4113009F0D4
:101AF00079C0BE016D5F7F4FCE0101960E94410209
:101B00008091000155C0133009F449C0143009F028
:101B100069C0BE016D5F7F4FCE0101960E944102F8
:101B200080916A03E981FA81808724E230E040E015
:101B300050E0208331834283538384E290E0918B91
:101B4000808B27E431E03787268797A386A383E23B
:101B500091E043C0BE016D5F7F4FCE0101960E94B0
:101B6000410280910001E981FA81808724E230E01E
:101B700040E050E0208331834283538384E290E04D
:101B8000918B808B27E431E03787268797A386A344
:101B900083E291E095A384A31187178F23C0BE0130
:101BA0006D5F7F4FCE0101960E94410280916A03D2
:101BB000E981FA81808784E390E0A0E0B0E080834F
:101BC0009183A283B383918B808B23EC31E03787A1
:101BD000268797A386A38FE891E095A384A382E04C
:101BE0008187878F452846284728C1F0BE016D5F51
:101BF0007F4FCE0101960E94410289819A810E9405
:101C0000C201E981FA8181E0848B158A168A178ADC
:101C1000108E878F10A211A212A213A2E981FA815D
:101C2000309741F04BE653E05093690340936803CB
:101C300017AA16AA80E991E0909389008093880002
:101C400081E080934E06109285001092840080916E
:101C5000810081608093810080E090E0892B09F40D
:101C600072C90E9400006DC98F929F92AF92BF927D
:101C7000CF92DF92EF92FF92CF93DF93EC016881D6
:101C800079818A819B81611571058105910521F416
:101C900064E279ED8BE597E02DE133EF41E050E030
:101CA0000E94D60E49015A019B01AC01A7EAB1E49A
:101CB0000E94F50E6B017C01ACEEB4EFA50194011E
:101CC0000E94030FDC01CB018C0D9D1DAE1DBF1DBD
:101CD000B7FF03C00197A109B04888839983AA83FD
:101CE000BB83BC01CD019F77DF91CF91FF90EF9037
:101CF000DF90CF90BF90AF909F908F9008958F927C
:101D00009F92AF92BF92CF92DF92EF92FF9260913B
:101D1000010170910201809103019091040161150C
:101D200071058105910521F464E279ED8BE597E079
:101D30002DE133EF41E050E00E94D60E49015A01F7
:101D40009B01AC01A7EAB1E40E94F50E6B017C0196
:101D5000ACEEB4EFA50194010E94030FDC01CB01AE
:101D60008C0D9D1DAE1DBF1DB7FF03C00197A109BE
:101D7000B0488093010190930201A0930301B093B6
:101D80000401BC01CD019F77FF90EF90DF90CF90D1
:101D9000BF90AF909F908F900895609301017093D2
:101DA000020180930301909304010895052E97FB8F
:101DB0001EF400940E94ED0E57FD07D00E94080FFC
:101DC00007FC03D04EF40C94ED0E509540953095E1
:101DD00021953F4F4F4F5F4F089590958095709597
:101DE00061957F4F8F4F9F4F08950E942A0FA59FA7
:101DF000900DB49F900DA49F800D911D1124089506
:101E0000B7FF0C94F50E0E94F50E821B930B0895FC
:101E1000A1E21A2EAA1BBB1BFD010DC0AA1FBB1FEE
:101E2000EE1FFF1FA217B307E407F50720F0A21B60
:101E3000B30BE40BF50B661F771F881F991F1A94CD
:101E400069F760957095809590959B01AC01BD01F7
:101E5000CF010895A29FB001B39FC001A39F700D51
:101E6000811D1124911DB29F700D811D1124911DA2
:101E700008955058BB27AA270E94510F0C94FC10BC
:101E80000E94EE1038F00E94F51020F039F49F3FC8
:101E900019F426F40C94C4100EF4E095E7FB0C94AE
:101EA000BE10E92F0E940D1158F3BA17620773078D
:101EB0008407950720F079F4A6F50C942F110EF401
:101EC000E0950B2EBA2FA02D0B01B90190010C014A
:101ED000CA01A0011124FF27591B99F0593F50F462
:101EE000503E68F11A16F040A22F232F342F4427BA
:101EF000585FF3CF469537952795A795F0405395B2
:101F0000C9F77EF41F16BA0B620B730B840BBAF081
:101F10009150A1F0FF0FBB1F661F771F881FC2F7EC
:101F20000EC0BA0F621F731F841F48F48795779500
:101F30006795B795F7959E3F08F0B0CF9395880FBA
:101F400008F09927EE0F9795879508950E94BA0F8C
:101F50000C94FC100E94F51058F00E94EE1040F016
:101F600029F45F3F29F00C94BE1051110C943011EC
:101F70000C94C4100E940D1168F39923B1F35523FA
:101F800091F3951B550BBB27AA276217730784078C
:101F900038F09F5F5F4F220F331F441FAA1FA9F322
:101FA00035D00E2E3AF0E0E832D091505040E69510
:101FB000001CCAF72BD0FE2F29D0660F771F881F71
:101FC000BB1F261737074807AB07B0E809F0BB0B64
:101FD000802DBF01FF2793585F4F3AF09E3F510578
:101FE00078F00C94BE100C9430115F3FE4F3983EEF
:101FF000D4F3869577956795B795F7959F5FC9F761
:10200000880F911D9695879597F90895E1E0660FE1
:10201000771F881FBB1F621773078407BA0720F05A
:10202000621B730B840BBA0BEE1F88F7E0950895C3
:1020300029F416F00C94BE100C942F110C94C410BB
:102040000E941511A8F39638A0F707F80F92E894AC
:102050002BE33AEA48EB5FE70E9412120F920F92CD
:102060000F924DB75EB70F920E94C811ECE9F0E0F5
:102070000E94C7104F915F91EF91FF91E595EE1F80
:10208000FF1F49F0FE57E0684427EE0F441FFA9502
:10209000E1F74195550B0E9442110F9007FE0C94F9
:1020A000361108950E94151188F09F5798F0B92FA6
:1020B0009927B751B0F0E1F0660F771F881F991F7D
:1020C0001AF0BA95C9F714C0B13091F00E942F11DF
:1020D000B1E008950C942F11672F782F8827B85FEF
:1020E00039F0B93FCCF3869577956795B395D9F7D5
:1020F0003EF490958095709561957F4F8F4F9F4FDF
:102100000895E89409C097FB3EF4909580957095EA
:1021100061957F4F8F4F9F4F9923A9F0F92F96E933
:10212000BB279395F695879577956795B795F111A8
:10213000F8CFFAF4BB0F11F460FF1BC06F5F7F4F45
:102140008F4F9F4F16C0882311F096E911C0772357
:1021500021F09EE8872F762F05C0662371F096E860
:10216000862F70E060E02AF09A95660F771F881F2F
:10217000DAF7880F9695879597F9089597F99F67ED
:1021800080E870E060E008959FEF80EC0895DF93B1
:10219000CF931F930F93FF92EF92DF927B018C01FD
:1021A000689406C0DA2EEF010E940F12FE01E89437
:1021B000A5912591359145915591A6F3EF010E9486
:1021C000510FFE019701A801DA9469F7DF90EF90B3
:1021D000FF900F911F91CF91DF91089500240A94F1
:1021E0001616170618060906089500240A941216F2
:1021F0001306140605060895092E0394000C11F425
:10220000882352F0BB0F40F4BF2B11F460FF04C0D1
:102210006F5F7F4F8F4F9F4F089557FD9058440F2A
:10222000551F59F05F3F71F04795880F97FB991F35
:1022300061F09F3F79F087950895121613061406F2
:10224000551FF2CF4695F1DF08C01616170618067F
:10225000991FF1CF86957105610508940895E8945A
:10226000BB2766277727CB0197F908959B01AC011F
:1022700060E070E080E89FE30C94A60F0C94BE1021
:102280000C94B9120E941511D8F39923C9F3940F35
:10229000511DA3F39150504094F059F0882332F02F
:1022A000660F771F881F91505040C1F79E3F510520
:1022B0002CF7880F911D9695879597F908955F3FA4
:1022C000ACF0983E9CF0BB27869577956795B795BF
:1022D00008F4B1609395C1F7BB0F58F711F460FF94
:1022E000E8CF6F5F7F4F8F4F9F4FE3CF0C9430113C
:1022F00016F00C94B9120C94C41068940C94BE108F
:102300000E941511A8F39923C1F3AEF3DF93CF9385
:102310001F930F93FF92C92FDD2788232AF021975F
:10232000660F771F881FDAF720E030E040E85FEBA8
:102330009FE3883920F0803E38F021968F770E9405
:102340003A0FE4ECF0E004C00E943A0FE1EFF0E055
:102350000E94C7108B01BE01EC01FB2E6F57710963
:102360007595771F880B990B0E94831028E132E73F
:1023700041E35FE30E940F12AF2D9801AE01FF9081
:102380000F911F91CF91DF910E94510F0C94FC107F
:10239000FA01DC01AA0FBB1F9B01AC01BF5728F457
:1023A000222733274427507820C0B75190F4AB2F11
:1023B0000024469537952795011CA395D2F300205C
:1023C00071F0220F331F441FB395DAF30ED00C9433
:1023D000390F61307105A0E88A07B94630F49B01D6
:1023E000AC016627772788279078309621F02083E4
:1023F00031834283538308950E940F120C94FC1082
:102400000E94EE1038F00E94F51020F0952311F094
:102410000C94BE100C94C41011240C9430110E9422
:102420000D1170F3959FC1F3950F50E0551F629FFA
:10243000F001729FBB27F00DB11D639FAA27F00D1D
:10244000B11DAA1F649F6627B00DA11D661F829F44
:102450002227B00DA11D621F739FB00DA11D621F29
:10246000839FA00D611D221F749F3327A00D611D46
:10247000231F849F600D211D822F762F6A2F112428
:102480009F5750409AF0F1F088234AF0EE0FFF1F5B
:10249000BB1F661F771F881F91505040A9F79E3FB2
:1024A000510580F00C94BE100C9430115F3FE4F3A2
:1024B000983ED4F3869577956795B795F795E79508
:1024C0009F5FC1F7FE2B880F911D9695879597F911
:1024D0000895FA01EE0FFF1F309621053105A1F195
:1024E0006115710561F48038BFE39B0749F1689479
:1024F0009038810561F08038BFEF9B0741F0992348
:102500004AF5FF3FE1053105210519F1E8940894EA
:10251000E795D901AA2329F4AB2FBE2FF85FD0F39A
:1025200010C0FF5F70F4A695E0F7F73950F019F08E
:10253000FF3A38F49F779F930DD00F9007FC905887
:10254000089546F00C94C41060E070E080E89FE3CA
:1025500008954FE79F775F934F933F932F930E9488
:1025600080112F913F914F915F910E94FC110C942B
:1025700020109F3F31F0915020F487957795679513
:10258000B795880F911D9695879597F90895EE0F49
:10259000FF1F0590F491E02D0994FB01DC0102C0BE
:1025A00001900D9241505040D8F70895FB01DC0195
:0E25B00001900D920020E1F70895F894FFCFFE
:1025BE00C0010000006E6F206572726F720056458A
:1025CE00523031315F32303138313230375F504A2C
:1025DE00572E000102030405060708090A0B0C0D0D
:1025EE000E0F1011121314151617191B1D1F212370
:1025FE0026292D32384154BE1AB70AFA078606929A
:10260E0005E1045804EA038F034103FD02C2028E62
:10261E0002600235020F02EC01CC01AF0193017B87
:10262E000164014E0161021B02DE01A80178014F17
:10263E0001B2016D018D017F014F01480141010180
:10264E0002030405060708090A0B0C0D0E0F1011E4
:10265E0012131415161718191A1B1C1D1E1F2021D4
:10266E00222324252627292B2D2F313336393D427F
:10267E00485165DB42CA1AF1134E10ED0D330CDDD5
:10268E000AC909E40822087A07E5066406EE0585FC
:10269E00052505CE047E043504F103B30379034307
:1026AE00031103E202B6028D026802430222020205
:1026BE0002E501C901AF0196017F016A0155014191
:1026CE00014E020D02D301A10173014A01AD016950
:0C26DE00018A017D014D01460149010007
:107800000C94343C0C94513C0C94513C0C94513CE1
:107810000C94513C0C94513C0C94513C0C94513CB4
:107820000C94513C0C94513C0C94513C0C94513CA4
:107830000C94513C0C94513C0C94513C0C94513C94
:107840000C94513C0C94513C0C94513C0C94513C84
:107850000C94513C0C94513C0C94513C0C94513C74
:107860000C94513C0C94513C11241FBECFEFD8E036
:10787000DEBFCDBF11E0A0E0B1E0ECE9FFE702C060
:1078800005900D92A230B107D9F712E0A2E0B1E065
:1078900001C01D92AD30B107E1F70E942D3D0C945F
:1078A000CC3F0C94003C982F959595959595959582
:1078B000905D8F708A307CF0282F295A8091C0000B
:1078C00085FFFCCF9093C6008091C00085FFFCCF60
:1078D0002093C6000895282F205DF0CF982F809127
:1078E000C00085FFFCCF9093C6000895EF92FF92F1
:1078F0000F931F93EE24FF2487018091C00087FD22
:1079000017C00894E11CF11C011D111D81E4E8164B
:1079100082E4F8068FE0080780E0180770F3E09132
:107920000401F091050109958091C00087FFE9CF1E
:107930008091C6001F910F91FF90EF9008950E94D3
:10794000763C982F8091C00085FFFCCF9093C600B5
:1079500091362CF490330CF09053892F089597555D
:10796000892F08951F930E949F3C182F0E949F3CCF
:107970001295107F810F1F9108951F93182F882350
:1079800021F00E94763C1150E1F71F9108951F935A
:10799000182F0E94763C803249F0809103018F5F5E
:1079A000809303018530C1F01F9108958091C0003C
:1079B00085FFFCCF84E18093C6008091C00085FFE5
:1079C000FCCF1093C6008091C00085FFFCCF80E102
:1079D0008093C6001F910895E0910401F091050184
:1079E00009951F9108950E94763C803241F0809164
:1079F00003018F5F80930301853081F008958091AA
:107A0000C00085FFFCCF84E18093C6008091C00058
:107A100085FFFCCF80E18093C6000895E0910401CA
:107A2000F09105010995089540E951E08823A1F0FE
:107A30002D9A28EE33E0FA013197F1F721503040CA
:107A4000D1F72D9828EE33E0FA013197F1F7215064
:107A50003040D1F7815061F708953F924F925F9285
:107A60006F927F928F929F92AF92BF92CF92DF924E
:107A7000EF92FF920F931F93CF93DF93000080E16B
:107A80008093C4001092C50088E18093C10086E015
:107A90008093C2005098589A259A81E00E94143D24
:107AA00024E1F22E9EE1E92E85E9D82E0FE0C02ECA
:107AB00010E1B12EAA24A394B1E49B2EA6E58A2E50
:107AC000F2E57F2EE0E26E2E79E4572E63E5462E36
:107AD00050E5352E0E94763C8033B1F18133B9F107
:107AE000803409F46FC0813409F476C0823409F41B
:107AF00085C0853409F488C0803531F1823521F1A3
:107B0000813511F1853509F485C0863509F48DC0BC
:107B1000843609F496C0843709F403C1853709F423
:107B200072C1863709F466C0809103018F5F80932C
:107B30000301853079F6E0910401F0910501099582
:107B40000E94763C803351F60E94F33CC3CF0E94E2
:107B5000763C803249F78091C00085FFFCCFF092DF
:107B6000C6008091C00085FFFCCF9092C600809136
:107B7000C00085FFFCCF8092C6008091C00085FFC9
:107B8000FCCF7092C6008091C00085FFFCCF609250
:107B9000C6008091C00085FFFCCF5092C600809146
:107BA000C00085FFFCCF4092C6008091C00085FFD9
:107BB000FCCF3092C6008091C00085FFFCCFB09210
:107BC000C60088CF0E94763C863808F4BDCF0E945C
:107BD000763C0E94F33C7ECF0E94763C803809F4CC
:107BE0009CC0813809F40BC1823809F43CC1883942
:107BF00009F48FC080E00E94C73C6CCF84E10E94F2
:107C0000BD3C0E94F33C66CF85E00E94BD3C0E94D3
:107C1000F33C60CF0E94763C809306010E94763C44
:107C2000809307010E94F33C55CF0E94763C80333D
:107C300009F41DC183E00E94BD3C80E00E94C73C66
:107C400049CF0E94763C809309020E94763C809343
:107C5000080280910C028E7F80930C020E94763C79
:107C6000853409F415C18091080290910902892B8D
:107C700089F000E010E00E94763CF801E85FFE4FDA
:107C800080830F5F1F4F80910802909109020817AF
:107C9000190788F30E94763C803209F045CF809125
:107CA0000C0280FF01C16091060170910701660F0F
:107CB000771F7093070160930601A0910802B091AD
:107CC00009021097C9F0E8E0F1E09B01AD014E0F09
:107CD0005F1FF999FECF32BD21BD819180BDFA9A17
:107CE000F99A2F5F3F4FE417F50799F76A0F7B1F4B
:107CF00070930701609306018091C00085FFFCCF5F
:107D0000F092C6008091C00085FFFCCFB092C60003
:107D1000E1CE83E00E94C73CDDCE82E00E94C73CFA
:107D2000D9CE0E94763C809309020E94763C8093D3
:107D300008028091060190910701880F991F909386
:107D40000701809306010E94763C853409F4A6C0A1
:107D500080910C028E7F80930C020E94763C8032D0
:107D600009F0B8CE8091C00085FFFCCFF092C6002C
:107D7000609108027091090261157105B9F140E046
:107D800050E080910C02A82FA170B82FB27011C0E2
:107D9000BB2309F45CC0E0910601F0910701319624
:107DA000F0930701E09306014F5F5F4F46175707B7
:107DB000E8F4AA2369F3F999FECF209106013091E6
:107DC000070132BD21BDF89A90B58091C00085FFB2
:107DD000FCCF9093C6002F5F3F4F30930701209355
:107DE00006014F5F5F4F4617570718F38091C00099
:107DF00085FDE5CE8091C00085FFF8CFE0CE81E023
:107E00000E94C73C67CE0E94763C803209F08CCE3F
:107E10008091C00085FFFCCFF092C6008091C00029
:107E200085FFFCCFE092C6008091C00085FFFCCFAB
:107E3000D092C6008091C00085FFFCCFC092C600E2
:107E40008091C00085FFFCCFB092C60043CEE09188
:107E50000601F091070194918091C00085FFFCCF4D
:107E60009093C6009CCF80E10E94C73C33CE0E9415
:107E7000763C0E94763C182F0E94763C112309F430
:107E800083C0113009F484C08FE00E94C73C22CE29
:107E900080910C02816080930C02E5CE80910C02EF
:107EA000816080930C0259CF809107018823880F4D
:107EB000880B8A2180930B02809106019091070123
:107EC000880F991F90930701809306018091080203
:107ED00080FF09C080910802909109020196909359
:107EE000090280930802F894F999FECF1127E091D6
:107EF0000601F0910701C8E0D1E08091080290915D
:107F00000902103091F40091570001700130D9F34B
:107F100003E000935700E89500915700017001308D
:107F2000D9F301E100935700E89509901990009169
:107F3000570001700130D9F301E000935700E89534
:107F40001395103498F011270091570001700130FB
:107F5000D9F305E000935700E895009157000170B0
:107F60000130D9F301E100935700E895329602976A
:107F700009F0C7CF103011F00296E5CF112480919F
:107F8000C00085FFB9CEBCCE8EE10E94C73CA2CD19
:0C7F900085E90E94C73C9ECDF894FFCF0D
:027F9C00800063
:040000030000780081
:00000001FF