:1000000000000320D1010000D92E0000912E000035
:10001000912E0000912E0000912E0000912E0000E4
:10002000912E0000912E0000912E0000D92E00008C
:10003000D92E0000912E0000594400005D450000BB
:10004000D92E0000D92E0000D92E0000D92E000094
:10005000D92E0000D92E0000D92E0000D92E000084
:10006000D92E0000D92E0000D92E0000D92E000074
:10007000D92E0000D92E0000D92E0000D92E000064
:10008000D92E0000D92E0000D92E0000D92E000054
:10009000D92E0000D92E0000D92E0000D92E000044
:1000A000D92E0000D92E0000D92E0000D92E000034
:1000B000D92E0000D92E0000D92E0000FD490000E5
:1000C000D92E0000294B0000D92E0000554C00000D
:1000D000D92E00004D4D0000D92E0000D92E000071
:1000E000D92E0000D92E0000D92E0000D92E0000F4
:1000F000D92E0000D92E0000D92E0000D92E0000E4
:10010000494600005D46000071460000854600003B
:10011000D92E000065340000D92E0000D92E000031
:10012000D92E0000D92E0000D92E0000D92E0000B3
:10013000D92E0000D92E0000D92E0000D92E0000A3
:10014000D92E0000D92E0000454E0000D92E000007
:10015000D92E0000D92E0000D92E0000D92E000083
:10016000D92E0000D92E0000D92E0000D92E000073
:10017000D92E0000D92E0000D92E0000D92E000063
:10018000D92E0000D92E0000D92E0000D92E000053
:10019000D92E0000D92E00003D4F0000D92E0000BE
:1001A000D92E0000D92E0000D92E0000D92E000033
:1001B000D92E0000D92E0000D92E0000D92E000023
:1001C000D92E0000D92E0000D92E0000D92E000013
:1001D0005C4B4CF2205210B51A804DF628121A8052
:1001E00000BF00BF02F07CFE574B4FF030621A6038
:1001F000564A9A60564ADA60564B4FF470021A60BB
:10020000554B564A1A60564A136813F4807304D14A
:1002100054490B604FF4A8531360534B1A781107DD
:1002200003D51A7842F008021A70504B5049AA229E
:100230001A70504A504B8B4204D252F8040F43F8C4
:10024000040BF8E74D4B4E4900228B4202D243F893
:10025000042BFAE74B494C4A002352F8230041F89B
:1002600023000133742BF8D1484B494A802103F80D
:10027000011B9342FBD1474B424A1A60464B8A22EC
:100280001A70A3F5805324225A70A0221A709A790A
:100290009207FCD59A79D406FCD4404A937903F0AE
:1002A0000C03082BFAD13E4B60221A7002331A78E5
:1002B000802AFCD1394B01221A715D225A719A7938
:1002C0009006FCD59979354A4906FBD5354B364918
:1002D00019600021596020231370937903F00C03F7
:1002E0000C2BFAD1314B324A1A60324B324A1A6027
:1002F00000225A60072243F8042C304AC3F80C2D20
:1003000062B602F01FFF174B1B68DA0705D52C48B1
:1003100002F09AFE2B4B2C4A1A602C4B1B785B0682
:1003200009D5284C284B22689A4204D1244802F06F
:100330008BFE0023236007F0B1F902F0D7FD04F033
:10034000ABF9FEE70E20054030800440823F0400F8
:100350000100002B88ED00E0002008E0030000858C
:1003600010D0034014D0034002D0074000E0074003
:100370001C17FF1F548500003007FF1F1C17FF1FAD
:100380005425FF1F0002FF1F0000000000E400E0F2
:1003900064E400E008ED00E0005006400040064044
:1003A00001E007404480044000000602048004404D
:1003B000C010070014E000E01FBF02000000202072
:1003C0000410365C1CE00340A5C3945A00F00740BB
:1003D000FFFFFFFFFFFFFFFFFFFFFFFFFFFFFFFF2D
:1003E000FFFFFFFFFFFFFFFFFFFFFFFFFFFFFFFF1D
:1003F000FFFFFFFFFFFFFFFFFFFFFFFFFFFFFFFF0D
:10040000FFFFFFFFFFFFFFFFFFFFFFFFDEF9FFFF23
:1004100010B5054C237833B9044B13B10448AFF33E
:1004200000800123237010BD1C17FF1F0000000077
:1004300058850000084B10B51BB108490848AFF3B8
:1004400000800848036803B910BD074B002BFBD0A0
:10045000BDE81040184700BF000000002017FF1F34
:10046000588500001C17FF1F0000000010B5144C39
:1004700040F6B831204602F0C7F8204611494FF443
:10048000E13202F09BF82046012102F071F860B1E0
:10049000606C0D49036811225B68984720460A2169
:1004A00001F0D8FF204602F087F80548012200211C
:1004B00002F072F90548BDE8104000F0EBBE00BF45
:1004C0007420FF1F280EFF1F8C8000004417FF1FA1
:1004D00070B5284C84B023680193019B23B923682D
:1004E0000293029B012B1FD9234D244E284601F075
:1004F000C3FF326822499042034608601FD39A1A0C
:10050000F92A11D94FF4FA712846336001F0BEFF81
:100510000121284602F02CF898B91748052101F06E
:1005200099FF154802F01AF8164800F0A9FE154880
:1005300001F01AF9134801F047F904B070BD3360B7
:10054000F2E72846012101F0B3FF686C0E49036809
:1005500001225B689847236803930399686C002322
:100560000A2204F0B1F8284601F0E8FF284602F01C
:1005700023F8D2E7E420FF1F7420FF1F3817FF1F66
:100580003C17FF1F4417FF1FA08000000A4B0B4AB7
:100590001B68D2ED007A5B6807EE103A084BB8EEA4
:1005A000477AD3ED006AF8EE677AE7EE267AFCEE3A
:1005B000E77A17EE900A70475C1BFF1FA01BFF1F16
:1005C0004C1FFF1F0A4B0B4A1B68D2ED007A5B6879
:1005D00007EE103A084BB8EE477AD3ED006AF8EE12
:1005E000677AE7EE267AFCEEE77A17EE900A704714
:1005F0005C1BFF1FA41BFF1FAC17FF1F064A074B06
:1006000012681B88516806489BB2B1FBF3F203FBEA
:10061000121350F8230070475C1BFF1FB017FF1F19
:10062000AC1BFF1F70B5114B82B0186806F066FC5A
:100630000F4B104A1B681668044658680D4606F0B2
:100640005DFCCDE90001304606F07AFC9DED001B13
:1006500041EC100B04F040FE204653EC102B2946D1
:1006600006F0C2FC06F098FF02B070BDA01BFF1F91
:100670005C1BFF1F981BFF1F10B5044603F0C2FF51
:10068000204610BD274A284B70B516681D68AE423B
:1006900002D82B4635461E46244B1B78053B032BC0
:1006A00018D8DFE803F0382C18023146284604F049
:1006B00093F831460446284604F08EF83146044447
:1006C000284604F089F831460444284604F084F8AA
:1006D0002044800870BD3146284604F07DF831463C
:1006E0000446284604F078F831460444284604F0CD
:1006F00073F80F4B2044A3FB0030400870BD314617
:10070000284604F069F831460446284604F064F8A7
:100710002044400870BD31462846BDE8704004F0D2
:100720005BB800BFA41BFF1FA01BFF1FB217FF1F5A
:10073000ABAAAAAA2DE9F04F7D4E7E4D33682DED70
:10074000028B022285B02A70002B00F0ED801A681F
:10075000002A00F0E9805A7A013A032A26D8DFE815
:1007600012F00400070315032C03D3F80A2007EE48
:10077000902AF5EEC07AF1EE10FA17D99FED6E7A55
:10078000F4EEC77AF1EE10FA10DCDFED6C6ABEEE23
:10079000007AA7EEA67AFCEEC77A17EE902A232AF3
:1007A00004D96749674803F0E3FE33681A7E012ADB
:1007B00000F0E480042A0CD1D3F823204AB1624B24
:1007C00001931C46904723688342804640F034835F
:1007D000336893F82720013A032A00F28680DFE885
:1007E00012F06202FD017E010400D3F83220002ADB
:1007F0007BD0564C904723788342074600F0AA846A
:100800001520002102F032FC514AD07A00282AD06B
:1008100072B6D17AC8070B4609D5DFF858E1D3681C
:10082000DEF800001840D0610B46CEF800008807C3
:1008300006D5484913690868034013620B60D37AF0
:10084000590706D5444953690868034053620B6051
:10085000D37A180705D54149936908680340936224
:100860000B6062B6D07A1368D968B1F1384F0DD0F9
:10087000DFF804E1C3F800E04FF0384EC3F80CE0B5
:1008800037494FF0784EC3F810E019604FF000413F
:10089000D9625F63D96A0029FCDA4FF00041D3F8CE
:1008A00038E0D9625F63D96A0029FCDA9B6BB0B18A
:1008B000C10703D52B4BD1691960D07A830703D5C3
:1008C000294B116A1960D07A410703D5274B516A29
:1008D0001960D07A030702D5254B926A1A6001216C
:1008E000152002F0C3FB336827705A68196801327B
:1008F0008A425A6011D3D3F8361000221A715A7105
:100900009A71DA71002940F05182D3F83E20002A12
:1009100040F07482D3F84630336001232B7005B069
:10092000BDEC028BBDE8F08F064803F06BFEF4E7E8
:100930005C1BFF1F4017FF1F8988884C0000704216
:1009400035070000B41AFF1F581BFF1F9C1BFF1F19
:10095000D00DFF1F84E100E088E100E08CE100E0C1
:1009600000003F8000E100E004E100E008E100E079
:100970000CE100E080E100E001403F00D3F81920E5
:1009800008EE102A8A4A0192BCEEC88A126818EE54
:10099000101A8A423FF41DAFF8EE487A9FED857A2F
:1009A000854F67EE877A07F12009FCEEE77A3C462F
:1009B000CDED027A54F8040F0021C0B202F056FBCC
:1009C000A145F7D10121042002F050FB00210420B1
:1009D00002F04CFBDFF8E0819DF90BB000244FF0F2
:1009E000010A0AFA04F158F8040F0BEA0101C9B22E
:1009F0000134C0B202F03AFB082CF2D101210420EC
:100A000002F034FB0021042002F030FBDFF8A88163
:100A10009DF90AB000244FF0010A0AFA04F158F8CF
:100A2000040F0BEA0101C9B20134C0B202F01EFB8F
:100A3000082CF2D10121042002F018FB002104202F
:100A400002F014FBDFF870819DF909B000244FF02B
:100A5000010A0AFA04F158F8040F0BEA0101C9B2BD
:100A60000134C0B202F002FB082CF2D101210420B3
:100A700002F0FCFA0021042002F0F8FADFF83881D5
:100A80009DF908B000244FF0010A0AFA04F158F861
:100A9000040F0BEA0101C9B20134C0B202F0E6FA58
:100AA000082CF2D10121042002F0E0FA00210420F8
:100AB00002F0DCFA0121052002F0D8FA002105201D
:100AC00002F0D4FA57F8040F0021C0B202F0CEFAB7
:100AD000B945F7D1019B83ED008A336879E65A68FE
:100AE000198EDC6A187A891A2144344C11F8017C79
:100AF000874280F04A82C01B2178C7B2B9423FF4D6
:100B0000F5AE1520002102F0B1FA2D4AD07A002866
:100B10002AD072B6D17AC8070B4609D5DFF8B4E0FF
:100B2000D368DEF800001840D0610B46CEF8000014
:100B3000880706D5234913690868034013620B60D0
:100B4000D37A590706D52049536908680340536290
:100B50000B60D37A1B0705D51C49936908680340CD
:100B600093620B6062B6D07A1368D968B1F1384FDE
:100B70000DD0DFF864E0C3F800E04FF0384EC3F862
:100B80000CE013494FF0784EC3F810E019604FF0B5
:100B90000041D9625F63D96A0029FCDA4FF0004155
:100BA000D3F838E0D9625F63D96A0029FCDA7DE6C0
:100BB000581BFF1F5F700942A80AFF1F9C1BFF1FE5
:100BC000D00DFF1F84E100E088E100E08CE100E04F
:100BD00000003F8080E100E001403F005A68D86A91
:100BE000197A875C894C8F4280F05E82C91B20781D
:100BF000CFB2B8423FF47AAE1520002102F036FAA7
:100C0000834AD07A00282AD072B6D17AC8070B4618
:100C100009D5DFF818E2D368DEF800001840D0618B
:100C20000B46CEF80000880706D57A491369086894
:100C3000034013620B60D37A590706D5764953698E
:100C40000868034053620B60D37A1B0705D57349CC
:100C500093690868034093620B6062B6D07A1368A8
:100C6000D968B1F1384F0DD0DFF8C4E1C3F800E026
:100C70004FF0384EC3F80CE069494FF0784EC3F896
:100C800010E019604FF00041D9625F63D96A002912
:100C9000FCDA4FF00041D3F838E0D9625F63D96ADB
:100CA0000029FCDA02E69A6A584C07EE902AFCEE1C
:100CB000E77A2278CDED017A9DF80470BA423FF4CC
:100CC00014AE1520002102F0D1F9514AD07A002843
:100CD0002AD072B6D37AD807194609D5DFF84CE185
:100CE000D168DEF800000840D0611946CEF8000057
:100CF0009B0706D5474913690868034013620B60D8
:100D0000D17A480706D544495369086803405362BD
:100D10000B60D17A0B0705D54049936908680340F9
:100D200093620B6062B6D07A1368D968B1F1384F1C
:100D30000DD0DFF8FCE0C3F800E04FF0384EC3F808
:100D40000CE037494FF0784EC3F810E019604FF0CF
:100D50000041D9625F63D96A0029FCDA4FF0004193
:100D6000D3F838E0D9625F63D96A0029FCDA9DE5DF
:100D7000D3F80E20596802EB8102D2ED007AF5EE2D
:100D8000C07AF1EE10FA3FF6F9AC0FE55A8A5868CE
:100D9000D3F80E10121A01EB820252ED017AF5EE31
:100DA000C07AF1EE10FA3FF6E9ACFFE40139D3F86E
:100DB0003A20C3F836103260AFE55A69002A3FF492
:100DC000F5AC9047B5EEC00AF1EE10FA7FF6EDAC47
:100DD000DFED147AB4EEE70AF1EE10FA3FF7E5AC76
:100DE0009FED117AFEEE007AE0EE077AFCEEE77AEC
:100DF00017EE902A232A7FF6D8ACD2E4013AD3F832
:100E00004210C3F83E20316087E500BF9C1BFF1FE6
:100E1000D00DFF1F84E100E088E100E08CE100E0FC
:100E200000003F808988884C0000704280E100E02B
:100E300001403F005F70094207EE900A1FED037A00
:100E40008D4CF8EE677A04F1200767EE877AA146A9
:100E5000FCEEE77ACDED037A59F8040F0021C0B219
:100E600002F004F94F45F7D10121042002F0FEF809
:100E70000021042002F0FAF8DFF8FC919DF90FB090
:100E80004FF0000A012303FA0AF159F8040F0BEAA4
:100E900001019A44C9B2C0B202F0E8F8BAF1080FF1
:100EA000F0D10121042002F0E1F80021042002F039
:100EB000DDF8DFF8C4919DF90EB04FF0000A012370
:100EC00003FA0AF159F8040F0BEA01019A44C9B276
:100ED000C0B202F0CBF8BAF1080FF0D10121042022
:100EE00002F0C4F80021042002F0C0F8DFF8889175
:100EF0009DF90DB04FF0000A012303FA0AF159F8E9
:100F0000040F0BEA01019A44C9B2C0B202F0AEF874
:100F1000BAF1080FF0D10121042002F0A7F8002156
:100F2000042002F0A3F8DFF850919DF90CB04FF0C7
:100F3000000A012303FA0AF159F8040F0BEA010130
:100F40009A44C9B2C0B202F091F8BAF1080FF0D1D8
:100F50000121042002F08AF80021042002F086F822
:100F60000121052002F082F80021052002F07EF820
:100F700054F8040F0021C0B202F078F8A742F7D16C
:100F8000019A3368C2F8008023E4217800293FF4F5
:100F9000ADAC1520002102F069F8384AD07A00285B
:100FA00027D072B6D17ACF070B4606D5344FD36817
:100FB00038681840D0610B463860880706D531493B
:100FC00013690868034013620B60D37A590706D58A
:100FD0002D4953690868034053620B60D37A1B079D
:100FE00005D52A4993690868034093620B6062B68D
:100FF000D07A1368D968B1F1384F09D0244F1F60F7
:101000004FF03847DF6023494FF078471F61196080
:101010004FF000470021DF625963D96A0029FCDAEA
:101020004FF000470021D3F838E0DF625963D96AF6
:101030000029FCDA9B6BB0B1C70703D5164BD16909
:101040001960D07A810703D5144B116A1960D07AE0
:10105000430703D5124B516A1960D07A070702D5AE
:10106000104B926A1A600121152001F0FFFF002247
:10107000336822705A6839E4A80AFF1FD00DFF1F99
:1010800080E100E084E100E088E100E08CE100E044
:1010900001403F0000003F8000E100E004E100E08B
:1010A00008E100E00CE100E0217800293FF41EACEB
:1010B0001520002101F0DAFF284AD07A002827D035
:1010C00072B6D17ACF070B4606D5254FD36838685C
:1010D0001840D0610B463860880706D5214913694E
:1010E0000868034013620B60D37A590706D51E497E
:1010F00053690868034053620B60D37A1F0705D514
:101100001A4993690868034093620B6062B6D07A0B
:101110001368D968B1F1384F09D0154F1F604FF0EF
:101120003847DF6013494FF078471F6119604FF06F
:1011300000470021DF625963D96A0029FCDA4FF0C9
:1011400000470021D3F838E0DF625963D96A0029EB
:10115000FCDA6FE733685A68FFF7C8BBD00DFF1F92
:1011600080E100E084E100E088E100E08CE100E063
:1011700001403F0000003F802DE9F047354D364CDF
:10118000DFF8F490DFF8F4A0344E4FF0350828462D
:101190004246002106F06AFD0FCCC5F80300C5F8F1
:1011A000071020682179C5F80B200B27C5F813001C
:1011B000C5F80F30E975424600214846A5F8008081
:1011C000AF7006F053FD264B264C03CB4A466425F0
:1011D00022F8038B1B78C9F8030013725160504644
:1011E0002A46002106F042FD2A4620460021AAF8A0
:1011F00000508AF8027006F039FD2A463046002178
:101200002580A77006F032FD0C24B77035804FF4AE
:101210005E720021144806F029FD013CF7D1134B02
:101220001349144A1962022706260725162017219A
:10123000DF601E600D270B265D600C25986019612C
:101240005F6121469E61DD6114601846BDE8F0478C
:1012500001F0D0BA601BFF1FA4800000F41AFF1F2A
:10126000BC8000004817FF1FD41BFF1FC020FF1FBA
:1012700000093D005C1BFF1FBC1AFF1F1020FF1F51
:1012800008B5034801F03CFB0028FAD008BD00BFB8
:10129000C020FF1F2DE9F04701210746042001F07F
:1012A000F9FE0021042001F0E1FE0121052001F0FA
:1012B000F1FE0021052001F0D9FE0121182001F0E6
:1012C000E9FE002118209D4E01F0D0FE06F1200419
:1012D000354655F8040F0121C0B201F0DBFEA542EE
:1012E000F7D1964D55F8040F0021C0B201F0BEFEB3
:1012F000A542F7D10021042001F0B8FE002105200D
:1013000001F0B4FE0121182001F0B0FE00211820E8
:1013100001F0ACFE894D55F8040F0021C0B201F078
:10132000A5FEA542F7D10121152001F0B3FE012150
:10133000152001F09BFE3846FFF71EFF804F814BC2
:1013400081483522002101F0DDFC804B7E483522AA
:10135000642101F0D7FC3B78012B6FD000211520D0
:1013600001F084FE7A49C87A002827D072B6CA7A7A
:10137000D507134606D5774DCB6828681840C86155
:1013800013462860900706D5734A0B69106803401E
:101390000B621360CB7A5A0706D5704A4B69106806
:1013A00003404B621360CB7A1B0705D56C4A8B69EF
:1013B000106803408B62136062B6C87A0B68DA6803
:1013C000B2F1384F09D0674D1D604FF03845DD60F0
:1013D000654A4FF078451D611A604FF000450122C3
:1013E000DD625A63DA6A002AFCDA4FF00045012216
:1013F000D3F838E0DD625A63DA6A002AFCDA9B6BC4
:10140000B0B1C50703D5594BCA691A60C87A8207BB
:1014100003D5574B0A6A1A60C87A430703D5554B60
:101420004A6A1A60C87A050702D5534B8A6A1A605D
:101430000121152001F01AFE01233B70DFF83C81E9
:10144000D8F80030012B70D03C4D55F8040F002126
:10145000C0B201F00BFEA542F7D10121042001F03A
:1014600005FE0021042001F001FE344D55F8040F63
:101470000021C0B201F0FAFDA542F7D101210420FC
:1014800001F0F4FD0021042001F0F0FD2B4D55F892
:10149000040F0021C0B201F0E9FDA542F7D10121FE
:1014A000042001F0E3FD0021042001F0DFFD234DC5
:1014B00055F8040F0021C0B201F0D8FDA542F7D1C4
:1014C0000121042001F0D2FD0021042001F0CEFD15
:1014D000DFF8689000254FF0010A59F8040F0AFA66
:1014E00005F1C0B201F02201013501F0BFFD082D68
:1014F000F3D10121042001F0B9FD0021042001F005
:10150000B5FD0121052001F0B1FD0021052001F00C
:10151000ADFD0A4D55F8040F0021C0B201F0A6FD43
:10152000A542F7D10123C8F800303B78002B40F0EA
:101530009180D8F800301BBBBDE8F087A80AFF1FD8
:101540009C1BFF1F601BFF1FC020FF1FBC1AFF1F3B
:10155000D00DFF1F80E100E084E100E088E100E0C1
:101560008CE100E001403F0000003F8000E100E02E
:1015700004E100E008E100E00CE100E0581BFF1F7F
:101580006D4D55F8040F0021C0B201F06FFDA5426A
:10159000F7D10121042001F069FD0021042001F0B0
:1015A00065FD654D55F8040F0021C0B201F05EFDE8
:1015B000A542F7D10121042001F058FD00210420AB
:1015C00001F054FD5C4D55F8040F0021C0B201F04C
:1015D0004DFDA542F7D10121042001F047FD002176
:1015E000042001F043FD544D55F8040F0021C0B212
:1015F00001F03CFDA542F7D10121042001F036FDA8
:101600000021042001F032FD4B4D55F8040F00215C
:10161000C0B201F02BFDA542F7D10121042001F059
:1016200025FD0021042001F021FD0121052001F00C
:101630001DFD0021052001F019FD56F8040F0021C1
:10164000C0B201F013FDA642F7D10023C8F8003064
:10165000BDE8F0870021152001F008FD3749C87A60
:10166000002840D10B68DA68B2F1384F09D0344D08
:101670001D604FF03845DD60324A4FF078451D61FE
:101680001A604FF000450022DD625A63DA6A002AD0
:10169000FCDA4FF000450022D3F838E0DD625A63EF
:1016A000DA6A002AFCDA9B6BB0B1C30703D5264B7C
:1016B000CA691A60C87A850703D5244B0A6A1A607A
:1016C000C87A420703D5224B4A6A1A60C87A0307D0
:1016D00002D5204B8A6A1A600121152001F0C6FC50
:1016E00000233B7025E772B6CB7AD8071A4606D599
:1016F000194DCA6828681040C8611A4628609D07BD
:1017000006D5164A0B69106803400B621360CA7A4B
:10171000500706D5124A4B69106803404B621360AC
:10172000CA7A120705D50F4A8B69106803408B628D
:10173000136062B6C87A95E7A80AFF1FD00DFF1F95
:1017400001403F0000003F8000E100E004E100E0D4
:1017500008E100E00CE100E080E100E084E100E06D
:1017600088E100E08CE100E010B5074B1B7813B175
:10177000064802F047FF064B06486422C821BDE830
:10178000104001F0D1BA00BF4017FF1FB41AFF1F6D
:101790001020FF1FC020FF1F70B50A4C0B784A2293
:1017A00002FB034406460D462046002106F05EFA81
:1017B00033680BB1C3F8464034602B7801332B708B
:1017C00070BD00BFD41BFF1F2DE9F04FB14C8BB093
:1017D000E27800238DF823300993EAB9AE4B1B78E9
:1017E000032B10D00BB0BDE8F08F099B5BB1AB4A67
:1017F000AB491160002283F8462083F8472083F824
:10180000482083F8492040F25722A649A64802F012
:10181000AFFE0BB0BDE8F08FA348A44EA44F02F07A
:10182000F1FEA378A17922793170092B3A702ED973
:101830000A2BA56A2CD0DFF87C82236BDFF8A492F8
:10184000626BC8F80030A36BC9F80020B4F826B06A
:10185000DFF894A297499848CAF800304FEA8B0203
:1018600001F07CFA954AE36AA2F800B0DFF824B2EE
:10187000002B74D18DB33B780D2B2ED8DFE803F00D
:10188000142D141414CBCBCBCB141414141465895D
:10189000DFF82082DFF84C92E389A289C8F80020A3
:1018A000C9F80030238AD1E70DF1230109A8FFF719
:1018B00073FFD8ED007A099B8148C3F80A00F8EE5F
:1018C000677A012117EE902AC3F8192000221970B7
:1018D000597219765A709A70DA7094F808B0BBF1A0
:1018E000010F56D0BBF1020F1CD10DF1230109A845
:1018F000FFF752FF099B3178724A73481972C3F897
:101900000E204921002283F809B083F827B0D8625D
:101910001970997483F830105A709A70DA70DA740A
:1019200083F8312094F805B0BBF1010F00F09680E8
:1019300025B33B78A26DE16D0D2B00F23684DFE814
:1019400013F0FF013404D501890134044600460038
:10195000460046003701E3033502EE0249010DF16E
:10196000230109A8FFF718FF099BDBF82C10574A41
:10197000196001215972C3F80A207BE7637A013BA1
:10198000032B3FF632AFDFE813F00501FB00EC005C
:10199000B1000DF1230109A8FFF7FEFE099B327883
:1019A0004B491A72C3F80E104A4ADA6268210022C3
:1019B0001970997483F8301002215A709A70DA7095
:1019C000DA7483F83120597283F82710AAE70DF1F1
:1019D000230809AF41463846FFF7DEFE3E49099A23
:1019E0003E484FF47A7303FB05F3A1FB03133C4914
:1019F000C2F80A005B0913600123537204231376B3
:101A0000C2F82310637A013B032B00F29280DFE8D7
:101A100003F0C4BAAB700DF1230109A8FFF7BCFEB7
:101A2000DDF824B0264BCBF80A30012200238BF8D6
:101A300000208BF809208BF818208BF801308BF8E8
:101A400002308BF80330FEF71DFE07EE900AF8EE29
:101A5000677A17EE900ACBF819003EE70DF12301E3
:101A600009A8FFF799FE099B154883F800B0317863
:101A700083F809B007EE901AF8EE677A002217EEA5
:101A8000901A83F827B0C3F80A0099625A709A70C6
:101A9000DA704DE71020FF1F4017FF1F5C1BFF1F70
:101AA000D41BFF1F35070000B41AFF1FCC0AFF1F0D
:101AB000B217FF1FA01BFF1FAC1BFF1FB017FF1F9C
:101AC000000020418809FF1FD408FF1F00007A444E
:101AD0003407FF1F2009FF1F1F85EB510000C8427C
:101AE00085060000A41BFF1FA81BFF1F0DF1230884
:101AF00009AF41463846FFF74FFE994A099B1278D5
:101B00009848994C1A7249210022C3F80E0003200C
:101B1000DC621970997483F830105A709A70DA7018
:101B2000DA7483F83120587283F82700002D3FF4CF
:101B30005DAE41463846FFF72FFE099B8B4CC3F83C
:101B40000A40002200211046C3F8192001229862A1
:101B50001A705A721A7683F8272059709970D970C2
:101B600045E60DF1230809AF41463846FFF714FE5C
:101B70007B4A099B12787E487E4C1A726821C3E723
:101B80000DF1230809AF41463846FFF705FE099BD2
:101B90003278B5E70DF1230809AF41463846FFF723
:101BA000FBFD099B32787248724C1A726821ABE7D0
:101BB0000DF1230809AF41463846FFF7EDFD6E49A8
:101BC000099A6E484FF47A7303FB05F3A1FB0313E4
:101BD0006B490DE794ED187A9FED6A6A6A49DFED6B
:101BE0006B7ADFF8BCC1DFF8BCE1F8EE476AF7EECC
:101BF000005A85EEA67ABF230022F6EE006A27EE91
:101C0000267AF2EE045A27EE066AC5EE866A581E58
:101C1000B1EC017A77EE877AF4EEE76AF1EE10FA2A
:101C20000BD826EE277A0CEB820787ED007ADFEDE2
:101C3000577A0EF80230571CFAB2C3B2FF2BE6D126
:101C4000F5EE407AF1EE10FA40F0C2820DF1230871
:101C500009AFD7E699ED007AD8ED007A464AB8EE9A
:101C6000477AF8EE677A4FF47A73C7EE276A03FB78
:101C700005F3A2FB03394FEA59190DF1230809AF07
:101C800016EE900A05F05CF941EC100B03F09CFA9B
:101C900007EE909AF8EEE77A8DED000B17EE900ABA
:101CA00005F04EF99DED000B02460B4651EC100B72
:101CB00005F0C4FA41EC100B03F002FA51EC100BE2
:101CC00005F08AFC324B414618603846FFF764FD48
:101CD000099B2A482F4AC3F8009001215972042118
:101CE000C3F80A001976C3F823208BE6D9ED007AF1
:101CF000D8F800202049DFF8B0E04FF47A7303FBF6
:101D000005F3A1FB0339B8EE677A07EE902A4FEA94
:101D10005919F8EE677A06EE909A77EE677AF8EE40
:101D2000E66A0DF1230887EEA67A09AF38464146E8
:101D30008EED007AFFF730FD099B1048164ACAE77E
:101D40000DF1230809AF41463846FFF725FD099BF1
:101D5000124A1D6001215972C3F80A2052E600BFE1
:101D60009C1BFF1F8809FF1FD408FF1F0000204194
:101D70003407FF1F2009FF1F1F85EB510000C842D9
:101D8000FD05000000247449D00AFF1F0000000078
:101D9000981BFF1F250600008D05000000007A44F7
:101DA000B417FF1F501FFF1F4C1FFF1F914238BF6A
:101DB0001146B5FBF1FA01FB1A539A42A1EB02015D
:101DC0000DF1230809AF34BF9B1A00230391384655
:101DD00041460293FFF7E0FCDDF82490A36DC9F8BB
:101DE00000303378C249C9F836A007EE903AF8EED1
:101DF000677A012217EE903AC9F82830039BC9F898
:101E00000A1089F8092089F82720002B00F0F681B4
:101E1000B84B9DF8232000934A2101FB0231002397
:101E200089F83F3089F8403089F84130029BC9F881
:101E30003A10012189F83E10002B00F0D581931C47
:101E40009E4607930098009B02EB010A4A2101FB82
:101E50000A0001FB0E314A2303FB02F20492009AAE
:101E6000C9F842009646049AC9F846100EEB020BD8
:101E700058461A460021059305F0F8FEDFED9E7ADC
:101E8000059B0098CBF8469017EE90CADFED9B7A41
:101E9000CBF828C05FFA8AFA03FB0AF1CDED057A88
:101EA00000EB010A864606911A460499059B0398A1
:101EB000CBF80A304FF001034EF801008BF80930DF
:101EC0008BF8273061465046CDF80CC005F0CEFEA9
:101ED0000099CAF83A908E460699CAF846904FF093
:101EE000010389468AF8093002998AF827304FF0B1
:101EF00001034EF809107E489DF81C10AAF83630F0
:101F00004FF0000BBDF80C30CDF824A08DF8231055
:101F1000CAF80A00CAF828B0AAF8383072E50432C4
:101F2000914238BF1146B5FBF1F3009301FB135307
:101F30009A42A1EB02010DF1230809AF34BF9B1AAD
:101F400000230391384641460293FFF725FCDDF854
:101F5000249033786A4A89F808304FF0000A4FF02D
:101F6000490B0223C9F80E200492664AC9F82C20B6
:101F70004146384689F801A089F802A089F803A0F3
:101F800089F813A089F831A089F8093089F8273039
:101F900089F800B089F812B089F830B0FFF7FCFB7F
:101FA000099BA16DDFF848E119604FF0010C414633
:101FB000384683F809C0C3F80AE0FFF7EDFB09993A
:101FC000049AC1F80E2003234E4A4B7281F8273041
:101FD000039B3078CA6281F800B0009A81F801A0B2
:101FE00081F802A081F803A081F813A081F831A044
:101FF00081F812B081F830B0C1F8362008729DF82F
:1020000023A0002B40F00C813A4B00934A2000FBA8
:102010000A3C4A46002381F83F3081F8403081F87D
:102020004130029BC1F83A20012281F83E20002B6A
:1020300000F0EA8000980AEB02034FF04A0B0AF125
:10204000020205920BFB030E0BFB02024FF04A0B40
:10205000C1F842E0C1F8462060465A460021049388
:1020600005F004FE049B0098039A2149DBB20BFBA8
:102070000AFE0BFB03F30493844640F80E208644CB
:102080000498CEF80A100CEB000A00235A464FF0D1
:10209000010B1946CEF82830CEF846908EF809B0DC
:1020A0008EF827B05046039305F0E0FD009B1048E2
:1020B000CDF824A09E46049B8AF809B09C46029B5A
:1020C0004EF80C309DF814308DF823300021039B1E
:1020D0008AF827B0CAF83A90CAF84690CAF80A00B7
:1020E000CAF82810AAF836B0AAF838308AE400BF37
:1020F00000007A44D41BFF1F0000000000007A4457
:102100008809FF1FD408FF1F4948D9ED006A98EDE0
:10211000007ADAED007A474A474B4FF47A7101FBB7
:1021200005F1A0FB01194FEA9919F8EE666AB8EEBD
:10213000477AF8EE677A06EE109A77EEE67AB8EE0E
:10214000C66A36EEC77A0DF12308C7EE066A09AFF4
:10215000414638464FF0010A4FF0040B87EE867A6D
:10216000C2ED006A83ED007AFFF716FB099B334A44
:102170003349C3F80A10C3F82320C3F8009083F84A
:1021800009A083F818B041463846FFF705FB099BC4
:102190002B492C4AC3F8009083F809A083F818B0A3
:1021A000C3F80A10C3F823202CE4637A013B0DF135
:1021B000230809AF032B3FF6BCAC01A252F823F071
:1021C0009B1B0000871B0000691B0000F31A000026
:1021D0001D4B1E491E4F03EB820300201F600DF1B3
:1021E0002308885409AF0DE40099931C4A2000FB92
:1021F00003100793014602F1010A2CE6154B0093E8
:102200009DF8232049460AE6009A0AF102034FF09E
:102210004A0E0EFB032E059372460AF1010315E7E1
:102220000C4B00934A2202FB0A329446F2E600BFAE
:102230001F85EB514C1FFF1FAC17FF1F8D050000C2
:102240000000C842C5050000B417FF1F501FFF1F44
:1022500000002041D41BFF1F30B4054B054A06493E
:10226000802400251C711D60184630BC05F004BA9E
:10227000B41AFF1F3007FF1F7906000010B4047F57
:102280004160022CC26003D05DF8044B02F082B8BA
:1022900083685DF8044B1847F0B4464B464A986B88
:1022A0005C6B01791170454922790A701A6B0079CB
:1022B0000870002A46D05968C9688A423ED8216809
:1022C000CC8B240402F1FF3065D4C0F30E00C88328
:1022D000C88B80B2C882996B0968C88B000452D43D
:1022E000C2F30E00C883C88B002480B212F1FF3203
:1022F000C88218BF01221C63596B2E4809680D68FB
:1023000000F12C04A54236D00068C46814F0804F58
:102310000C680D6815BF248824780235013544F017
:1023200000440D604463996B254B0979197021496C
:1023300012B14A6B12791A70F0BC7047521A1A63C4
:102340000122D9E7D86B196805681E4C0A63CC6274
:10235000CC682D681C4E24F080440327B542CC6025
:1023600083F82D701FD1037F4260022BC2601ED004
:10237000F0BC02F00FB8016890F82C00CC6840F077
:1023800000404863CFE7CC8BC2F3080004F47E44DE
:102390002043C883A7E7CC8BC0F3080004F47E4435
:1023A0002043C88394E72B461146F0BC1847836846
:1023B000F0BC1847D00DFF1F1F8000401C8000405C
:1023C0001B80004000000FFF7D22000090E80C0001
:1023D000F0B41C6859682568164F174E29432160D0
:1023E000164D17491760D66015611160417A154A7C
:1023F0005C180C3194F82C4053F8215002EBC401C6
:1024000049680D60017A5C1803EB8101247ECD6977
:1024100002EBC40149680D60817A581803EB81030F
:1024200090F84000596C02EBC002F0BC5368196090
:10243000704700BF01401F000110003801100078F4
:1024400000001F805C82000001F03ABE01F05CBE1B
:1024500001F072BE074882B003680193019A1144EB
:1024600001E0994204D303680093009B9A42F8D993
:1024700002B07047E420FF1F034B82B01B6801933A
:10248000019802B0704700BFE420FF1F10B4074B53
:1024900082681B68016183B000240193019B446141
:1024A000C260836003B05DF8044B7047E420FF1FF7
:1024B000F0B51E4B1E4D1A680446406C83B003688D
:1024C00001920F465B681B49019E062298473946D8
:1024D000606C00230A2202F0F7F8606C164903686A
:1024E00003225B6898473146606C00230A2202F0A1
:1024F000EBF8606C036829465B6801229847A16885
:10250000606C711A00230A2202F0DEF8606C036826
:1025100029465B6801229847E368A168606CC91A84
:102520000A22002302F0D0F803B0F0BDE420FF1F20
:10253000F4810000E8810000F081000010B5446CD7
:102540000549236820465B68062298472046BDE877
:10255000104002F0A9B800BFF8810000034B82B020
:102560001B680193019B836002B07047E420FF1F4A
:1025700010B4104A85B0A1B9136800934168009B5C
:10258000591A31290DD813680293029C04F13203C1
:10259000591A01E0994204D313680193019B9C42AC
:1025A000F8D913680393039B4360012005B05DF8DD
:1025B000044B7047E420FF1F704700BF2DE9F04136
:1025C0000D4D0E4EDFF83C800D4F41641B2401E0A1
:1025D00000F066FD2B78C82043B13378DB0705D5C2
:1025E000D8F800303A689B1A0E2B03D8013CEFD183
:1025F000BDE8F081BDE8F081C821FF1FE021FF1F89
:102600004C25FF1FE420FF1F00238364436071B14A
:10261000074882B003680193019A114401E099428E
:1026200004D303680093009B9A42F8D902B0704724
:10263000E420FF1F70B5144C84B00546406C23683D
:1026400003930368039A6A600E465B680F4906228B
:102650009847314600230A22686C02F035F8686C0E
:102660000B49036808225B68984723680293029A23
:1026700002F1320101E0994204D323680193019BE6
:102680009A42F8D904B070BDE420FF1F0082000018
:1026900008820000F8B5037E0BB96320F8BD04463C
:1026A000406C3B4E03681B69B3420D466AD101F092
:1026B00043FD10F0FF0F01D16520F8BD354F606C70
:1026C00003681B69B3425FD101F036FD10F0FF0FC4
:1026D000F2D0606C03685B69BB4257D101F0F0FC3B
:1026E000C3B2A3F158021E2AE9D801A151F822F081
:1026F0007D270000BF260000BF260000BF26000087
:10270000BF260000BF260000BF260000BF26000035
:10271000BF260000BF260000BF2600007127000072
:10272000BF260000BF260000BF260000BF26000015
:102730009B260000BF260000BF260000BF26000029
:10274000BF260000BF260000BF260000BF260000F5
:10275000BF2600009B260000BF260000BF26000009
:10276000BF260000BF2600006D2700001846F8BDF8
:1027700020462946FFF75EFF6320F8BD002323763D
:102780006320F8BD984794E798479FE79847A7E7E5
:10279000512400004924000070B5054682B0164659
:1027A000C9B101230D4C037600212846FFF772FFC3
:1027B000632810D023680193019A511C2368009369
:1027C000009B9A42F0D89942F8D200212846FFF7A0
:1027D00061FF6328EED12E7602B070BDE420FF1FAA
:1027E000034B00229A60DA601A615A61704700BF99
:1027F0007420FF1F012910B5044676D0022907D1A5
:102800000A200D210B220C2320616161A261E3618A
:102810002078002100F03EFC2078002100F026FC0A
:102820002079002100F036FC2079002100F01EFC08
:10283000207A002100F02EFC207A002100F016FC06
:10284000207B002100F026FC207B002100F00EFC04
:10285000207C002100F01EFC207C002100F006FC02
:10286000207D002100F016FC207D002100F0FEFB01
:10287000207E002100F00EFC207E002100F0F6FBFF
:10288000207F002100F006FC207F002100F0EEFBFD
:102890002078012100F0FEFB2078002100F0E6FB0B
:1028A0002079012100F0F6FB2079002100F0DEFB09
:1028B000207C012100F0EEFB207C012100F0D6FB02
:1028C000207D012100F0E6FB207D002100F0CEFB01
:1028D000207E012100F0DEFB207E002100F0C6FBFF
:1028E0000648BDE81040FFF771BD35203421332282
:1028F000322320616161A261E36189E7D00DFF1F8E
:1029000008B5007B00F0B8FB08BD00BF10B5012181
:102910000446007800F0AAFB207A00F0ADFB002806
:10292000FAD010BD10B504460021007800F09EFBDF
:1029300020790021BDE8104000F098BB2DE9F0415E
:1029400005460F46007C002116461C4600F08EFB13
:102950002879012100F08AFBD5F820C06648DFF80D
:10296000B4E1002202E0172908D00A4630F8023FFD
:102970009EFBF3F39C4502F10101F4D35F4B6048E9
:1029800053F8228090F80BE048F06052BEF1000F3F
:1029900032D072B690F80BC01CF0010FE64609D099
:1029A000DFF874E1C368DEF800101940C161CEF8A9
:1029B0000010E6461CF0020F0AD0DFF860C1036980
:1029C000DCF8001090F80BE019400162CCF8001020
:1029D0001EF0040F0AD0DFF848C14369DCF800108C
:1029E00090F80BE019404162CCF800101EF0080F7F
:1029F00077D162B690F80BE00168D1F80CC094452D
:102A00000BD048F0F043DFF81CC1DFF81C81C1F89F
:102A10000080CA600B61C1F800C04FF00042022381
:102A2000CA624B63CB6A002BFCDA4FF00042C7F35B
:102A30000743D1F838C0CA624B63CB6A002BFCDA7B
:102A40004FF00042C7F30723D1F838C0CA624B6386
:102A5000CB6A002BFCDAFFB24FF000438A6BCB62EB
:102A60004F63CB6A002BFCDA8B6B7EB1013E14FA0C
:102A700086F6621E4FF0004412F8013FCC624B63B1
:102A8000CB6A002BFCDA96428B6BF5D1BEF1000FBE
:102A90001DD01EF0010F04D01A4BC26990F80BE054
:102AA0001A601EF0020F04D0174B026A90F80BE078
:102AB0001A601EF0040F04D0144B426A90F80BE029
:102AC0001A601EF0080F02D0114B826A1A60287C2F
:102AD000012100F0CBFA28790021BDE8F04100F097
:102AE000C5BADFF848E08369DEF80010194081625A
:102AF000CEF800107DE700BFC68000008C8100008A
:102B0000D00DFF1F00E100E004E100E008E100E07B
:102B10000CE100E00087930380E100E084E100E045
:102B200088E100E000003F8001403F008CE100E0D0
:102B30002DE9F04105460F46007C002116461C4653
:102B400000F094FAD5F820C06048DFF89CE100223C
:102B500002E0172908D00A4630F8023F9EFBF3F343
:102B60009C4502F10101F4D3594B5A4853F8228095
:102B7000C17A48F0605281B372B690F80BC01CF075
:102B8000010FE64609D0DFF864E1C368DEF8001003
:102B90001940C161CEF80010E6461CF0020F0AD0C1
:102BA000DFF84CC10369DCF8001090F80BE0194025
:102BB0000162CCF800101EF0040F0AD0DFF834C117
:102BC0004369DCF8001090F80BE019404162CCF842
:102BD00000101EF0080F6ED162B60168D1F80CE04B
:102BE00096450BD048F0F043DFF80CC1DFF80CE15C
:102BF000C1F800C0CA600B61C1F800E04FF00042AC
:102C00000323CA624B63CB6A002BFCDA4FF000420D
:102C1000C7F30743D1F838E0CA624B63CB6A002B95
:102C2000FCDA4FF00042C7F30723D1F838E0CA625C
:102C30004B63CB6A002BFCDAFFB24FF000438A6B88
:102C4000CB624F63CB6A002BFCDA8B6B96B1013EF3
:102C500014FA86F6621E4FF000470024CF624C63E0
:102C6000CB6A002BFCDA8B6B02F8013F964201D055
:102C70000168F3E7C37A17491A46B3B1DE0703D5F3
:102C8000154AC96911601A469C0703D5134B016A9E
:102C9000C27A1960510703D5114B416AC27A196093
:102CA000130702D50F4B826A1A60287C0121BDE808
:102CB000F04100F0DBB9DFF848E08369DEF800108E
:102CC00019408162CEF8001086E700BFC680000080
:102CD0008C810000D00DFF1F00E100E004E100E066
:102CE00008E100E00CE100E00087930380E100E0F0
:102CF00084E100E088E100E001403F0000003F8007
:102D00008CE100E0F8B504460D4616461F46FFF775
:102D1000FDFD20463B4632462946FFF70FFE204682
:102D2000BDE8F840FFF7FEBDF8B504460D4616466F
:102D30001F46FFF7EBFD20463B4632462946FFF78C
:102D4000F7FE2046BDE8F840FFF7ECBD014B024A14
:102D50001A627047C020FF1F00093D00844641EA07
:102D6000000313F003036DD1403A41D351F8043B03
:102D700040F8043B51F8043B40F8043B51F8043B55
:102D800040F8043B51F8043B40F8043B51F8043B45
:102D900040F8043B51F8043B40F8043B51F8043B35
:102DA00040F8043B51F8043B40F8043B51F8043B25
:102DB00040F8043B51F8043B40F8043B51F8043B15
:102DC00040F8043B51F8043B40F8043B51F8043B05
:102DD00040F8043B51F8043B40F8043B51F8043BF5
:102DE00040F8043B51F8043B40F8043B403ABDD264
:102DF000303211D351F8043B40F8043B51F8043B06
:102E000040F8043B51F8043B40F8043B51F8043BC4
:102E100040F8043B103AEDD20C3205D351F8043B94
:102E200040F8043B043AF9D2043208D0D2071CBF60
:102E300011F8013B00F8013B01D30B880380604689
:102E4000704700BF082A13D38B078DD010F00303FF
:102E50008AD0C3F10403D21ADB071CBF11F8013B6F
:102E600000F8013B80D331F8023B20F8023B7BE7BE
:102E7000043AD9D3013A11F8013B00F8013BF9D2E9
:102E80000B7803704B7843708B7883706046704783
:102E900008B5104C08E0236859050DD423681A05BD
:102EA0000FD42368DB0411D423685803F3D500F052
:102EB000D9FA23685905F1D501F0A0FD23681A0558
:102EC000EFD501F031FE2368DB04EDD501F0C2FE41
:102ED000EAE700BF3480044008B5FFF7D9FF00BF20
:102EE000014B10221A80704700200540704700BF38
:102EF000094908B50B6830B16A461844A2F500527A
:102F0000904202D20860184608BD04F0C1FB0C23B1
:102F100003604FF0FF3008BD100EFF1F084A137802
:102F2000802B01D0002070470649074B07480860F6
:102F3000002119701378802BFCD00120704700BF4E
:102F400003E007404480044001E0074000002822DD
:102F5000094A1378012B01D00020704703F1804308
:102F600003F5FC23602119701378802BFCD1034BEF
:102F7000034A1A600120704703E007404480044080
:102F80000000060210B4114B53F8302092F8804232
:102F900034B1012379B182F880305DF8044B704779
:102FA00003EBC0035B681A6851B922F002021A6091
:102FB0005DF8044B704782F800315DF8044B7047B0
:102FC00042F003021A605DF8044B70475C82000017
:102FD0001C4A02EBC00301295B6811D004291BD0F5
:102FE00052F83000002280F8802229B1022920D036
:102FF000032922D01A6070474FF480721A6070471C
:1030000052F830004FF4A27280F880121A601A68E9
:1030100022F020021A60704752F830104FF4A2726A
:10302000012081F880021A601A6842F020021A60BA
:10303000704740F203121A6070474FF481721A60B1
:10304000704700BF5C82000030B4054B054D064C54
:10305000002210211A602A602060196030BC70477D
:1030600014D0034004D0034000D003403F2801D8CF
:10307000FFF788BF704700BF3F2806D8044B53F8BE
:10308000303093F80002C0B270470020704700BF94
:103090005C8200003F2801D8FFF79ABF704700BF4D
:1030A0002DE9F843054672B6224F234B234A1B688D
:1030B0003C68126862B6520102D5322B88BF0134D7
:1030C000B5B3C3F52F3303F21F331D4EDFF86890FD
:1030D000DFF868809B084FF47A72A6FB031302FBAB
:1030E00004F404EB930472B6D9F800103A68D8F8E7
:1030F00000E062B6C1F52F3303F21F339B08A6FB35
:1031000003031EF0806FC4EB93034FF47A7002D078
:10311000322988BF013200FB0233B3F57A7F04D332
:10312000013D05D004F57A74DDE701F05FFBDAE7D5
:10313000BDE8F883E420FF1F18E000E004ED00E0A4
:10314000176CC116F8B54E4B4E48DFF85CC14E4CBB
:103150004E49DFF858E14E4E4E4D4F4F4FF0006252
:103160001A604FF080521A604FF000521A604FF010
:1031700080421A604FF000421A6000220260282349
:103180004EF6FF70CCF80000CEF8003023600EF54C
:10319000012E0B6033602B6006F500263B6005F5C1
:1031A0000025A36207F500278B6204F5012401F5D1
:1031B000012106F6E87605F6E87507F57F67103118
:1031C0000EF1100E203433602B60CEF800303B60DF
:1031D0000B602360314CBB618B6109212160A7F535
:1031E000002704F58054203F08343A602060BB601B
:1031F000E36047F8041C04F5FD2407F5FE270437B7
:1032000004F2FC7422603860A360FB6044F8041C84
:10321000083404F6FC74C7F8FC2F2060A4F5E12400
:10322000A4F2DC7433602B60C7F8F81F21681C48D7
:1032300041F40071216001681A4C0EF57F4E0EF1C9
:10324000E80E07F5883706F5803605F5803541F03C
:1032500000710160CEF8002047F6FF710822396046
:1032600033602B60226001F023FB1920FFF718FF69
:1032700000F060FE40F21310BDE8F840FFF710BF09
:1032800004E100E004800340148003401C800340FC
:10329000248003402C80034034800340008003409E
:1032A0000480044000900C40088003400C800340E0
:1032B000431E032B14D872B60A4951F8230068B193
:1032C00070B4094C058834F81320466841F823602F
:1032D000521B24F8132062B670BC704762B6704768
:1032E000002070474021FF1F3C25FF1F01380328A5
:1032F0000BD872B6074B53F8203043B100205B68FF
:103300000130002BFBD162B6704700207047184691
:10331000F9E700BF9421FF1F30B472B62B4A13782F
:103320001D0706D52A4B196A002936D0996A00294B
:1033300041D053781C0706D5254B196C00293ED087
:10334000996C002939D09378190705D5204B196E4F
:10335000002936D0996E89B1D3781B0707D51C4B4D
:10336000D3F880207AB3D3F8882011213AB162B61D
:10337000184B00221A7030BC00F07CBE0D21154C99
:10338000154D227843F8315003EBC1030830013A60
:103390005860227062B630BC704704220D4C0F4D4D
:1033A000217843F8325003EBC20308304A1E5860BC
:1033B000227062B6EFE70521E1E70921DFE7082285
:1033C000ECE70C22EAE71022E8E700BF888400005F
:1033D0000000FF1FBD21FF1FC80040008800400003
:1033E000431E032B1DD81B4A400140F0100030B48F
:1033F000104472B6184CE25C032A1BD8DFE802F0D6
:103400000212151703220D88E25410F0080F14BFA2
:10341000C823882343EA054308310360416062B64C
:1034200030BC704708300222EDE70522EBE7083098
:103430000422E8E7094A52F8230038B1084A52F852
:103440002300416042F8231062B6E9E742F82310F6
:10345000034AF7E70000FF1FCC21FF1F9421FF1F45
:10346000A421FF1F2DE9F04FDFF80CB3DFF80CA308
:1034700087B044E0AB4F4FEA930807EBC809013E21
:10348000D9F8042003F00803F6B2A2F1080003F013
:10349000FF04002B40F0028157F838301B0C99B222
:1034A00022F8081C002B00F0F0809F4B22F8064CFD
:1034B00042F8044C53F82620002A00F0C5829B4DA8
:1034C00055F8263058609A4C45F8260034F81630E6
:1034D000194424F8161000F0ADFD002800F0AD826C
:1034E000944A954B19F0080F00F1080018BF1346D5
:1034F000C9F8040047F8383008238BF800309BF8EF
:103500000040E4B261071AD58C4B1B78A3B18C49FB
:103510000A7802F0FF0322B1013BDBB20B7003B962
:1035200000BE88490A7802F0FF032AB1013BDBB2F2
:103530000B70002B00F0578204238BF8003004F04E
:10354000080303F0FF02002B00F0CC809AF8003053
:10355000DBB21E098ED19C08DFF8C89159F83420DF
:1035600009EBC401C2F38302013A49680C2A00F254
:103570008880DFE802F07C7C8686868686864786A1
:10358000868607000868704D4A68704F704E286044
:1035900081B240F28160674B6A604FF0010E0022F9
:1035A000814249F834303A60C9F81020C9F818202F
:1035B00086F800E05B4C00F2E380B1F5D06F80F05C
:1035C0004683B1F5817F00F0FC8200F28D82802974
:1035D00000F07783822940F0FA82A98801F07F0108
:1035E000042900F2F4825B485B4C89000844227095
:1035F00062700278930740F1588484F800E04FF03D
:10360000020E42E3514F3A6832B3544B504E544984
:10361000188834780D784028864645F0020828BF7F
:103620004FF0400E002C84F001043470CEEB00000B
:103630000CBF8824C82409EBC80680B285F00105B8
:1036400044EA0E447260188049F8384072440D70A4
:10365000002800F045813A603B4B1A88B2F5A06F14
:103660000FD100219A7859703E4B1A7009E0364A02
:10367000108842F22102904200F037812D4A49F829
:103680003420394A0123137036E72A4A2A4B19F0AD
:10369000080F18BF134647F838302DE700F0EAFC52
:1036A000324A334952F82630002B00F0D181586855
:1036B0008C5D42F8260003F10802C9F80420032CAF
:1036C00005D8DFE804F02C02292602228A551A8840
:1036D00019F0080F0CBF8823C82343EA024347F8B8
:1036E000383009E7E00700F18181210600F1F2811D
:1036F000A20706D51F4A204913780220DBB21370B7
:103700000870E30602D51C4B10221A7007B0BDE802
:10371000F08F04228A55DAE705228A55D7E703227B
:103720008A55D4E70000FF1F4021FF1FEC20FF1F38
:103730003C25FF1FC800400088004000C821FF1F33
:103740005121FF1FD021FF1FB421FF1FE820FF1FC1
:103750005021FF1FC0200740C021FF1FFC20FF1F7A
:10376000BC21FF1F98200740942007409421FF1F91
:10377000CC21FF1F88200740802007409020074071
:1037800042F22100814200F02A8100F2D880B1F596
:10379000086F00F07682B1F5106F40F01882226A4F
:1037A000B349A8780870120600F13A83D9F82820A6
:1037B000B049130600F10C83D9F83020AD49150645
:1037C00000F10183D9F83820AA49140600F1F682E5
:1037D000D9F84020A749100600F14A83D9F84820BB
:1037E000A449120600F13F83D9F85020A1491306DD
:1037F00000F13483D9F858209E49150600F1298339
:10380000D9F860209B49140600F11E83D9F868207E
:103810009849100600F11383D9F8702095491206D3
:1038200000F10883D9F878209249130600F1FD824F
:10383000D9F880208F49150600F13183D9F8882006
:103840008C49140600F12583D9F890208949100687
:1038500000F11983D9F898208649120600F10D83EA
:103860008548864A864901908648874D874C04974B
:1038700000230596029580460F4616461D46039482
:10388000306828B1446800F0F5FB2046002CF9D1DF
:1038900000233360029B38681A46002342F8253023
:1038A00028B1446800F0E6FB2046002CF9D1002244
:1038B0003A60019A98F800301146002241F8042B32
:1038C000039A0191023B4FF0000122F81510032BDF
:1038D00000F22B81DFE813F0700125017001250152
:1038E000BEF1400F18BF0022B5E6694A0D7848784E
:1038F000157050708D78C8789570D07010680D79FB
:10390000157186284D7989795571917100F09B81E7
:103910006049614E0A78307882F00105002842F053
:1039200002020D700CBF8821C82149F8321009EB42
:10393000C20280F001000021307051609EE642F228
:103940002120814240F0CB81544B554C5549A878F9
:103950001D682560CDF804E00870002002908046C4
:10396000844604464B490D7845F0020E09EBCE0320
:103970000393019B002B039B5C600CBF8824C8242D
:1039800044EA080385F0010449F83E3032700C70B7
:10399000DFF8E0E0404BDFF8FC80002840F01E81BB
:1039A000BCF1400F1BD144F0020C09EBCC03029C8C
:1039B000DFF8C0E05C60002A40F02681020442F09B
:1039C00088029DF804304EF83C20044433700D709A
:1039D0002346402803D10020334A3B601080334AFD
:1039E000012313704DE600F0B1FCA5E5214B2F48F3
:1039F00028491A614FF0020E80F800E02C4F0A703F
:103A00002C49196099602C4E2C4D2D4C9A610D213A
:103A10003970FF213170DFF8B8E029702270294D2C
:103A2000294A8EF800109F27012406F8047C5D6067
:103A30000470DA6007B0BDE8F08F244A47F8380018
:103A400013780133137057E543F826000E4D3AE51D
:103A50008B5D032B00F2F08001A252F823F000BF2F
:103A6000F9340000F93400001D3B0000173B000052
:103A7000C821FF1F0000FF1FA421FF1F4021FF1FBF
:103A80009421FF1FCC21FF1FEC20FF1F3C25FF1FAF
:103A90004425FF1FBC21FF1F5021FF1FE420FF1FF3
:103AA0004C25FF1FE021FF1FFC20FF1F9420074033
:103AB000C020074088004000882007408020074041
:103AC000982007400021FF1F5421FF1FBD21FF1F29
:103AD0008C200740C149C24B80220D2008701A700B
:103AE000A2077FF50EAE05E640F20232914240F0A9
:103AF000EE80A98801F07F01042968D86A88002A2D
:103B000065D1B648CDF804E089000844017841F059
:103B10000201017021E701238B55EDE400238B5551
:103B2000EAE44FF0010388F800300135042D06F176
:103B3000040607F1040708F101087FF4A1AEA94CBF
:103B4000A94B2278A94D049F059E002129701A7067
:103B5000130700F105816278A549DFF8A0820A7099
:103B600010074FF00001C9F83010C9F8381000F103
:103B7000E080A049A2780A700021C9F85010C9F865
:103B800058101107DFF8748200F10181E2789A4938
:103B90009A4C0A7000211207C9F87010C9F8781001
:103BA00000F1B08033780193002183F00102C9F85D
:103BB0009010C9F89810D0E64FF0000388F8003054
:103BC000B3E7A98801F07F01042940F28D80834A80
:103BD0000F2313708A4A0123137052E540287FF6A1
:103BE000E2AE44F002040EEBC401029E4E60BAB194
:103BF0009DF80410834A19703346403888F8005005
:103C000040334EF83420E7E69DF804303370020468
:103C1000029B0D7042F0C80203444EF83C20D8E6E7
:103C20009DF804101970029B774A88F800504038BC
:103C300040334EF83420CFE619F0080F0CBF0223B2
:103C400003238B5558E4714A0F21117060E6704AC6
:103C50005468002CBBD06888B5F804E003E00C324F
:103C60005468002CB3D013888342F8D1538873452D
:103C7000F5D1000A03280CBF94F800E0B2F808E080
:103C800003E0644A644C12782270E888704580F042
:103C90003F8162490D784028844645F0020E28BFD6
:103CA0004FF0400C04EB0C0309EBCE02029301230E
:103CB0005460CCEB00004FEA0C4800220193C8246A
:103CC0005EE6554C4FF0020E22706270DDE7B1F5F2
:103CD000A06F7FF47CAF0123002201933DE642F206
:103CE00021329142F7D072E76A88002A7FF46FAFE1
:103CF0003A48CDF804E089000844017821F0020137
:103D000001702AE600F096F9002800F0EF800830F4
:103D10003D4AC4F88400C4F8802000F08BF90028E4
:103D200000F0DE800830374AC9F88C00C9F88820D6
:103D300038E700F07FF9002800F0C0800830324AF0
:103D4000C8F84400C8F8402000F074F9002800F0DA
:103D5000AF8008302B4AC9F84C00C9F8482008E762
:103D600000F068F9002800F0CD800830264AC9F834
:103D70002400C9F8202000F05DF9002800F0BC8084
:103D80000830204AC9F82C00C9F82820E3E600F0E2
:103D900051F9002800F09E8008301B4AC8F86400E2
:103DA000C8F8602000F046F9002800F08D80083047
:103DB000144AC9F86C00C9F86820E7E6C86B0838EF
:103DC00000F058F904E5486B083800F053F9F9E4BD
:103DD000C86A083800F04EF9EEE400BFC020074082
:103DE0008020074088840000C4200740BD21FF1FB9
:103DF000C8200740CC200740D02007400000FF1F0C
:103E000094200740C8004000880040005121FF1F57
:103E10008C840000C821FF1FC021FF1FBC21FF1F91
:103E2000606A083800F026F9C0E4C86F083800F06E
:103E300021F9FDE4486F083800F01CF9F2E4C86E7F
:103E4000083800F017F9E7E4486E083800F012F976
:103E5000DCE4C86D083800F00DF9D1E4486D08388D
:103E600000F008F9C6E4C86C083800F003F9BBE4B8
:103E7000486C083800F0FEF8B0E4D1F89C0008382F
:103E800000F0F8F8ECE4D1F89400083800F0F2F80B
:103E9000E0E4D1F88C00083800F0ECF8D4E4D1F874
:103EA0008400083800F0E6F8C8E44FF0020EECE6B3
:103EB0002A78C9F8480001322A705AE62A78C8F8E8
:103EC000400001322A703FE72A78C9F868000132C1
:103ED0002A705BE62A78C8F8600001322A7061E730
:103EE0002A78C9F8880001322A705BE62A78C4F87B
:103EF000800001322A7010E72A78C9F828000132C0
:103F00002A7028E62A78C9F8200001322A7032E7A0
:103F1000BEF1400FF44628BF4FF0400C04EB0C03F9
:103F200002930123CCEB0E004FEA0C4800220193D0
:103F300018E500BF2DE9F04101F072F8314C324B29
:103F40003248DFF8E480324EDFF8E0C0314F324DC6
:103F5000DFF8DCE000221A605A609A60DA601A61C9
:103F60005A619A61DA611A625A629A62DA621A6373
:103F70005A639A63DA631A645A649A64DA641A6553
:103F80005A659A65DA651A665A669A66DA661A6733
:103F90005A679A67DA67C3F880202168C3F88420DB
:103FA00041F480212160016841F0407101600321EA
:103FB00088F80010A020C3F307218CF8000004F556
:103FC00028343170C3F30740144938701B0E2B702E
:103FD000CC34FF238EF80030114D0CF8B83C11485A
:103FE0000B70012306F8083C227070264FF4001471
:103FF000102207F82C3C2E70046081F8F820BDE8F0
:10400000F08100BF348004400000FF1F00D8004052
:104010009C200740B0200740B420074010200740F4
:1040200035E400E004E100E044210740402107407E
:104030008020074072B60D480268B2FA82F30B2B5B
:1040400010DC4FF00041D94022EA0102026062B662
:10405000074803EBC303DB00C2180021C150104620
:104060005160704762B60020704700BF140EFF1FFA
:10407000D003FF1F0D4B0E4AC31AA2FB03231B09DB
:104080000B2B0CD80B4A127852B972B60A484FF073
:104090000041026821FA03F31A43026062B67047D6
:1040A000064A1278002AF0D0FFF736B9D003FF1F76
:1040B000398EE338BD21FF1F140EFF1FC821FF1FDB
:1040C00038B50F4D286878B143880288C11801338C
:1040D00093420C7A02D24380204638BDFFF7CAFFD4
:1040E000002320462B6038BD064B1B782BB10320E4
:1040F000FFF7DEF828600028E6D14FF0FF3038BD2A
:10410000DC21FF1FC821FF1F10B5094C206818B122
:1041100043881844007A10BD064B1B782BB103204E
:10412000FFF7C6F820600028F2D14FF0FF3010BD35
:10413000DC21FF1FC821FF1F044B054A1B68908824
:104140001BB11A885B88D31A18447047DC21FF1F03
:104150003C25FF1F0B4B1B789BB110B50A4C206808
:1041600048B1FFF787FF002303202360FFF7A0F883
:1041700030B1FFF77FFF0320FFF79AF80028F8D14E
:1041800010BD7047C821FF1FDC21FF1F2DE9F04F34
:10419000DFF8F89083B0012289F80020019169B31B
:1041A000DFF8EC80354F019E8346D8F80000B0B3AD
:1041B000334D4488C4F14001B14228BF314604EB7D
:1041C000010E00221FFA8EFE2A70761AA0F802E075
:1041D00000F1080251B1013C224459441BF8014B43
:1041E00002F8014F8B45F9D1B0F802E0BEF13F0F64
:1041F0000BD8244A05211170002ED6D10198002336
:1042000089F8003003B0BDE8F08F402202800146FB
:104210000420FFF7E5F80022C8F80020E9E73A7823
:1042200022B3194C164D4FF0010A07E0013C16D09D
:104230002A78A2B900F0DAFA3A78BAB10420FFF786
:1042400055F80728F2D889F800A0FFF7F3FEC8F860
:1042500000000028ADD10D4B013C1870E8D10123BE
:104260004FF0FF302B7003B0BDE8F08F00234FF00C
:10427000FF3089F8003003B0BDE8F08FC821FF1F80
:10428000D821FF1FD021FF1F21480100D121FF1F8E
:10429000D421FF1F00B583B002AB012103F8010D4B
:1042A0001846FFF773FF03B05DF804FB38B50E4DF9
:1042B0000E4C28680123237028B140880023237006
:1042C000C0F1400038BD0A4B1B7813B900202070A4
:1042D00038BD0420FFF70AF80728F7D8FFF7AAFE31
:1042E00028600028E9D1F1E7D421FF1FD121FF1F69
:1042F000C821FF1FF8B5114B1B788BB1104E114D23
:10430000346801272F7064B10F4A63880027177043
:10431000214623800420FFF763F8376000232B70C9
:10432000F8BDFFF787FE084B28B1014604201C703A
:10433000FFF756F8F2E71F70F0E700BFC821FF1F34
:10434000D421FF1FD121FF1FD021FF1F38B50E4BF5
:104350001B7873B90D4C216861B103F0FF054B88E0
:104360000B800420FFF73CF8256038BD084B012284
:104370001A7038BDFFF75EFE0028F7D00146BDE891
:1043800038400420FFF72CB8D121FF1FD421FF1F94
:10439000D021FF1F10B4EFF3108272B6437F33B900
:1043A000017F012908D0032910D00123437702B9E6
:1043B00062B65DF8044B7047114C2168A1B11149F8
:1043C00043610B68836108605861EEE70E4C216819
:1043D00081B10E4943610B688361086058610C4BE1
:1043E0004FF080511960E0E7064B41618161206028
:1043F0001860DAE7054B4161816120601860EEE7E3
:10440000F421FF1FF021FF1FE421FF1FE821FF1F00
:1044100004ED00E070B5EFF3108272B60C4C20682A
:1044200080B10C4E00254369236073B19D6102B9D0
:1044300062B6457783689847EFF3108272B62068BA
:104440000028F0D102B962B670BD3360EFE700BF5B
:10445000E421FF1FE821FF1FFFF7DCBF184A30B43B
:104460001468002C27D0036821688B420ED2CB1A27
:1044700000218460C1602360E06010600223037546
:1044800030BC704711688B42144608D3A2685B1A8F
:104490000360002AF6D18260C460A060EEE7D268B3
:1044A000C2608460E060C568CB1A0222A860236005
:1044B000027530BC70478460C4601060DEE700BFE6
:1044C000EC21FF1FF8B5224E34682CB32368002B73
:1044D0003AD1204F1D4604E03468ECB12368002B2C
:1044E00032D1A36803B1DD602069336003682575AC
:1044F0001B68BB4221D1037F4560022BC46020D0E2
:10450000FFF748FF6368002BE6D023602046FFF7E3
:10451000A5FF3468002CE1D1EFF3108372B60E4A88
:1045200000211068116003B962B628B18468FFF7F2
:1045300095FF20460028F9D1F8BD22460021984772
:10454000E0E783689847DDE7013B2360E4E700BFCD
:10455000EC21FF1F7D220000FC21FF1F024A13688F
:1045600001331360FFF7AEBFE420FF1F704700BFA9
:104570000368F0B4FBB1002501249D60DC601B4C96
:104580001A601C44241104F130056A1103269200BC
:104590009E60174F0679174B47F8241002F16042CE
:1045A00002F5614205F01F05012000FA05F5E65409
:1045B0001560F0BC7047104C236843F4000323607F
:1045C00000BF0E4B0E4DA4F58734A4F59E74012652
:1045D0001E60234604609C68002CD0D01033AB4290
:1045E0000360F8D1002303601846E2E7008FFCBFA8
:1045F000180EFF1F30E400E03C80044000700340D0
:10460000407103400168A9B10B4BF0B40B441B117E
:104610000A4E0B4F0B4D46F8237003F1300202F0A7
:104620001F0401235211A340002445F822308C605E
:104630000460F0BC704700BF008FFCBF180EFF1F66
:104640006D45000080E100E0024A034B012111604A
:104650001B6818470C710340180EFF1F024A034BDA
:10466000012111605B6818471C710340180EFF1F81
:10467000024A034B012111609B6818472C710340CB
:10468000180EFF1F024A034B01211160DB68184717
:104690003C710340180EFF1F08B5FBF7E7FEFBF760
:1046A00017FF00F0A3F8FAE700B5064A036812887E
:1046B0005B6883B001A9ADF804200222984703B0DB
:1046C0005DF804FB5C840000F0B507468BB0002A5F
:1046D00033D0012A08BF0A2251B3212400E0F4B2EA
:1046E000B1FBF2F502FB1511C8B2092900F1300146
:1046F00098BFC8B20AA988BF3730214488BFC0B26A
:1047000001F8240C661E2946002DE8D133B1013C86
:10471000E4B20AAB23442D2203F8242C3B6801AAFF
:1047200011195B683846C4F1220298470BB0F0BDFE
:1047300030228DF825202124E8E70368C9B21B68E0
:1047400098470BB0F0BD00BFFFF704BDFFF7D2BD27
:10475000FFF7ACBD08461146FFF718BD0846FFF746
:1047600099BD00BF704700BFF0B5164D2A680AB367
:104770001549164BDFF85CE082FB016781FB0214F0
:10478000D617D1191444C6EB2141C6EB244403FBD0
:1047900004F40EFB112244F2A71303FB0243002B87
:1047A00002DA03F10043013BB3FBF0F22B6000FBA4
:1047B0001230F0BD064B2B60B3FBF0F200FB123061
:1047C000F0BD00BF0022FF1F5F0B4E83ECF4FFFF24
:1047D00042CE0C1F1DF30100884206DA10B50446D4
:1047E000081AFFF7C1FF204410BD704738B52C4CA4
:1047F000237803B138BD01232370FFF79DFC002807
:1048000042D100F0EBF800283BD100F07DF9002800
:1048100034D100F00FFA70BB00F088FA40BB00F012
:1048200001FB10BB00F07AFBE0B900232370EFF32B
:104830000583002BDED1EFF3108172B6194B186897
:1048400028B3194C227812BB45691D6001232370DF
:104850000DB3AA6101B962B6002545778368984710
:104860002570C7E700F028FCDFE700F023FCD9E75C
:1048700000F01EFCD3E700F019FCCDE700F014FCBB
:10488000C7E700F00FFCC0E7FFF76CFFB9E70029AE
:10489000B0D162B638BD054B1D600029DCD1DAE726
:1048A0000422FF1FF421FF1FF821FF1FF021FF1F2B
:1048B00030B42948294A2A4B2A4D6024E12104704A
:1048C00011701B78284C082B30D00A2B2748284918
:1048D00037D00C2B0CBF35225D2212232A602360B7
:1048E00002600B60234B24491B78244ABBB101238F
:1048F0000B601360224B23491B78234A012B26D9D6
:10490000042B0FD9082B1ED9102B94BF8623872385
:104910000B6013601D4B01221A7030BC70470B6096
:104920001360E7E784230B601360F3E700F58E2044
:104930000F490830212213232A60236002600B6094
:10494000D0E73922F7E785230B601360E2E7802385
:104950000B601360DEE700BF0040074001400740E6
:10496000380EFF1F08B003400CB0034008B00B40E6
:104970000CB00B400622FF1F20B0034020B00B40BC
:10498000390EFF1F24B0034024B00B400522FF1F47
:10499000F0B44D1E2E46002400E00134B0FBF2F3CB
:1049A00002FB1300092800F130078ABF3730F8B244
:1049B000C0B206F8010F1846002BEED10A19537049
:1049C0004CB1107815F8016F28700133E01A83425A
:1049D00002F80169F5DB0846F0BC7047054A064B52
:1049E00010781B78C0B2DBB2984238BF4030C01A92
:1049F000704700BF0C22FF1F0D22FF1FF0B4384B81
:104A00001A7912F0300F2CD072B6997D01F0FF02A6
:104A100000293DD062B6334F334938780D78334E94
:104A20001C46C0B2EDB2431C402BE17928BF0023E5
:104A3000AB4202F1FF32C9B21CBFF154184612F06A
:104A4000FF02F0D12A4B1B68C2B23A704BB1A842A8
:104A500036BFC5F14005401B40192728C4BF0122BD
:104A60001A701F49CA78D2B2150616D452060DD54F
:104A70001B4B1B795B0609D51E4B1F491B68002287
:104A80000A7003B11A70164B3C22DA70F0BC704702
:104A90004022D9795A7462B6E3E70B791C06E5D552
:104AA000164B174E1C783378E4B2DBB29C420ED022
:104AB000144D01E0A3420AD00133402B28BF00234C
:104AC0000879E85CC0B2C871087D0728F2D9DBB26A
:104AD000034933700B79180644BF7C23CB70C5E7BC
:104AE00000A006400C22FF1F0D22FF1F5022FF1FB7
:104AF0000822FF1F9422FF1F9022FF1F9822FF1FF2
:104B00009122FF1F1022FF1F054A064B10781B78C9
:104B1000C0B2DBB2984238BF4030C01A704700BF05
:104B20000C23FF1FA122FF1FF0B4384B1A7912F09B
:104B3000300F2CD072B6997D01F0FF0200293DD0D4
:104B400062B6334F334938780D78334E1C46C0B2C5
:104B5000EDB2431C402BE17928BF0023AB4202F1A8
:104B6000FF32C9B21CBFF154184612F0FF02F0D157
:104B70002A4B1B68C2B23A704BB1A84236BFC5F18E
:104B80004005401B40192728C4BF01221A701F4945
:104B9000CA78D2B2150616D452060DD51B4B1B7916
:104BA0005B0609D51E4B1F491B6800220A7003B122
:104BB0001A70164B3C22DA70F0BC70474022D9794B
:104BC0005A7462B6E3E70B791C06E5D5164B174E0F
:104BD0001C783378E4B2DBB29C420ED0144D01E075
:104BE000A3420AD00133282B28BF00230879E85CB0
:104BF000C0B2C871087D0728F2D9DBB2034933700F
:104C00000B79180644BF7C23CB70C5E700B0064083
:104C10000C23FF1FA122FF1FCC22FF1F9C22FF1F7E
:104C20001023FF1FA022FF1F1423FF1F0D23FF1FB0
:104C3000A422FF1F054A064B10781B78C0B2DBB2D6
:104C4000984238BF4030C01A704700BF1C23FF1F76
:104C50001D23FF1F30B42B4B1A7994061FD52A4809
:104C6000DA790378294901333F2B0978C8BF00233B
:104C70008B42D2B203D0264CD9B2E2540170254AFD
:104C8000116861B1244A1278D2B2934236BFC2F1A0
:104C900040029B1A9B18272BC4BF01230B70194A93
:104CA000D378DBB2180611D45A060DD5154B1B79F3
:104CB0005B0609D5194B1A491B6800220A7003B11B
:104CC0001A70104B2C22DA7030BC7047117909062B
:104CD000EAD5144910480C780178C9B28C420DD03D
:104CE0004A1C272A84BF00210A460F4D054C98BF55
:104CF000D1B2AA5CD2B2E2710170D5E76C21D17059
:104D0000D2E700BF00C006401C23FF1F1D23FF1F6A
:104D10004823FF1F1823FF1F8923FF1F8C23FF1F1A
:104D20008823FF1F9023FF1F2023FF1F054A064BE8
:104D300010781B78C0B2DBB2984238BF4030C01A3E
:104D4000704700BF9823FF1F9923FF1F30B42B4BE0
:104D50001A7994061FD52A48DA790378294901334C
:104D60003F2B0978C8BF00238B42D2B203D0264C18
:104D7000D9B2E2540170254A116861B1244A12780F
:104D8000D2B2934236BFC2F140029B1A9B18272B26
:104D9000C4BF01230B70194AD378DBB2180611D4B3
:104DA0005A060DD5154B1B795B0609D5194B1A49C7
:104DB0001B6800220A7003B11A70104B2C22DA70A3
:104DC00030BC704711790906EAD5144910480C78AF
:104DD0000178C9B28C420DD04A1C272A84BF002119
:104DE0000A460F4D054C98BFD1B2AA5CD2B2E2710F
:104DF0000170D5E76C21D170D2E700BF00D006402A
:104E00009823FF1F9923FF1FC423FF1F9423FF1F15
:104E10000524FF1F0824FF1F0424FF1F0C24FF1F6D
:104E20009C23FF1F054A064B10781B78C0B2DBB2EB
:104E3000984238BF4030C01A704700BF1424FF1F8B
:104E40001524FF1F30B42B4B1A7994061FD52A481E
:104E5000DA790378294901333F2B0978C8BF002349
:104E60008B42D2B203D0264CD9B2E2540170254A0B
:104E7000116861B1244A1278D2B2934236BFC2F1AE
:104E800040029B1A9B18272BC4BF01230B70194AA1
:104E9000D378DBB2180611D45A060DD5154B1B7901
:104EA0005B0609D5194B1A491B6800220A7003B129
:104EB0001A70104B2C22DA7030BC70471179090639
:104EC000EAD5144910480C780178C9B28C420DD04B
:104ED0004A1C272A84BF00210A460F4D054C98BF63
:104EE000D1B2AA5CD2B2E2710170D5E76C21D17067
:104EF000D2E700BF00A00E401424FF1F1524FF1F9F
:104F00004024FF1F1024FF1F8124FF1F8424FF1F44
:104F10008024FF1F8824FF1F1824FF1F054A064B0B
:104F200010781B78C0B2DBB2984238BF4030C01A4C
:104F3000704700BF9024FF1F9124FF1F30B42C4BFB
:104F40005A6894021FD52B48DA6803782A4901333E
:104F50003F2B0978C8BF00238B4204D0274CD2B224
:104F6000D9B2E2540170264A116861B1254A12781B
:104F7000D2B2934236BFC2F140029B1A9B18272B34
:104F8000C4BF01230B701A4A9368180202D55268F5
:104F9000110211D45A020DD5154B5B685B0209D57D
:104FA000194B1A491B6800220A7003B11A70184B7A
:104FB00000221A6030BC7047164A124910780A78ED
:104FC000D2B290420DD00132272A84BF002002467F
:104FD000114D074C98BFD0B2AA5CD2B2E260087003
:104FE000D8E70E480A4A0024012104601160D1E785
:104FF00000400C409024FF1F9124FF1FBC24FF1F82
:105000008C24FF1FFD24FF1F0025FF1FFC24FF1F12
:10501000580188430425FF1F9424FF1F5C01884327
:1050200010B584B072B6FDF779FF184A184B1949CC
:105030001160702280211A701A46197013781B06AD
:10504000FCD5154B1C68FDF783FF62B6134B9C42E1
:105050009CBF04EB840464002046114C01A90A2281
:10506000FFF796FC01A92046002311F8012B01331C
:105070003AB10A2B20F8022FF7D11623237004B07F
:1050800010BD5B00DBB2237004B010BD0400024011
:1050900000000240000007410C0002407F9698008B
:1050A000C80EFF1F704700BF704700BF704700BFAA
:1050B000704700BF704700BF704700BFFFFFFFFF92
:1050C000F0B52DED048BB0EE409AF0EE609A3A4CBC
:1050D0008BB000F09DFA94F90030B0EE408AF0EE0B
:1050E000608A013338D0B0EE490AF0EE690A01F067
:1050F00087FC88B32CA3D3E9002351EC190B02F0F1
:1051000003FA054680BB2AA3D3E9002351EC190B0F
:1051100002F0DCF900B394F90030284A0895002623
:1051200000270421022B8DED049B8DED029BCDE920
:1051300006678DE8060030D0684601F069FC60B370
:10514000089B1BB102F0A4FA089B03609DED060BBF
:105150000BB0BDEC048BF0BDB0EE480AF0EE680A6F
:105160000BB0BDEC048BF0BD144A94F900300192F1
:10517000032100228DED049B8DED029B009108928E
:105180002BB90F4B4FF06042CDE90623D4E70D4910
:105190000020022BCDE90601CED102F079FA2223BC
:1051A0000360CDE7AFF30080EF39FAFE422E864070
:1051B00051302DD5104987C0DE0EFF1FE08400005E
:1051C000FFFFEF470000F07F2DE9F0432DED028B4C
:1051D0008BB055EC104B00F0AFFB3A4BB0EE408A71
:1051E000F0EE608A93F90060731C0DD022462B46C6
:1051F0002046294602F092F930B9002200232046C9
:10520000294602F081F940B1B0EE480AF0EE680A92
:105210000BB0BDEC028BBDE8F0832B4B0890CDE9C1
:105220000245CDE904450193DEB9284F4FF06046B1
:105230002046294600220023CDE9066702F03CF90A
:10524000002837D002230093684601F0E1FBC8B183
:10525000089BE3B99DED060B0BB0BDEC028BBDE8DE
:10526000F083DFF870904FF00008204629460022B6
:105270000023CDE9068902F01FF968B102239E429E
:105280000093E1D102F004FA22230360E0E702F088
:10529000FFF9089B0360DDE70123022E00930BD189
:1052A00002F0F6F921230360094801F0B5FB8DED0A
:1052B000060BCDE701230093684601F0A9FB002807
:1052C000F2D1EDE7DE0EFF1FE4840000FFFFEFC721
:1052D000108200000000F0FF2DE9F04F2DED028B51
:1052E000DFF824A38BB057EC106B55EC114B00F09A
:1052F00027FD9AF90080B0EE408AF0EE608AB8F19E
:10530000FF3F48D022462B462046294602F006F9A8
:10531000834600283FD132463B463046394602F0AC
:10532000FDF88146002840F0908030463946002242
:10533000002302F0C1F8002836D0002200232046C6
:10534000294602F0B9F88346B8B19FEDA57B01224A
:10535000A94BCDF820900092CDE90267CDE9044534
:105360008DED067B0193B8F1000F5BD09FED9E0B96
:105370000BB0BDEC028BBDE8F08F45EC104B01F09B
:105380003FFB40B1002200232046294602F09EF850
:10539000002840F0C580B0EE480AF0EE680A0BB075
:1053A000BDEC028BBDE8F08FB0EE480AF0EE680A63
:1053B00001F026FB8046002861D04FF000084FF036
:1053C000000951EC180B42464B4602F075F80028D4
:1053D000E1D047EC106B01F013FB0028DBD045EC6B
:1053E000104B01F00DFB0028D5D09AF90030824A0D
:1053F000019204210022022BCDE90267CDE9044588
:10540000CDE906890091089203D0684601F000FBBF
:1054100070B902F03DF92223036009E09FED707B33
:105420008DED067B684601F0F3FA002800F08E80CF
:10543000089B1BB102F02CF9089B03609DED060B45
:105440000BB0BDEC028BBDE8F08F0022002320469C
:10545000294602F031F800289DD09FED630B664B82
:10546000CDF820B00122B8F1020FCDE90267CDE9F5
:1054700004458DED060B8DE80C00D3D18FE747EC8A
:10548000106B01F0BDFA002897D045EC104B01F0ED
:10549000B7FA002891D053EC182B18EE100A1946D1
:1054A00002F03CF800287CD103239AF90080009395
:1054B000514B0890CDE90267CDE904450193B8F15D
:1054C000000F48D1DFF844914FF0604800220023DC
:1054D00030463946CDE9068901F0F8FF002894D01E
:1054E0000022464B2046294601F07EFD04460D462B
:1054F00045EC104B01F098FA204653EC102B29464E
:1055000001F0DAFF002849D13D4B9AF900804FF0B5
:105510006042CDE90623B8F1020F7FF476AF78E759
:10552000354A9AF90030CDF820B00121CDE9026763
:10553000CDE904458DE80600002B3FF46FAF3149FB
:105540000020022BCDE906017FF46CAF02F0A0F839
:10555000212303606CE79FED267B00220023304669
:1055600039468DED067B01F0B1FF0028D3D0002233
:10557000224B2046294601F037FD04460D4645ECF6
:10558000104B01F051FA204653EC102B294601F044
:1055900093FF18B91B4B0022CDE906239AF900802E
:1055A000B9E7154B9AF90090CDF820800122CDE99A
:1055B0000267CDE904458DE80C00B9F1000F3FF416
:1055C0002DAF002200231046194601F037FEB9F135
:1055D000020FCDE90601B9D024E700BFAFF3008088
:1055E0000000000000000000000000000000F03F8C
:1055F000000000000000F07FE88400000000E03FB1
:10560000FFFFEFC70000F0FFDE0EFF1FFFFFEF47B9
:105610002DE9F04F55EC104BBD4925F000428A4270
:1056200083B04FEAD5770DD9BA498A422AD9C5F352
:105630001303234340F0FA800FB19FED9D0B03B09D
:10564000BDE8F08FB44B9A4200F2D580B34B9A423A
:1056500000F2EA8098A3D3E9002310EE100A29464D
:1056600001F010FB0022AE4B01F04EFF002800F0CD
:105670001C81204629460022A94B01F003FB41EC86
:10568000100BDCE78EA3D3E9002310EE100A2946A5
:1056900001F03AFF002840F0D3808BA3D3E9002328
:1056A0002046294601F012FF0028C6D19D4E88A34E
:1056B000D3E9002306EBC7062046294601F094FCF7
:1056C000D6E9002301F0DEFA01F03EFF064601F0C4
:1056D00025FC81A3D3E900238046894601F084FCA0
:1056E00002460B462046294601F0CAFA7CA3D3E9BC
:1056F0000023CDE900014046494601F075FC824691
:105700008B4652465B46DDE9000101F0B9FA0446DA
:105710000D4622462B462046294601F065FC72A321
:10572000D3E900238046894601F05EFC70A3D3E9EB
:10573000002301F0A5FA42464B4601F055FC6EA34A
:10574000D3E9002301F09EFA42464B4601F04CFC9F
:105750006BA3D3E9002301F093FA42464B4601F0D4
:1057600043FC69A3D3E9002301F08CFA42464B467F
:1057700001F03AFC02460B462046294601F080FA29
:1057800080468946002E65D02046294642464B4633
:1057900001F02AFC424604460D464B4600204FF0DD
:1057A000804101F06DFA02460B462046294601F081
:1057B00045FD02460B465046594601F061FADDE9C7
:1057C000002301F05DFA0B4602465549002001F026
:1057D00057FA6FF47F739E4260DA06F57A7601EB32
:1057E000065100224FF0B87301F0FEFB41EC100BA4
:1057F00003B0BDE8F08F4C4B9A423FF657AF4B4B8E
:105800004FEAC7084344D3E9002310EE100A2946A3
:1058100001F036FA464BC7F101069844CDE9000184
:10582000D8E900ABF61B6CE7002672E710EE102AF1
:105830002B462046294601F025FA41EC100BFEE6E6
:105840001DA3D3E900231046194601F0CDFB41EC1E
:10585000100BF4E602460B462046294601F0C4FB35
:10586000002206460F464FF080434046494601F06D
:1058700007FA02460B463046394601F0DFFC224665
:105880002B4601F0FDF902460B460020244901F0A9
:10589000F7F941EC100B03B0BDE8F08F01EB0651B6
:1058A00041EC100B03B0BDE8F08F064631E700BFB6
:1058B00000000000000000009C7500883CE4377E7A
:1058C000EF39FAFE422E864051302DD5104987C05F
:1058D000FE822B654715F73F0000E0FE422EE63FB3
:1058E000763C7935EF39EA3DD0A4BE726937663E21
:1058F000F16BD2C541BDBB3E2CDE25AF6A56113FD0
:1059000093BDBE166CC1663F3E5555555555C53FB6
:10591000412E8640FFFFEF7F422ED63FFFFF2F3EF6
:105920000000F03FF0840000B1A2F03F10850000BD
:1059300000850000FFFFFFFF2DE9F04F51EC100B39
:10594000B1F5801F85B00B4659DA10EE102A21F010
:105950000044224300F0F8800029C0F28081002238
:10596000DD4BDE4C01F040FB0B46A3426FF03502ED
:105970004ADCC3F3130505F5152404F6647404F436
:10598000801686F07F541B1584F44014A3F2FF3375
:1059900044EA05019C180022D14B01F071F9AB1CBF
:1059A000C3F31303022B04EB165482468B464FF0CD
:1059B000000232DC002301F07FFD002800F0CF80E0
:1059C000002C00F05881204601F0A8FAACA3D3E9DE
:1059D000002306460F4601F007FBABA3D3E90023E3
:1059E00004460D463046394601F0FEFA02460B46A3
:1059F0002046294601F046F941EC100B0AE0B74C6D
:105A0000A3424FF00002B4DD02460B4601F03AF922
:105A100041EC100B05B0BDE8F08F4FF0804301F072
:105A200031F902460B465046594601F007FC06463E
:105A300020460F4601F072FA3246CDE900013B469E
:105A400030463946CDE9026701F0CEFA02460B46F0
:105A50008046894601F0C8FA8DA3D3E900230646A3
:105A60000F4601F0C1FA8CA3D3E9002301F00AF933
:105A700032463B4601F0B8FA89A3D3E9002301F08E
:105A800001F932463B4601F0AFFA87A3D3E9002380
:105A900001F0F8F842464B4601F0A6FA84A3D3E998
:105AA0000023804689463046394601F09DFA82A39C
:105AB000D3E9002301F0E6F832463B4601F094FAC0
:105AC0007FA3D3E9002301F0DDF832463B4601F025
:105AD0008BFA0B4602464946404601F0D3F8A5F53D
