:1000000000000320D1010000F12A0000A92A00000D
:10001000A92A0000A92A0000A92A0000A92A000094
:10002000A92A0000A92A0000A92A0000F12A00003C
:10003000F12A0000A92A0000993D00009D3E000021
:10004000F12A0000F12A0000F12A0000F12A000044
:10005000F12A0000F12A0000F12A0000F12A000034
:10006000F12A0000F12A0000F12A0000F12A000024
:10007000F12A0000F12A0000F12A0000F12A000014
:10008000F12A0000F12A0000F12A0000F12A000004
:10009000F12A0000F12A0000F12A0000F12A0000F4
:1000A000F12A0000F12A0000F12A0000F12A0000E4
:1000B000F12A0000F12A0000F12A0000314200007C
:1000C000F12A00005D430000F12A0000894400008D
:1000D000F12A000081450000F12A0000F12A000009
:1000E000F12A0000F12A0000F12A0000F12A0000A4
:1000F000F12A0000F12A0000F12A0000F12A000094
:10010000893F00009D3F0000B13F0000C53F000057
:10011000F12A000015300000F12A0000F12A000049
:10012000F12A0000F12A0000F12A0000F12A000063
:10013000F12A0000F12A0000F12A0000F12A000053
:10014000F12A0000F12A000079460000F12A00009F
:10015000F12A0000F12A0000F12A0000F12A000033
:10016000F12A0000F12A0000F12A0000F12A000023
:10017000F12A0000F12A0000F12A0000F12A000013
:10018000F12A0000F12A0000F12A0000F12A000003
:10019000F12A0000F12A000071470000F12A000056
:1001A000F12A0000F12A0000F12A0000F12A0000E3
:1001B000F12A0000F12A0000F12A0000F12A0000D3
:1001C000F12A0000F12A0000F12A0000F12A0000C3
:1001D0005C4B4CF2205210B51A804DF628121A8052
:1001E00000BF00BF02F088FC574B4FF030621A602E
:1001F000564A9A60564ADA60564B4FF470021A60BB
:10020000554B564A1A60564B1A78110703D51A787F
:1002100042F008021A70534B5349AA221A70534AEB
:10022000534B8B4204D252F8040F43F8040BF8E707
:10023000504B514900228B4202D243F8042BFAE77B
:100240004E494F4A002352F8230041F8230001335E
:10025000742BF8D14B4B4C4A802103F8011B93427D
:10026000FBD14A4B454A1A60494B8A221A70A3F5C2
:10027000805324225A70A0221A709A799207FCD5D2
:100280009A79D406FCD4434A937903F00C03082BE3
:10029000FAD1414B60221A7002331A78802AFCD1BD
:1002A0003C4B01221A715D225A719A799006FCD555
:1002B0009979384A4906FBD5384B394919600021EC
:1002C000596020231370937903F00C030C2BFAD19F
:1002D000344B354A1A60354A354C136813F4807331
:1002E00003D123604FF4A8531360324B324A1A6093
:1002F00000225A60072243F8042C304AC3F80C2D20
:1003000062B602F02BFD2368DA0705D52C4802F00F
:10031000A7FC2C4B2C4A1A602C4B1B785B0609D58A
:10032000284C294B22689A4204D1254802F098FCB7
:100330000023236006F0F2FD02F0E4FB03F04CFE24
:10034000FEE700BF0E20054030800440823F0400DD
:100350000100002B88ED00E0002008E0030000858C
:1003600002D0074000E007400C17FF1F187D000077
:100370003007FF1F0C17FF1FF024FF1F0002FF1F95
:100380000000000000E400E064E400E008ED00E0AC
:10039000005006400040064001E007404480044011
:1003A0000000060204800440C010070010D0034083
:1003B00014D0034014E000E01FBF02000000202022
:1003C0007944EA5D1CE00340A5C3945A00F007405D
:1003D000FFFFFFFFFFFFFFFFFFFFFFFFFFFFFFFF2D
:1003E000FFFFFFFFFFFFFFFFFFFFFFFFFFFFFFFF1D
:1003F000FFFFFFFFFFFFFFFFFFFFFFFFFFFFFFFF0D
:10040000FFFFFFFFFFFFFFFFFFFFFFFFDEF9FFFF23
:1004100010B5054C237833B9044B13B10448AFF33E
:1004200000800123237010BD0C17FF1F0000000087
:100430001C7D0000084B10B51BB108490848AFF3FC
:1004400000800848036803B910BD074B002BFBD0A0
:10045000BDE81040184700BF000000001017FF1F44
:100460001C7D00000C17FF1F00000000014800F079
:1004700097BE00BF2C17FF1F10B5064C204600F09A
:1004800085FE204601F010F92046BDE8104001F03D
:100490003BB900BF2C17FF1F0A4B0B4A1B68D2ED5C
:1004A000007A5B6807EE103A084BB8EE477AD3ED56
:1004B000006AF8EE677AE7EE267AFCEEE77A17EE46
:1004C000900A7047441BFF1F881BFF1F381FFF1F28
:1004D0000A4B0B4A1B68D2ED007A5B6807EE103AB4
:1004E000084BB8EE477AD3ED006AF8EE677AE7EE8C
:1004F000267AFCEEE77A17EE900A7047441BFF1F3E
:100500008C1BFF1F9417FF1F064A074B12681B889E
:10051000516806489BB2B1FBF3F203FB121350F88B
:1005200023007047441BFF1F9817FF1F941BFF1FDA
:1005300070B5114B82B0186806F020F90F4B104AC5
:100540001B681668044658680D4606F017F9CDE991
:100550000001304606F034F99DED001B41EC100B14
:1005600004F0FAFA204653EC102B294606F07CF9E9
:1005700006F052FC02B070BD881BFF1F441BFF1F1A
:10058000801BFF1F10B5044603F0DCFC204610BDA5
:10059000274A284B70B516681D68AE4202D82B4614
:1005A00035461E46244B1B78053B032B18D8DFE845
:1005B00003F0382C18023146284603F04DFD314631
:1005C0000446284603F048FD31460444284603F01B
:1005D00043FD31460444284603F03EFD2044800894
:1005E00070BD3146284603F037FD314604462846A3
:1005F00003F032FD31460444284603F02DFD0F4B35
:100600002044A3FB0030400870BD3146284603F06B
:1006100023FD31460446284603F01EFD20444008D1
:1006200070BD31462846BDE8704003F015BD00BFDF
:100630008C1BFF1F881BFF1F9A17FF1FABAAAAAABC
:100640002DE9F04F7D4E7E4D33682DED028B022259
:1006500085B02A70002B00F0ED801A68002A00F0A7
:10066000E9805A7A013A032A26D8DFE812F004001A
:10067000070315032C03D3F80A2007EE902AF5EEA2
:10068000C07AF1EE10FA17D99FED6E7AF4EEC77AC0
:10069000F1EE10FA10DCDFED6C6ABEEE007AA7EE28
:1006A000A67AFCEEC77A17EE902A232A04D9674966
:1006B000674803F0FDFB33681A7E012A00F0E480EE
:1006C000042A0CD1D3F823204AB1624B01931C4673
:1006D000904723688342804640F03483336893F820
:1006E0002720013A032A00F28680DFE812F0620236
:1006F000FD017E010400D3F83220002A7BD0564C45
:10070000904723788342074600F0AA8415200021F1
:1007100002F0B8FA514AD07A00282AD072B6D17ABB
:10072000C8070B4609D5DFF858E1D368DEF80000AA
:100730001840D0610B46CEF80000880706D548491E
:1007400013690868034013620B60D37A590706D512
:10075000444953690868034053620B60D37A180711
:1007600005D5414993690868034093620B6062B6FE
:10077000D07A1368D968B1F1384F0DD0DFF804E1B1
:10078000C3F800E04FF0384EC3F80CE037494FF0A3
:10079000784EC3F810E019604FF00041D9625F63F2
:1007A000D96A0029FCDA4FF00041D3F838E0D96269
:1007B0005F63D96A0029FCDA9B6BB0B1C10703D52E
:1007C0002B4BD1691960D07A830703D5294B116A65
:1007D0001960D07A410703D5274B516A1960D07A46
:1007E000030702D5254B926A1A600121152002F0F9
:1007F00049FA336827705A68196801328A425A6088
:1008000011D3D3F8361000221A715A719A71DA7125
:10081000002940F05182D3F83E20002A40F0748233
:10082000D3F84630336001232B7005B0BDEC028B4A
:10083000BDE8F08F064803F085FBF4E7441BFF1F7B
:100840002817FF1F8988884C00007042410600006D
:100850009C1AFF1F401BFF1F841BFF1FD00DFF1F93
:1008600084E100E088E100E08CE100E000003F80EE
:1008700000E100E004E100E008E100E00CE100E05C
:1008800080E100E001403F00D3F8192008EE102A73
:100890008A4A0192BCEEC88A126818EE101A8A427F
:1008A0003FF41DAFF8EE487A9FED857A854F67EEED
:1008B000877A07F12009FCEEE77A3C46CDED027A13
:1008C00054F8040F0021C0B202F0DCF9A145F7D1C1
:1008D0000121222002F0D6F90021222002F0D2F9D3
:1008E000DFF8E0819DF90BB000244FF0010A0AFA0D
:1008F00004F158F8040F0BEA0101C9B20134C0B287
:1009000002F0C0F9082CF2D10121222002F0BAF93C
:100910000021222002F0B6F9DFF8A8819DF90AB083
:1009200000244FF0010A0AFA04F158F8040F0BEA08
:100930000101C9B20134C0B202F0A4F9082CF2D10D
:100940000121222002F09EF90021222002F09AF9D2
:10095000DFF870819DF909B000244FF0010A0AFA0E
:1009600004F158F8040F0BEA0101C9B20134C0B216
:1009700002F088F9082CF2D10121222002F082F93C
:100980000021222002F07EF9DFF838819DF908B0BD
:1009900000244FF0010A0AFA04F158F8040F0BEA98
:1009A0000101C9B20134C0B202F06CF9082CF2D1D5
:1009B0000121222002F066F90021222002F062F9D2
:1009C0000121232002F05EF90021232002F05AF9D0
:1009D00057F8040F0021C0B202F054F9B945F7D11D
:1009E000019B83ED008A336879E65A68198EDC6AC8
:1009F000187A891A2144344C11F8017C874280F01E
:100A00004A82C01B2178C7B2B9423FF4F5AE152027
:100A1000002102F037F92D4AD07A00282AD072B688
:100A2000D17AC8070B4609D5DFF8B4E0D368DEF801
:100A300000001840D0610B46CEF80000880706D5AC
:100A4000234913690868034013620B60D37A59077E
:100A500006D5204953690868034053620B60D37A76
:100A60001B0705D51C4993690868034093620B6016
:100A700062B6D07A1368D968B1F1384F0DD0DFF87B
:100A800064E0C3F800E04FF0384EC3F80CE01349BF
:100A90004FF0784EC3F810E019604FF00041D96272
:100AA0005F63D96A0029FCDA4FF00041D3F838E0DF
:100AB000D9625F63D96A0029FCDA7DE6401BFF1F1B
:100AC0005F700942A80AFF1F841BFF1FD00DFF1F84
:100AD00084E100E088E100E08CE100E000003F807C
:100AE00080E100E001403F005A68D86A197A875CCB
:100AF000894C8F4280F05E82C91B2078CFB2B84209
:100B00003FF47AAE1520002102F0BCF8834AD07A77
:100B100000282AD072B6D17AC8070B4609D5DFF86B
:100B200018E2D368DEF800001840D0610B46CEF81A
:100B30000000880706D57A491369086803401362E4
:100B40000B60D37A590706D5764953690868034084
:100B500053620B60D37A1B0705D573499369086804
:100B6000034093620B6062B6D07A1368D968B1F122
:100B7000384F0DD0DFF8C4E1C3F800E04FF0384E35
:100B8000C3F80CE069494FF0784EC3F810E01960E3
:100B90004FF00041D9625F63D96A0029FCDA4FF057
:100BA0000041D3F838E0D9625F63D96A0029FCDAE2
:100BB00002E69A6A584C07EE902AFCEEE77A227811
:100BC000CDED017A9DF80470BA423FF414AE1520C1
:100BD000002102F057F8514AD07A00282AD072B684
:100BE000D37AD807194609D5DFF84CE1D168DEF889
:100BF00000000840D0611946CEF800009B0706D5DA
:100C0000474913690868034013620B60D17A4807AB
:100C100006D5444953690868034053620B60D17A92
:100C20000B0705D5404993690868034093620B6040
:100C300062B6D07A1368D968B1F1384F0DD0DFF8B9
:100C4000FCE0C3F800E04FF0384EC3F80CE0374941
:100C50004FF0784EC3F810E019604FF00041D962B0
:100C60005F63D96A0029FCDA4FF00041D3F838E01D
:100C7000D9625F63D96A0029FCDA9DE5D3F80E20BA
:100C8000596802EB8102D2ED007AF5EEC07AF1EEFE
:100C900010FA3FF6F9AC0FE55A8A5868D3F80E10EF
:100CA000121A01EB820252ED017AF5EEC07AF1EEF2
:100CB00010FA3FF6E9ACFFE40139D3F83A20C3F863
:100CC00036103260AFE55A69002A3FF4F5AC904720
:100CD000B5EEC00AF1EE10FA7FF6EDACDFED147A56
:100CE000B4EEE70AF1EE10FA3FF7E5AC9FED117AAA
:100CF000FEEE007AE0EE077AFCEEE77A17EE902A35
:100D0000232A7FF6D8ACD2E4013AD3F84210C3F8D4
:100D10003E20316087E500BF841BFF1FD00DFF1F01
:100D200084E100E088E100E08CE100E000003F8029
:100D30008988884C0000704280E100E001403F005B
:100D40005F70094207EE900A1FED037A8D4CF8EEB2
:100D5000677A04F1200767EE877AA146FCEEE77A0E
:100D6000CDED037A59F8040F0021C0B201F08AFFDB
:100D70004F45F7D10121222001F084FF00212220DC
:100D800001F080FFDFF8FC919DF90FB04FF0000AF1
:100D9000012303FA0AF159F8040F0BEA01019A44FE
:100DA000C9B2C0B201F06EFFBAF1080FF0D1012153
:100DB000222001F067FF0021222001F063FFDFF80D
:100DC000C4919DF90EB04FF0000A012303FA0AF115
:100DD00059F8040F0BEA01019A44C9B2C0B201F0FC
:100DE00051FFBAF1080FF0D10121222001F04AFF92
:100DF0000021222001F046FFDFF888919DF90DB017
:100E00004FF0000A012303FA0AF159F8040F0BEA24
:100E100001019A44C9B2C0B201F034FFBAF1080F1F
:100E2000F0D10121222001F02DFF0021222001F02C
:100E300029FFDFF850919DF90CB04FF0000A012313
:100E400003FA0AF159F8040F0BEA01019A44C9B2F6
:100E5000C0B201F017FFBAF1080FF0D10121222032
:100E600001F010FF0021222001F00CFF01212320BE
:100E700001F008FF0021232001F004FF54F8040FC3
:100E80000021C0B201F0FEFEA742F7D1019A3368FB
:100E9000C2F8008023E4217800293FF4ADAC15208E
:100EA000002101F0EFFE384AD07A002827D072B630
:100EB000D17ACF070B4606D5344FD368386818402F
:100EC000D0610B463860880706D531491369086838
:100ED000034013620B60D37A590706D52D49536935
:100EE0000868034053620B60D37A1B0705D52A4973
:100EF00093690868034093620B6062B6D07A136806
:100F0000D968B1F1384F09D0244F1F604FF03847EE
:100F1000DF6023494FF078471F6119604FF00047A9
:100F20000021DF625963D96A0029FCDA4FF00047DB
:100F30000021D3F838E0DF625963D96A0029FCDA6E
:100F40009B6BB0B1C70703D5164BD1691960D07A36
:100F5000810703D5144B116A1960D07A430703D572
:100F6000124B516A1960D07A070702D5104B926A6A
:100F70001A600121152001F085FE002233682270DD
:100F80005A6839E4A80AFF1FD00DFF1F80E100E076
:100F900084E100E088E100E08CE100E001403F00F6
:100FA00000003F8000E100E004E100E008E100E033
:100FB0000CE100E0217800293FF41EAC152000214F
:100FC00001F060FE284AD07A002827D072B6D17A84
:100FD000CF070B4606D5254FD36838681840D06137
:100FE0000B463860880706D5214913690868034015
:100FF00013620B60D37A590706D51E4953690868F6
:10100000034053620B60D37A1F0705D51A499369D1
:101010000868034093620B6062B6D07A1368D9689F
:10102000B1F1384F09D0154F1F604FF03847DF60DE
:1010300013494FF078471F6119604FF000470021B6
:10104000DF625963D96A0029FCDA4FF000470021BA
:10105000D3F838E0DF625963D96A0029FCDA6FE718
:1010600033685A68FFF7C8BBD00DFF1F80E100E06E
:1010700084E100E088E100E08CE100E001403F0015
:1010800000003F802DE9F047354D364CDFF8F490F5
:10109000DFF8F4A0344E4FF03508284642460021D0
:1010A00006F024FA0FCCC5F80300C5F80710206835
:1010B0002179C5F80B200B27C5F81300C5F80F30B0
:1010C000E975424600214846A5F80080AF7006F059
:1010D0000DFA264B264C03CB4A46642522F8038B97
:1010E0001B78C9F803001372516050462A4600214C
:1010F00006F0FCF92A4620460021AAF800508AF89A
:10110000027006F0F3F92A46304600212580A770C8
:1011100006F0ECF90C24B77035804FF45E720021B4
:10112000144806F0E3F9013CF7D1134B1349144A74
:10113000196202270626072516201721DF601E6088
:101140000D270B265D600C25986019615F612146B3
:101150009E61DD6114601846BDE8F04701F056B9A4
:10116000481BFF1F0C790000DC1AFF1F24790000C8
:101170003017FF1FC01BFF1F6020FF1F00093D002D
:10118000441BFF1FA41AFF1FFC1FFF1F08B50348C5
:1011900001F0C2F90028FAD008BD00BF6020FF1F8F
:1011A0002DE9F0470746642001F086FD0121222049
:1011B00001F07CFD0021222001F064FD01212320AB
:1011C00001F074FD0021232001F05CFD01212120AC
:1011D00001F06CFD00212120A84E01F053FD06F125
:1011E0002004354655F8040F0121C0B201F05EFD20
:1011F000A542F7D1A14D55F8040F0021C0B201F06E
:1012000041FDA542F7D10021212001F03BFD012144
:10121000212001F037FD642001F04EFD0021212046
:1012200001F030FD0021222001F02CFD01212220BF
:1012300001F028FD0021222001F024FD00212320BF
:1012400001F020FD0121232001F01CFD00212320BD
:1012500001F018FD894D55F8040F0021C0B201F0CE
:1012600011FDA542F7D10121152001F01FFD01213B
:10127000152001F007FD3846FFF704FF804F814B32
:1012800081483522002101F049FB804B7E48352200
:10129000642101F043FB3B78012B6FD00021152026
:1012A00001F0F0FC7A49C87A002827D072B6CA7AD1
:1012B000D507134606D5774DCB6828681840C86116
:1012C00013462860900706D5734A0B6910680340DF
:1012D0000B621360CB7A5A0706D5704A4B691068C7
:1012E00003404B621360CB7A1B0705D56C4A8B69B0
:1012F000106803408B62136062B6C87A0B68DA68C4
:10130000B2F1384F09D0674D1D604FF03845DD60B0
:10131000654A4FF078451D611A604FF00045012283
:10132000DD625A63DA6A002AFCDA4FF000450122D6
:10133000D3F838E0DD625A63DA6A002AFCDA9B6B84
:10134000B0B1C50703D5594BCA691A60C87A82077C
:1013500003D5574B0A6A1A60C87A430703D5554B21
:101360004A6A1A60C87A050702D5534B8A6A1A601E
:101370000121152001F086FC01233B70DFF83C8140
:10138000D8F80030012B70D03C4D55F8040F0021E7
:10139000C0B201F077FCA542F7D10121222001F073
:1013A00071FC0021222001F06DFC344D55F8040F32
:1013B0000021C0B201F066FCA542F7D10121222034
:1013C00001F060FC0021222001F05CFC2B4D55F85F
:1013D000040F0021C0B201F055FCA542F7D1012154
:1013E000222001F04FFC0021222001F04BFC234D74
:1013F00055F8040F0021C0B201F044FCA542F7D11A
:101400000121222001F03EFC0021222001F03AFCC3
:10141000DFF8689000254FF0010A59F8040F0AFA26
:1014200005F1C0B201F02201013501F02BFC082DBD
:10143000F3D10121222001F025FC0021222001F01E
:1014400021FC0121232001F01DFC0021232001F0BB
:1014500019FC0A4D55F8040F0021C0B201F012FC2E
:10146000A542F7D10123C8F800303B78002B40F0AB
:101470009180D8F800301BBBBDE8F087A80AFF1F99
:10148000841BFF1F481BFF1F6020FF1FA41AFF1FA4
:10149000D00DFF1F80E100E084E100E088E100E082
:1014A0008CE100E001403F0000003F8000E100E0EF
:1014B00004E100E008E100E00CE100E0401BFF1F58
:1014C0006D4D55F8040F0021C0B201F0DBFBA542C1
:1014D000F7D10121222001F0D5FB0021222001F0CB
:1014E000D1FB654D55F8040F0021C0B201F0CAFBD5
:1014F000A542F7D10121222001F0C4FB00212220C6
:1015000001F0C0FB5C4D55F8040F0021C0B201F0A2
:10151000B9FBA542F7D10121222001F0B3FB002144
:10152000222001F0AFFB544D55F8040F0021C0B24A
:1015300001F0A8FBA542F7D10121222001F0A2FB76
:101540000021222001F09EFB4B4D55F8040F002195
:10155000C0B201F097FBA542F7D10121222001F092
:1015600091FB0021222001F08DFB0121232001F0BD
:1015700089FB0021232001F085FB56F8040F002190
:10158000C0B201F07FFBA642F7D10023C8F80030BB
:10159000BDE8F0870021152001F074FB3749C87AB7
:1015A000002840D10B68DA68B2F1384F09D0344DC9
:1015B0001D604FF03845DD60324A4FF078451D61BF
:1015C0001A604FF000450022DD625A63DA6A002A91
:1015D000FCDA4FF000450022D3F838E0DD625A63B0
:1015E000DA6A002AFCDA9B6BB0B1C30703D5264B3D
:1015F000CA691A60C87A850703D5244B0A6A1A603B
:10160000C87A420703D5224B4A6A1A60C87A030790
:1016100002D5204B8A6A1A600121152001F032FBA5
:1016200000233B7025E772B6CB7AD8071A4606D559
:10163000194DCA6828681040C8611A4628609D077D
:1016400006D5164A0B69106803400B621360CA7A0C
:10165000500706D5124A4B69106803404B6213606D
:10166000CA7A120705D50F4A8B69106803408B624E
:10167000136062B6C87A95E7A80AFF1FD00DFF1F56
:1016800001403F0000003F8000E100E004E100E095
:1016900008E100E00CE100E080E100E084E100E02E
:1016A00088E100E08CE100E010B5074B1B7813B136
:1016B000064802F047FC064B06486422C821BDE8F4
:1016C000104001F03DB900BF2817FF1F9C1AFF1FF3
:1016D000FC1FFF1F6020FF1F70B50A4C0B784A22C9
:1016E00002FB034406460D462046002105F0FEFE9F
:1016F00033680BB1C3F8464034602B7801332B704C
:1017000070BD00BFC01BFF1F2DE9F04F2DED028BF8
:10171000A54C8BB0E27800238DF8233009930ABBE7
:10172000A24B1B78032B12D00BB0BDEC028BBDE893
:10173000F08F099B5BB19E4A9E491160002283F89D
:10174000462083F8472083F8482083F8492040F258
:1017500057229949994802F0ABFB0BB0BDEC028BC4
:10176000BDE8F08F9548964E964F02F0EBFBA378BC
:10177000A17922793170092B3A702ED90A2BA56AEA
:101780002CD0DFF84482236BDFF86C92626BC8F8D0
:101790000030A36BC9F80020B4F826B0DFF85CA2D3
:1017A00089498A48CAF800304FEA8B0201F0E2F812
:1017B000874AE36AA2F800B0DFF8ECB1002B74D1DD
:1017C0008DB33B780D2B2ED8DFE803F0142D1414C5
:1017D00014CBCBCBCB14141414146589DFF8E88137
:1017E000DFF81492E389A289C8F80020C9F8003014
:1017F000238AD1E70DF1230109A8FFF76DFFD8ED8A
:10180000007A099B7348C3F80A00F8EE677A012151
:1018100017EE902AC3F81920002219705972197610
:101820005A709A70DA7094F808B0BBF1010F56D074
:10183000BBF1020F1CD10DF1230109A8FFF74CFFEA
:10184000099B3178644A65481972C3F80E20492112
:10185000002283F809B083F827B0D8621970997410
:1018600083F830105A709A70DA70DA7483F8312085
:1018700094F805B0BBF1010F00F0C28025B33B78AE
:10188000A26DE16D0D2B00F28384DFE813F04A02B4
:1018900081042002D401810446004600460046002F
:1018A00037012F0481023A0349010DF1230109A8F0
:1018B000FFF712FF099BDBF82C10494A1960012140
:1018C0005972C3F80A207BE7637A013B032B3FF68A
:1018D00030AFDFE813F00501FB00EC00B1000DF1C3
:1018E000230109A8FFF7F8FE099B32783D491A72D7
:1018F000C3F80E103C4ADA6268210022197099740C
:1019000083F8301002215A709A70DA70DA7483F812
:101910003120597283F82710AAE70DF1230809AF87
:1019200041463846FFF7D8FE3049099A30484FF40F
:101930007A7303FB05F3A1FB03132E49C2F80A00D7
:101940005B0913600123537204231376C2F823103A
:10195000637A013B032B00F29280DFE803F0C4BA04
:10196000AB700DF1230109A8FFF7B6FEDDF824B036
:10197000184BCBF80A30012200238BF800208BF89B
:1019800009208BF818208BF801308BF802308BF887
:101990000330FEF7FDFD07EE900AF8EE677A17EECA
:1019A000900ACBF819003EE7FC1FFF1F2817FF1F06
:1019B000441BFF1FC01BFF1F410600009C1AFF1F96
:1019C000CC0AFF1F9A17FF1F881BFF1F941BFF1FC6
:1019D0009817FF1F000020418809FF1FD408FF1F30
:1019E00000007A443407FF1F2009FF1F1F85EB51B9
:1019F0000000C842910500008C1BFF1F901BFF1FB9
:101A00000DF1230109A8FFF767FE099BCC4883F875
:101A100000B0317883F809B007EE901AF8EE677AD3
:101A2000002217EE901A83F827B0C3F80A009962D3
:101A30005A709A70DA7021E70DF1230809AF414618
:101A40003846FFF749FEBF4A099B1278BE48BF4C93
:101A50001A7249210022C3F80E000320DC621970BB
:101A6000997483F830105A709A70DA70DA7483F8C7
:101A70003120587283F82700002D3FF45BAE4146B9
:101A80003846FFF729FE099BAD4CC3F80A400022F7
:101A900000211046C3F81920012298621A705A7268
:101AA0001A7683F8272059709970D97043E60DF1A2
:101AB000230809AF41463846FFF70EFEA14A099BAD
:101AC0001278A348A34C1A726821C3E70DF12308CA
:101AD00009AF41463846FFF7FFFD099B3278B5E76D
:101AE0000DF1230809AF41463846FFF7F5FD099B84
:101AF00032789748974C1A726821ABE70DF12308AA
:101B000009AF41463846FFF7E7FD9349099A9348E4
:101B10004FF47A7303FB05F3A1FB031390490DE720
:101B200094ED187A9FED8F6A8F49DFED907ADFF898
:101B300054A2DFF85492B8EE477AF7EE005AC5EE99
:101B4000876ABF23002205EE905A66EE866AB6EEDB
:101B5000007A26EE877AF8EE655A27EE066A85EE59
:101B6000A68AB2EE047AC7EE066ABCEEC88AB1EC69
:101B7000017A77EE877A581EF4EEE76AF1EE10FAF2
:101B80000BD826EE277A09F80230DFED787A0AEBD7
:101B90008203013283ED007AD2B2C3B2FF2BE6D1C9
:101BA000F5EE407AF1EE10FA08D000210AEB82033C
:101BB00009F80210501C62491960C2B26C4B0093C4
:101BC0000DF1230809AF414638461A70FFF784FD2E
:101BD000009BDDF824B01A7830788BF80800D2B278
:101BE0000221ABF81220ABF83020CBF800208BF8A4
:101BF00009108BF8271038464146CBF80EA0CBF8D9
:101C00002C90FFF769FD009B1A78099B3078C3F888
:101C10003AB018EE10CAD2B20321C3F80EA0C3F82E
:101C20002C90C3F836C018721A605A821A865972FC
:101C300083F827108CE699ED007AD8ED007A464AB1
:101C4000B8EE477AF8EE677A4FF47A73C7EE276AF0
:101C500003FB05F3A2FB03394FEA59190DF12308E1
:101C600009AF16EE900A04F0ABFD41EC100B02F048
:101C7000EBFE07EE909AF8EEE77A8DED000B17EE8B
:101C8000900A04F09DFD9DED000B02460B4651ECC1
:101C9000100B04F013FF41EC100B02F051FE51EC5D
:101CA000100B05F0D9F8334B414618603846FFF762
:101CB00013FD099B2948304AC3F80090012159724D
:101CC0000421C3F80A001976C3F8232040E6D9EDB1
:101CD000007AD8F800202049DFF8B0E04FF47A739A
:101CE00003FB05F3A1FB0339B8EE677A07EE902AF0
:101CF0004FEA5919F8EE677A06EE909A77EE677A0E
:101D0000F8EEE66A0DF1230887EEA67A09AF3846A9
:101D100041468EED007AFFF7DFFC099B0F48174A1A
:101D2000CAE70DF1230809AF41463846FFF7D4FC56
:101D3000099B134A1D6001215972C3F80A2007E666
:101D400000002041841BFF1F8809FF1FD408FF1FCC
:101D50003407FF1F2009FF1F1F85EB510000C842F9
:101D60000905000000007A44D00AFF1F00000000AF
:101D7000BC1BFF1F801BFF1F3105000099040000E2
:101D800000007A449C17FF1F3C1FFF1F381FFF1FD6
:101D9000914238BF1146B5FBF1FA01FB1A539A4242
:101DA000A1EB02010DF1230809AF34BF9B1A0023F8
:101DB0000391384641460293FFF78EFCDDF82490EC
:101DC000A36DC9F800303378C249C9F836A007EED0
:101DD000903AF8EE677A012217EE903AC9F8283067
:101DE000039BC9F80A1089F8092089F82720002BDD
:101DF00000F0EC81B84B9DF8232000934A2101FBB1
:101E00000231002389F83F3089F8403089F84130A9
:101E1000029BC9F83A10012189F83E10002B00F00E
:101E2000CB81931C9E4607930098009B02EB010A0E
:101E30004A2101FB0A0001FB0E314A2303FB02F297
:101E40000492009AC9F842009646049AC9F84610CE
:101E50000EEB020B58461A460021059305F046FB8F
:101E6000DFED9E7A059B0098CBF8469017EE90CA5E
:101E7000DFED9B7ACBF828C05FFA8AFA03FB0AF100
:101E8000CDED057A00EB010A864606911A460499C3
:101E9000059B0398CBF80A304FF001034EF8010080
:101EA0008BF809308BF8273061465046CDF80CC0CE
:101EB00005F01CFB0099CAF83A908E460699CAF8BC
:101EC00046904FF0010389468AF8093002998AF852
:101ED00027304FF001034EF809107E489DF81C1082
:101EE000AAF836304FF0000BBDF80C30CDF824A026
:101EF0008DF82310CAF80A00CAF828B0AAF83830BA
:101F000026E50432914238BF1146B5FBF1F3009348
:101F100001FB13539A42A1EB02010DF1230809AF13
:101F200034BF9B1A00230391384641460293FFF7C2
:101F3000D3FBDDF8249033786A4A89F808304FF0F3
:101F4000000A4FF0490B0223C9F80E200492664A9A
:101F5000C9F82C204146384689F801A089F802A02A
:101F600089F803A089F813A089F831A089F809300D
:101F700089F8273089F800B089F812B089F830B0B4
:101F8000FFF7AAFB099BA16DDFF848E119604FF04C
:101F9000010C4146384683F809C0C3F80AE0FFF750
:101FA0009BFB0999049AC1F80E2003234E4A4B72F9
:101FB00081F82730039B3078CA6281F800B0009A1C
:101FC00081F801A081F802A081F803A081F813A094
:101FD00081F831A081F812B081F830B0C1F8362014
:101FE00008729DF823A0002B40F002813A4B009329
:101FF0004A2000FB0A3C4A46002381F83F3081F822
:10200000403081F84130029BC1F83A20012281F82A
:102010003E20002B00F0E08000980AEB02034FF016
:102020004A0B0AF1020205920BFB030E0BFB0202A4
:102030004FF04A0BC1F842E0C1F8462060465A46CC
:102040000021049305F052FA049B0098039A214959
:10205000DBB20BFB0AFE0BFB03F30493844640F850
:102060000E2086440498CEF80A100CEB000A0023D8
:102070005A464FF0010B1946CEF82830CEF846905C
:102080008EF809B08EF827B05046039305F02EFA6B
:10209000009B1048CDF824A09E46049B8AF809B006
:1020A0009C46029B4EF80C309DF814308DF823307E
:1020B0000021039B8AF827B0CAF83A90CAF84690E4
:1020C000CAF80A00CAF82810AAF836B0AAF83830B8
:1020D0003EE400BF00007A44C01BFF1F0000000068
:1020E00000007A448809FF1FD408FF1F4448D9ED37
:1020F000006A98ED007ADAED007A424A424B4FF4DA
:102100007A7101FB05F1A0FB01194FEA9919F8EE6C
:10211000666AB8EE477AF8EE677A06EE109A77EEBE
:10212000E67AB8EEC66A36EEC77A0DF12308C7EE36
:10213000066A09AF414638464FF0010A4FF0040BDA
:1021400087EE867AC2ED006A83ED007AFFF7C4FA63
:10215000099B2E4A2E49C3F80A10C3F82320C3F85E
:10216000009083F809A083F818B041463846FFF77D
:10217000B3FA099B2649274AC3F8009083F809A0BF
:1021800083F818B0C3F80A10C3F82320FFF7E0BBA8
:10219000637A013B0DF1230809AF032B3FF66FACC7
:1021A00001A252F823F000BFE71A0000D31A000082
:1021B000B51A00003F1A00000099931C4A2000FB4A
:1021C00003100793014602F1010A36E6124B009311
:1021D0009DF82320494614E6009A0AF102034FF0C5
:1021E0004A0E0EFB032E059372460AF101031FE708
:1021F000094B00934A2202FB0A329446FCE600BFD8
:102200001F85EB51381FFF1F9417FF1F9904000013
:102210000000C842D1040000C01BFF1F30B4054BB2
:10222000054A0649802400251C711D60184630BCF3
:1022300004F062BE9C1AFF1F3007FF1F85050000D7
:1022400010B4047F4160022CC26003D05DF8044BDF
:1022500001F040BD83685DF8044B1847F0B4464B6D
:10226000464A986B5C6B01791170454922790A7076
:102270001A6B00790870002A46D05968C9688A42EA
:102280003ED82168CC8B240402F1FF3065D4C0F322
:102290000E00C883C88B80B2C882996B0968C88B4E
:1022A000000452D4C2F30E00C883C88B002480B24D
:1022B00012F1FF32C88218BF01221C63596B2E48ED
:1022C00009680D6800F12C04A54236D00068C46886
:1022D00014F0804F0C680D6815BF248824780235EF
:1022E000013544F000440D604463996B254B097936
:1022F0001970214912B14A6B12791A70F0BC7047FB
:10230000521A1A630122D9E7D86B196805681E4C66
:102310000A63CC62CC682D681C4E24F080440327ED
:10232000B542CC6083F82D701FD1037F4260022B31
:10233000C2601ED0F0BC01F0CDBC016890F82C004A
:10234000CC6840F000404863CFE7CC8BC2F3080074
:1023500004F47E442043C883A7E7CC8BC0F3080075
:1023600004F47E442043C88394E72B461146F0BC16
:1023700018478368F0BC1847D00DFF1F1F8000402E
:102380001C8000401B80004000000FFF4122000025
:1023900090E80C00F0B41C6859682568164F174E79
:1023A00029432160164D17491760D66015611160E9
:1023B000417A154A5C180C3194F82C4053F821509E
:1023C00002EBC40149680D60017A5C1803EB8101DE
:1023D000247ECD6902EBC40149680D60817A5818EA
:1023E00003EB810390F84000596C02EBC002F0BC93
:1023F00053681960704700BF01401F00011000388A
:102400000110007800001F80507A0000012910B5EB
:10241000044676D0022907D10A200D210B220C2375
:1024200020616161A261E3612078002100F03EFC3F
:102430002078002100F026FC2079002100F036FCF5
:102440002079002100F01EFC207A002100F02EFCF3
:10245000207A002100F016FC207B002100F026FCF1
:10246000207B002100F00EFC207C002100F01EFCEF
:10247000207C002100F006FC207D002100F016FCED
:10248000207D002100F0FEFB207E002100F00EFCEC
:10249000207E002100F0F6FB207F002100F006FCEA
:1024A000207F002100F0EEFB2078012100F0FEFBF0
:1024B0002078002100F0E6FB2079012100F0F6FBF6
:1024C0002079002100F0DEFB207C012100F0EEFBF2
:1024D000207C012100F0D6FB207D012100F0E6FBED
:1024E000207D002100F0CEFB207E012100F0DEFBEC
:1024F000207E002100F0C6FB0648BDE81040FFF733
:1025000047BF352034213322322320616161A2612B
:10251000E36189E7D00DFF1F08B5007B00F0B8FB31
:1025200008BD00BF10B501210446007800F0AAFBE9
:10253000207A00F0ADFB0028FAD010BD10B504469B
:102540000021007800F09EFB20790021BDE81040BA
:1025500000F098BB2DE9F04105460F46007C0021B4
:1025600016461C4600F08EFB2879012100F08AFBFC
:10257000D5F820C06648DFF8B4E1002202E0172950
:1025800008D00A4630F8023F9EFBF3F39C4502F167
:102590000101F4D35F4B604853F8228090F80BE0C0
:1025A00048F06052BEF1000F32D072B690F80BC006
:1025B0001CF0010FE64609D0DFF874E1C368DEF8CD
:1025C00000101940C161CEF80010E6461CF0020F61
:1025D0000AD0DFF860C10369DCF8001090F80BE066
:1025E00019400162CCF800101EF0040F0AD0DFF889
:1025F00048C14369DCF8001090F80BE019404162D3
:10260000CCF800101EF0080F77D162B690F80BE0FE
:102610000168D1F80CC094450BD048F0F043DFF8C6
:102620001CC1DFF81C81C1F80080CA600B61C1F8D1
:1026300000C04FF000420223CA624B63CB6A002BFA
:10264000FCDA4FF00042C7F30743D1F838C0CA6242
:102650004B63CB6A002BFCDA4FF00042C7F3072331
:10266000D1F838C0CA624B63CB6A002BFCDAFFB2E8
:102670004FF000438A6BCB624F63CB6A002BFCDACE
:102680008B6B7EB1013E14FA86F6621E4FF0004459
:1026900012F8013FCC624B63CB6A002BFCDA964206
:1026A0008B6BF5D1BEF1000F1DD01EF0010F04D0D1
:1026B0001A4BC26990F80BE01A601EF0020F04D0AA
:1026C000174B026A90F80BE01A601EF0040F04D05A
:1026D000144B426A90F80BE01A601EF0080F02D00B
:1026E000114B826A1A60287C012100F0CBFA28790C
:1026F0000021BDE8F04100F0C5BADFF848E0836989
:10270000DEF8001019408162CEF800107DE700BFAE
:102710002E790000F4790000D00DFF1F00E100E0E9
:1027200004E100E008E100E00CE100E00087930331
:1027300080E100E084E100E088E100E000003F800B
:1027400001403F008CE100E02DE9F04105460F46D5
:10275000007C002116461C4600F094FAD5F820C0F3
:102760006048DFF89CE1002202E0172908D00A4601
:1027700030F8023F9EFBF3F39C4502F10101F4D3D4
:10278000594B5A4853F82280C17A48F0605281B3BD
:1027900072B690F80BC01CF0010FE64609D0DFF8C6
:1027A00064E1C368DEF800101940C161CEF8001082
:1027B000E6461CF0020F0AD0DFF84CC10369DCF8D2
:1027C000001090F80BE019400162CCF800101EF0E8
:1027D000040F0AD0DFF834C14369DCF8001090F828
:1027E0000BE019404162CCF800101EF0080F6ED1CA
:1027F00062B60168D1F80CE096450BD048F0F04382
:10280000DFF80CC1DFF80CE1C1F800C0CA600B6151
:10281000C1F800E04FF000420323CA624B63CB6A69
:10282000002BFCDA4FF00042C7F30743D1F838E041
:10283000CA624B63CB6A002BFCDA4FF00042C7F34D
:102840000723D1F838E0CA624B63CB6A002BFCDA6D
:10285000FFB24FF000438A6BCB624F63CB6A002B11
:10286000FCDA8B6B96B1013E14FA86F6621E4FF0CD
:1028700000470024CF624C63CB6A002BFCDA8B6BE1
:1028800002F8013F964201D00168F3E7C37A174985
:102890001A46B3B1DE0703D5154AC96911601A4655
:1028A0009C0703D5134B016AC27A1960510703D5FF
:1028B000114B416AC27A1960130702D50F4B826A25
:1028C0001A60287C0121BDE8F04100F0DBB9DFF897
:1028D00048E08369DEF8001019408162CEF80010EC
:1028E00086E700BF2E790000F4790000D00DFF1FAD
:1028F00000E100E004E100E008E100E00CE100E0BC
:102900000087930380E100E084E100E088E100E0DB
:1029100001403F0000003F808CE100E0F8B5044634
:102920000D4616461F46FFF7FDFD20463B46324644
:102930002946FFF70FFE2046BDE8F840FFF7FEBD31
:10294000F8B504460D4616461F46FFF7EBFD204638
:102950003B4632462946FFF7F7FE2046BDE8F840E1
:10296000FFF7ECBD014B024A1A6270476020FF1F5F
:1029700000093D00844641EA000313F003036DD1D2
:10298000403A41D351F8043B40F8043B51F8043B32
:1029900040F8043B51F8043B40F8043B51F8043B39
:1029A00040F8043B51F8043B40F8043B51F8043B29
:1029B00040F8043B51F8043B40F8043B51F8043B19
:1029C00040F8043B51F8043B40F8043B51F8043B09
:1029D00040F8043B51F8043B40F8043B51F8043BF9
:1029E00040F8043B51F8043B40F8043B51F8043BE9
:1029F00040F8043B51F8043B40F8043B51F8043BD9
:102A000040F8043B403ABDD2303211D351F8043B78
:102A100040F8043B51F8043B40F8043B51F8043BB8
:102A200040F8043B51F8043B40F8043B103AEDD227
:102A30000C3205D351F8043B40F8043B043AF9D278
:102A4000043208D0D2071CBF11F8013B00F8013B4B
:102A500001D30B8803806046704700BF082A13D358
:102A60008B078DD010F003038AD0C3F10403D21A70
:102A7000DB071CBF11F8013B00F8013B80D331F8A4
:102A8000023B20F8023B7BE7043AD9D3013A11F824
:102A9000013B00F8013BF9D20B7803704B7843708F
:102AA0008B7883706046704708B5104C08E0236847
:102AB00059050DD423681A050FD42368DB0411D4FB
:102AC00023685803F3D500F0A5FA23685905F1D51A
:102AD00001F0AEFB23681A05EFD501F03FFC236837
:102AE000DB04EDD501F0D0FCEAE700BF3480044000
:102AF00008B5FFF7D9FF00BF014B10221A807047BD
:102B000000200540704700BF094908B50B6830B187
:102B10006A461844A2F50052904202D20860184654
:102B200008BD04F0F5F90C2303604FF0FF3008BD39
:102B3000100EFF1F084A1378802B01D00020704729
:102B40000649074B07480860002119701378802B4D
:102B5000FCD00120704700BF03E0074044800440E0
:102B600001E0074000002822094A1378012B01D018
:102B70000020704703F1804303F5FC2360211970A6
:102B80001378802BFCD1034B034A1A600120704755
:102B900003E00740448004400000060210B4114BDB
:102BA00053F8302092F8804234B1012379B182F891
:102BB00080305DF8044B704703EBC0035B681A6814
:102BC00051B922F002021A605DF8044B704782F896
:102BD00000315DF8044B704742F003021A605DF863
:102BE000044B7047507A00001C4A02EBC0030129D5
:102BF0005B6811D004291BD052F83000002280F805
:102C0000802229B1022920D0032922D01A607047DE
:102C10004FF480721A60704752F830004FF4A2727D
:102C200080F880121A601A6822F020021A60704739
:102C300052F830104FF4A272012081F880021A601D
:102C40001A6842F020021A60704740F203121A60BC
:102C500070474FF481721A60704700BF507A0000CD
:102C600030B4054B054D064C002210211A602A6035
:102C70002060196030BC704714D0034004D003407A
:102C800000D003403F2801D8FFF788BF704700BF3E
:102C90003F2806D8044B53F8303093F80002C0B2F6
:102CA00070470020704700BF507A00003F2801D8CD
:102CB000FFF79ABF704700BF2DE9F843054672B68B
:102CC000224F234B234A1B683C68126862B65201AC
:102CD00002D5322B88BF0134B5B3C3F52F3303F2CD
:102CE0001F331D4EDFF86890DFF868809B084FF4B3
:102CF0007A72A6FB031302FB04F404EB930472B68E
:102D0000D9F800103A68D8F800E062B6C1F52F3360
:102D100003F21F339B08A6FB03031EF0806FC4EB76
:102D200093034FF47A7002D0322988BF013200FB3E
:102D30000233B3F57A7F04D3013D05D004F57A74EC
:102D4000DDE701F093F9DAE7BDE8F8838420FF1F9F
:102D500018E000E004ED00E0176CC116F8B54E4B2A
:102D60004E48DFF85CC14E4C4E49DFF858E14E4EFC
:102D70004E4D4F4F4FF000621A604FF080521A6074
:102D80004FF000521A604FF080421A604FF000423C
:102D90001A600022026028234EF6FF70CCF8000073
:102DA000CEF8003023600EF5012E0B6033602B60EF
:102DB00006F500263B6005F50025A36207F5002710
:102DC0008B6204F5012401F5012106F6E87605F68B
:102DD000E87507F57F6710310EF1100E203433606F
:102DE0002B60CEF800303B600B602360314CBB6140
:102DF0008B6109212160A7F5002704F58054203F4D
:102E000008343A602060BB60E36047F8041C04F5B6
:102E1000FD2407F5FE27043704F2FC7422603860B5
:102E2000A360FB6044F8041C083404F6FC74C7F883
:102E3000FC2F2060A4F5E124A4F2DC7433602B6045
:102E4000C7F8F81F21681C4841F40071216001682F
:102E50001A4C0EF57F4E0EF1E80E07F5883706F591
:102E6000803605F5803541F000710160CEF8002014
:102E700047F6FF710822396033602B60226001F051
:102E800057F91920FFF718FF00F02CFE40F213103D
:102E9000BDE8F840FFF710BF04E100E00480034004
:102EA000148003401C800340248003402C80034096
:102EB00034800340008003400480044000900C40B4
:102EC000088003400C80034030B472B62B4A13785C
:102ED0001D0706D52A4B196A002936D0996A0029A0
:102EE00041D053781C0706D5254B196C00293ED0DC
:102EF000996C002939D09378190705D5204B196EA4
:102F0000002936D0996E89B1D3781B0707D51C4BA1
:102F1000D3F880207AB3D3F8882011213AB162B671
:102F2000184B00221A7030BC00F07CBE0D21154CED
:102F3000154D227843F8315003EBC1030830013AB4
:102F40005860227062B630BC704704220D4C0F4DA1
:102F5000217843F8325003EBC20308304A1E586010
:102F6000227062B6EFE70521E1E70921DFE70822D9
:102F7000ECE70C22EAE71022E8E700BF507C0000F3
:102F80000000FF1F5D21FF1FC800400088004000B7
:102F9000431E032B1DD81B4A400140F0100030B4E3
:102FA000104472B6184CE25C032A1BD8DFE802F02A
:102FB0000212151703220D88E25410F0080F14BFF7
:102FC000C823882343EA054308310360416062B6A1
:102FD00030BC704708300222EDE70522EBE70830ED
:102FE0000422E8E7094A52F8230038B1084A52F8A7
:102FF0002300416042F8231062B6E9E742F823104B
:10300000034AF7E70000FF1F6C21FF1F3421FF1F59
:103010004421FF1F2DE9F04FDFF80CB3DFF80CA3BC
:1030200087B044E0AB4F4FEA930807EBC809013E75
:10303000D9F8042003F00803F6B2A2F1080003F067
:10304000FF04002B40F0028157F838301B0C99B276
:1030500022F8081C002B00F0F0809F4B22F8064C51
:1030600042F8044C53F82620002A00F0C5829B4DFC
:1030700055F8263058609A4C45F8260034F816303A
:10308000194424F8161000F0ADFD002800F0AD82C0
:10309000944A954B19F0080F00F1080018BF134629
:1030A000C9F8040047F8383008238BF800309BF843
:1030B0000040E4B261071AD58C4B1B78A3B18C4950
:1030C0000A7802F0FF0322B1013BDBB20B7003B9B7
:1030D00000BE88490A7802F0FF032AB1013BDBB247
:1030E0000B70002B00F0578204238BF8003004F0A3
:1030F000080303F0FF02002B00F0CC809AF80030A8
:10310000DBB21E098ED19C08DFF8C89159F8342033
:1031100009EBC401C2F38302013A49680C2A00F2A8
:103120008880DFE802F07C7C8686868686864786F5
:10313000868607000868704D4A68704F704E286098
:1031400081B240F28160674B6A604FF0010E00224D
:10315000814249F834303A60C9F81020C9F8182083
:1031600086F800E05B4C00F2E380B1F5D06F80F0B0
:103170004683B1F5817F00F0FC8200F28D828029C8
:1031800000F07783822940F0FA82A98801F07F015C
:10319000042900F2F4825B485B4C890008442270E9
:1031A00062700278930740F1588484F800E04FF091
:1031B000020E42E3514F3A6832B3544B504E5449D9
:1031C000188834780D784028864645F0020828BFD4
:1031D0004FF0400E002C84F001043470CEEB000060
:1031E0000CBF8824C82409EBC80680B285F001050D
:1031F00044EA0E447260188049F8384072440D70F9
:10320000002800F045813A603B4B1A88B2F5A06F68
:103210000FD100219A7859703E4B1A7009E0364A56
:10322000108842F22102904200F037812D4A49F87D
:103230003420394A0123137036E72A4A2A4B19F001
:10324000080F18BF134647F838302DE700F0EAFCA6
:10325000324A334952F82630002B00F0D1815868A9
:103260008C5D42F8260003F10802C9F80420032C03
:1032700005D8DFE804F02C02292602228A551A8894
:1032800019F0080F0CBF8823C82343EA024347F80C
:10329000383009E7E00700F18181210600F1F28171
:1032A000A20706D51F4A204913780220DBB213700B
:1032B0000870E30602D51C4B10221A7007B0BDE857
:1032C000F08F04228A55DAE705228A55D7E70322D0
:1032D0008A55D4E70000FF1FE020FF1F8C20FF1F4E
:1032E000D824FF1FC8004000880040006821FF1F4D
:1032F000F120FF1F7021FF1F5421FF1F8820FF1F97
:10330000F020FF1FC02007406021FF1F9C20FF1FEF
:103310005C21FF1F98200740942007403421FF1FA5
:103320006C21FF1F88200740802007409020074025
:1033300042F22100814200F02A8100F2D880B1F5EA
:10334000086F00F07682B1F5106F40F01882226AA3
:10335000B349A8780870120600F13A83D9F82820FA
:10336000B049130600F10C83D9F83020AD49150699
:1033700000F10183D9F83820AA49140600F1F68239
:10338000D9F84020A749100600F14A83D9F848200F
:10339000A449120600F13F83D9F85020A149130631
:1033A00000F13483D9F858209E49150600F129838D
:1033B000D9F860209B49140600F11E83D9F86820D3
:1033C0009849100600F11383D9F870209549120628
:1033D00000F10883D9F878209249130600F1FD82A4
:1033E000D9F880208F49150600F13183D9F888205B
:1033F0008C49140600F12583D9F8902089491006DC
:1034000000F11983D9F898208649120600F10D833E
:103410008548864A864901908648874D874C04979F
:1034200000230596029580460F4616461D460394D6
:10343000306828B1446800F0F5FB2046002CF9D133
:1034400000233360029B38681A46002342F8253077
:1034500028B1446800F0E6FB2046002CF9D1002298
:103460003A60019A98F800301146002241F8042B86
:10347000039A0191023B4FF0000122F81510032B33
:1034800000F22B81DFE813F07001250170012501A6
:10349000BEF1400F18BF0022B5E6694A0D784878A2
:1034A000157050708D78C8789570D07010680D794F
:1034B000157186284D7989795571917100F09B813C
:1034C0006049614E0A78307882F00105002842F0A8
:1034D00002020D700CBF8821C82149F8321009EB97
:1034E000C20280F001000021307051609EE642F27D
:1034F0002120814240F0CB81544B554C5549A8784E
:103500001D682560CDF804E0087000200290804618
:10351000844604464B490D7845F0020E09EBCE0374
:103520000393019B002B039B5C600CBF8824C82481
:1035300044EA080385F0010449F83E3032700C700B
:10354000DFF8E0E0404BDFF8FC80002840F01E810F
:10355000BCF1400F1BD144F0020C09EBCC03029CE0
:10356000DFF8C0E05C60002A40F02681020442F0EF
:1035700088029DF804304EF83C20044433700D70EE
:103580002346402803D10020334A3B601080334A51
:10359000012313704DE600F079FBA5E5214B2F4880
:1035A00028491A614FF0020E80F800E02C4F0A7093
:1035B0002C49196099602C4E2C4D2D4C9A610D218F
:1035C0003970FF213170DFF8B8E029702270294D81
:1035D000294A8EF800109F27012406F8047C5D60BC
:1035E0000470DA6007B0BDE8F08F244A47F838006D
:1035F00013780133137057E543F826000E4D3AE572
:103600008B5D032B00F2F08001A252F823F000BF83
:10361000A9300000A9300000CD360000C7360000F8
:103620006821FF1F0000FF1F4421FF1FE020FF1F34
:103630003421FF1F6C21FF1F8C20FF1FD824FF1F88
:10364000E024FF1F5C21FF1FF020FF1F8420FF1FCD
:10365000E824FF1F7C21FF1F9C20FF1F94200740B0
:10366000C020074088004000882007408020074095
:1036700098200740A020FF1FF420FF1F5D21FF1F9F
:103680008C200740C149C24B80220D2008701A705F
:10369000A2077FF50EAE05E640F20232914240F0FD
:1036A000EE80A98801F07F01042968D86A88002A81
:1036B00065D1B648CDF804E089000844017841F0AE
:1036C0000201017021E701238B55EDE400238B55A6
:1036D000EAE44FF0010388F800300135042D06F1CB
:1036E000040607F1040708F101087FF4A1AEA94C14
:1036F000A94B2278A94D049F059E002129701A70BC
:10370000130700F105816278A549DFF8A0820A70ED
:1037100010074FF00001C9F83010C9F8381000F157
:10372000E080A049A2780A700021C9F85010C9F8B9
:1037300058101107DFF8748200F10181E2789A498C
:103740009A4C0A7000211207C9F87010C9F8781055
:1037500000F1B08033780193002183F00102C9F8B1
:103760009010C9F89810D0E64FF0000388F80030A8
:10377000B3E7A98801F07F01042940F28D80834AD4
:103780000F2313708A4A0123137052E540287FF6F5
:10379000E2AE44F002040EEBC401029E4E60BAB1E8
:1037A0009DF80410834A19703346403888F8005059
:1037B00040334EF83420E7E69DF8043033700204BD
:1037C000029B0D7042F0C80203444EF83C20D8E63C
:1037D0009DF804101970029B774A88F80050403811
:1037E00040334EF83420CFE619F0080F0CBF022307
:1037F00003238B5558E4714A0F21117060E6704A1B
:103800005468002CBBD06888B5F804E003E00C32A3
:103810005468002CB3D013888342F8D15388734581
:10382000F5D1000A03280CBF94F800E0B2F808E0D4
:1038300003E0644A644C12782270E888704580F096
:103840003F8162490D784028844645F0020E28BF2A
:103850004FF0400C04EB0C0309EBCE020293012362
:103860005460CCEB00004FEA0C4800220193C824BE
:103870005EE6554C4FF0020E22706270DDE7B1F546
:10388000A06F7FF47CAF0123002201933DE642F25A
:1038900021329142F7D072E76A88002A7FF46FAF35
:1038A0003A48CDF804E089000844017821F002018B
:1038B00001702AE600F096F9002800F0EF80083049
:1038C0003D4AC4F88400C4F8802000F08BF9002839
:1038D00000F0DE800830374AC9F88C00C9F888202B
:1038E00038E700F07FF9002800F0C0800830324A45
:1038F000C8F84400C8F8402000F074F9002800F02F
:10390000AF8008302B4AC9F84C00C9F8482008E7B6
:1039100000F068F9002800F0CD800830264AC9F888
:103920002400C9F8202000F05DF9002800F0BC80D8
:103930000830204AC9F82C00C9F82820E3E600F036
:1039400051F9002800F09E8008301B4AC8F8640036
:10395000C8F8602000F046F9002800F08D8008309B
:10396000144AC9F86C00C9F86820E7E6C86B083843
:1039700000F058F904E5486B083800F053F9F9E411
:10398000C86A083800F04EF9EEE400BFC0200740D6
:1039900080200740507C0000C42007405D21FF1FAD
:1039A000C8200740CC200740D02007400000FF1F60
:1039B00094200740C800400088004000F120FF1F0D
:1039C000547C00006821FF1F6021FF1F5C21FF1F46
:1039D000606A083800F026F9C0E4C86F083800F0C3
:1039E00021F9FDE4486F083800F01CF9F2E4C86ED4
:1039F000083800F017F9E7E4486E083800F012F9CB
:103A0000DCE4C86D083800F00DF9D1E4486D0838E1
:103A100000F008F9C6E4C86C083800F003F9BBE40C
:103A2000486C083800F0FEF8B0E4D1F89C00083883
:103A300000F0F8F8ECE4D1F89400083800F0F2F85F
:103A4000E0E4D1F88C00083800F0ECF8D4E4D1F8C8
:103A50008400083800F0E6F8C8E44FF0020EECE607
:103A60002A78C9F8480001322A705AE62A78C8F83C
:103A7000400001322A703FE72A78C9F86800013215
:103A80002A705BE62A78C8F8600001322A7061E784
:103A90002A78C9F8880001322A705BE62A78C4F8CF
:103AA000800001322A7010E72A78C9F82800013214
:103AB0002A7028E62A78C9F8200001322A7032E7F5
:103AC000BEF1400FF44628BF4FF0400C04EB0C034E
:103AD00002930123CCEB0E004FEA0C480022019325
:103AE00018E500BF2DE9F04100F0B4FE314C324B37
:103AF0003248DFF8E480324EDFF8E0C0314F324D1B
:103B0000DFF8DCE000221A605A609A60DA601A611D
:103B10005A619A61DA611A625A629A62DA621A63C7
:103B20005A639A63DA631A645A649A64DA641A65A7
:103B30005A659A65DA651A665A669A66DA661A6787
:103B40005A679A67DA67C3F880202168C3F884202F
:103B500041F480212160016841F04071016003213E
:103B600088F80010A020C3F307218CF8000004F5AA
:103B700028343170C3F30740144938701B0E2B7082
:103B8000CC34FF238EF80030114D0CF8B83C1148AE
:103B90000B70012306F8083C227070264FF40014C5
:103BA000102207F82C3C2E70046081F8F820BDE844
:103BB000F08100BF348004400000FF1F00D80040A7
:103BC0009C200740B0200740B42007401020074049
:103BD00035E400E004E100E04421074040210740D3
:103BE0008020074072B60D480268B2FA82F30B2BB0
:103BF00010DC4FF00041D94022EA0102026062B6B7
:103C0000074803EBC303DB00C2180021C150104674
:103C10005160704762B60020704700BF140EFF1F4E
:103C2000D003FF1F0D4B0E4AC31AA2FB03231B092F
:103C30000B2B0CD80B4A127852B972B60A484FF0C7
:103C40000041026821FA03F31A43026062B670472A
:103C5000064A1278002AF0D0FFF736B9D003FF1FCA
:103C6000398EE3385D21FF1F140EFF1F6821FF1FEF
:103C7000044B054A1B6890881BB11A885B88D31ACD
:103C8000184470477821FF1FD824FF1F38B50E4B0A
:103C90001B7873B90D4C216861B103F0FF054B88A7
:103CA0000B800420FFF774F9256038BD084B012212
:103CB0001A7038BDFFF796FF0028F7D00146BDE81F
:103CC00038400420FFF764B97121FF1F7421FF1FE2
:103CD0007021FF1F10B4EFF3108272B6437F33B927
:103CE000017F012908D0032910D00123437702B9AD
:103CF00062B65DF8044B7047114C2168A1B11149BF
:103D000043610B68836108605861EEE70E4C2168DF
:103D100081B10E4943610B688361086058610C4BA7
:103D20004FF080511960E0E7064B416181612060EE
:103D30001860DAE7054B4161816120601860EEE7A9
:103D40009021FF1F8C21FF1F8021FF1F8421FF1F57
:103D500004ED00E070B5EFF3108272B60C4C2068F1
:103D600080B10C4E00254369236073B19D6102B997
:103D700062B6457783689847EFF3108272B6206881
:103D80000028F0D102B962B670BD3360EFE700BF22
:103D90008021FF1F8421FF1FFFF7DCBF184A30B4CA
:103DA0001468002C27D0036821688B420ED2CB1AEE
:103DB00000218460C1602360E0601060022303750D
:103DC00030BC704711688B42144608D3A2685B1A56
:103DD0000360002AF6D18260C460A060EEE7D2687A
:103DE000C2608460E060C568CB1A0222A8602360CC
:103DF000027530BC70478460C4601060DEE700BFAD
:103E00008821FF1FF8B5224E34682CB32368002B9D
:103E10003AD1204F1D4604E03468ECB12368002BF2
:103E200032D1A36803B1DD60206933600368257572
:103E30001B68BB4221D1037F4560022BC46020D0A8
:103E4000FFF748FF6368002BE6D023602046FFF7AA
:103E5000A5FF3468002CE1D1EFF3108372B60E4A4F
:103E600000211068116003B962B628B18468FFF7B9
:103E700095FF20460028F9D1F8BD22460021984739
:103E8000E0E783689847DDE7013B2360E4E700BF94
:103E90008821FF1F412200009821FF1F024A13685A
:103EA00001331360FFF7AEBF8420FF1F704700BFD0
:103EB0000368F0B4FBB1002501249D60DC601B4C5D
:103EC0001A601C44241104F130056A110326920083
:103ED0009E60174F0679174B47F8241002F1604295
:103EE00002F5614205F01F05012000FA05F5E654D0
:103EF0001560F0BC7047104C236843F40003236046
:103F000000BF0E4B0E4DA4F58734A4F59E74012618
:103F10001E60234604609C68002CD0D01033AB4256
:103F20000360F8D1002303601846E2E7008FFCBF6E
:103F3000180EFF1F30E400E03C8004400070034096
:103F4000407103400168A9B10B4BF0B40B441B1145
:103F50000A4E0B4F0B4D46F8237003F1300202F06E
:103F60001F0401235211A340002445F822308C6025
:103F70000460F0BC704700BF008FFCBF180EFF1F2D
:103F8000AD3E000080E100E0024A034B01211160D8
:103F90001B6818470C710340180EFF1F024A034BA1
:103FA000012111605B6818471C710340180EFF1F48
:103FB000024A034B012111609B6818472C71034092
:103FC000180EFF1F024A034B01211160DB681847DE
:103FD0003C710340180EFF1F08B5FCF747FAFCF7C9
:103FE0004BFA00F043F8FAE7F0B5164D2A680AB329
:103FF0001549164BDFF85CE082FB016781FB021478
:10400000D617D1191444C6EB2141C6EB244403FB57
:1040100004F40EFB112244F2A71303FB0243002B0E
:1040200002DA03F10043013BB3FBF0F22B6000FB2B
:104030001230F0BD064B2B60B3FBF0F200FB1230E8
:10404000F0BD00BF9C21FF1F5F0B4E83ECF4FFFF10
:1040500042CE0C1F1DF30100884206DA10B504465B
:10406000081AFFF7C1FF204410BD704738B52C4C2B
:10407000237803B138BD01232370FFF7F9FD002831
:1040800042D100F0C5F800283BD100F057F90028D4
:1040900034D100F0E9F970BB00F062FA40BB00F0E7
:1040A000DBFA10BB00F054FBE0B900232370EFF300
:1040B0000583002BDED1EFF3108172B6194B18681F
:1040C00028B3194C227812BB45691D600123237067
:1040D0000DB3AA6101B962B6002545778368984798
:1040E0002570C7E700F002FCDFE700F0FDFBD9E731
:1040F00000F0F8FBD3E700F0F3FBCDE700F0EEFBB8
:10410000C7E700F0E9FBC0E700F0F2FBB9E70029E0
:10411000B0D162B638BD054B1D600029DCD1DAE7AD
:10412000A021FF1F9021FF1F9421FF1F8C21FF1F43
:1041300030B42948294A2A4B2A4D6024E1210470D1
:1041400011701B78284C082B30D00A2B274828499F
:1041500037D00C2B0CBF35225D2212232A6023603E
:1041600002600B60234B24491B78244ABBB1012316
:104170000B601360224B23491B78234A012B26D95D
:10418000042B0FD9082B1ED9102B94BF862387230D
:104190000B6013601D4B01221A7030BC70470B601E
:1041A0001360E7E784230B601360F3E700F58E20CC
:1041B0000F490830212213232A60236002600B601C
:1041C000D0E73922F7E785230B601360E2E780230D
:1041D0000B601360DEE700BF00400740014007406E
:1041E000280EFF1F08B003400CB0034008B00B407E
:1041F0000CB00B40A221FF1F20B0034020B00B40A9
:10420000290EFF1F24B0034024B00B40A121FF1F43
:10421000054A064B10781B78C0B2DBB2984238BF13
:104220004030C01A704700BFA821FF1FA921FF1FFF
:10423000F0B4384B1A7912F0300F2CD072B6997D49
:1042400001F0FF0200293DD062B6334F3349387880
:104250000D78334E1C46C0B2EDB2431C402BE179C1
:1042600028BF0023AB4202F1FF32C9B21CBFF15498
:10427000184612F0FF02F0D12A4B1B68C2B23A7006
:104280004BB1A84236BFC5F14005401B4019272855
:10429000C4BF01221A701F49CA78D2B2150616D4BB
:1042A00052060DD51B4B1B795B0609D51E4B1F49CA
:1042B0001B6800220A7003B11A70164B3C22DA7098
:1042C000F0BC70474022D9795A7462B6E3E70B79A3
:1042D0001C06E5D5164B174E1C783378E4B2DBB2DA
:1042E0009C420ED0144D01E0A3420AD00133402B72
:1042F00028BF00230879E85CC0B2C871087D072890
:10430000F2D9DBB2034933700B79180644BF7C2322
:10431000CB70C5E700A00640A821FF1FA921FF1F01
:10432000EC21FF1FA421FF1F3022FF1F2C22FF1FA3
:104330003422FF1F2D22FF1FAC21FF1F054A064B11
:1043400010781B78C0B2DBB2984238BF4030C01A38
:10435000704700BFA822FF1F3D22FF1FF0B4384B5B
:104360001A7912F0300F2CD072B6997D01F0FF024D
:1043700000293DD062B6334F334938780D78334E3B
:104380001C46C0B2EDB2431C402BE17928BF00238C
:10439000AB4202F1FF32C9B21CBFF154184612F011
:1043A000FF02F0D12A4B1B68C2B23A704BB1A8424F
:1043B00036BFC5F14005401B40192728C4BF012264
:1043C0001A701F49CA78D2B2150616D452060DD5F6
:1043D0001B4B1B795B0609D51E4B1F491B6800222E
:1043E0000A7003B11A70164B3C22DA70F0BC7047A9
:1043F0004022D9795A7462B6E3E70B791C06E5D5F9
:10440000164B174E1C783378E4B2DBB29C420ED0C8
:10441000144D01E0A3420AD00133282B28BF00230A
:104420000879E85CC0B2C871087D0728F2D9DBB210
:10443000034933700B79180644BF7C23CB70C5E762
:1044400000B00640A822FF1F3D22FF1F6822FF1F69
:104450003822FF1FAC22FF1F3C22FF1FB022FF1F8C
:10446000A922FF1F4022FF1F054A064B10781B7828
:10447000C0B2DBB2984238BF4030C01A704700BFAC
:10448000B822FF1FB922FF1F30B42B4B1A799406B4
:104490001FD52A48DA790378294901333F2B097857
:1044A000C8BF00238B42D2B203D0264CD9B2E2540B
:1044B0000170254A116861B1244A1278D2B2934240
:1044C00036BFC2F140029B1A9B18272BC4BF0123A1
:1044D0000B70194AD378DBB2180611D45A060DD5E1
:1044E000154B1B795B0609D5194B1A491B6800222D
:1044F0000A7003B11A70104B2C22DA7030BC70476E
:1045000011790906EAD5144910480C780178C9B226
:104510008C420DD04A1C272A84BF00210A460F4D29
:10452000054C98BFD1B2AA5CD2B2E2710170D5E756
:104530006C21D170D2E700BF00C00640B822FF1F37
:10454000B922FF1FE422FF1FB422FF1F2523FF1FF4
:104550002823FF1F2423FF1F2C23FF1FBC22FF1F24
:10456000054A064B10781B78C0B2DBB2984238BFC0
:104570004030C01A704700BF3423FF1F3523FF1F90
:1045800030B42B4B1A7994061FD52A48DA79037870
:10459000294901333F2B0978C8BF00238B42D2B28F
:1045A00003D0264CD9B2E2540170254A116861B19A
:1045B000244A1278D2B2934236BFC2F140029B1A0B
:1045C0009B18272BC4BF01230B70194AD378DBB289
:1045D000180611D45A060DD5154B1B795B0609D563
:1045E000194B1A491B6800220A7003B11A70104B4C
:1045F0002C22DA7030BC704711790906EAD51449CB
:1046000010480C780178C9B28C420DD04A1C272A78
:1046100084BF00210A460F4D054C98BFD1B2AA5C59
:10462000D2B2E2710170D5E76C21D170D2E700BF40
:1046300000D006403423FF1F3523FF1F6023FF1FD8
:104640003023FF1FA123FF1FA423FF1FA023FF1F51
:10465000A823FF1F3823FF1F054A064B10781B783D
:10466000C0B2DBB2984238BF4030C01A704700BFBA
:10467000B023FF1FB123FF1F30B42B4B1A799406D0
:104680001FD52A48DA790378294901333F2B097865
:10469000C8BF00238B42D2B203D0264CD9B2E25419
:1046A0000170254A116861B1244A1278D2B293424E
:1046B00036BFC2F140029B1A9B18272BC4BF0123AF
:1046C0000B70194AD378DBB2180611D45A060DD5EF
:1046D000154B1B795B0609D5194B1A491B6800223B
:1046E0000A7003B11A70104B2C22DA7030BC70477C
:1046F00011790906EAD5144910480C780178C9B235
:104700008C420DD04A1C272A84BF00210A460F4D37
:10471000054C98BFD1B2AA5CD2B2E2710170D5E764
:104720006C21D170D2E700BF00A00E40B023FF1F64
:10473000B123FF1FDC23FF1FAC23FF1F1D24FF1F1E
:104740002024FF1F1C24FF1F2424FF1FB423FF1F4E
:10475000054A064B10781B78C0B2DBB2984238BFCE
:104760004030C01A704700BF2C24FF1F2D24FF1FAC
:1047700030B42C4B5A6894021FD52B48DA68037862
:104780002A4901333F2B0978C8BF00238B4204D04C
:10479000274CD2B2D9B2E2540170264A116861B1F5
:1047A000254A1278D2B2934236BFC2F140029B1A18
:1047B0009B18272BC4BF01230B701A4A9368180259
:1047C00002D55268110211D45A020DD5154B5B68FF
:1047D0005B0209D5194B1A491B6800220A7003B104
:1047E0001A70184B00221A6030BC7047164A1249E2
:1047F00010780A78D2B290420DD00132272A84BFB5
:1048000000200246114D074C98BFD0B2AA5CD2B22C
:10481000E2600870D8E70E480A4A002401210460CB
:104820001160D1E700400C402C24FF1F2D24FF1FF6
:104830005824FF1F2824FF1F9924FF1F9C24FF1FBB
:104840009824FF1F58018843A024FF1F3024FF1F16
:104850005C01884310B584B072B6FEF76BF9184A54
:10486000184B19491160702280211A701A4619706C
:1048700013781B06FCD5154B1C68FEF775F962B65C
:10488000134B9C429CBF04EB840464002046114CF3
:1048900001A90A2200F02EF801A92046002311F8F0
:1048A000012B01333AB10A2B20F8022FF7D116233E
:1048B000237004B010BD5B00DBB2237004B010BDE8
:1048C0000400024000000240000007410C000240CA
:1048D0007F969800B80EFF1F704700BF704700BF5B
:1048E000704700BF704700BF704700BF704700BFF0
:1048F000704700BFF0B44D1E2E46002400E0013486
:10490000B0FBF2F302FB1300092800F130078ABF65
:104910003730F8B2C0B206F8010F1846002BEED1BE
:104920000A1953704CB1107815F8016F28700133D3
:10493000E01A834202F80169F5DB0846F0BC7047D3
:10494000F0B52DED048BB0EE409AF0EE609A3A4C43
:104950008BB000F09DFA94F90030B0EE408AF0EE92
:10496000608A013338D0B0EE490AF0EE690A01F0EE
:1049700087FC88B32CA3D3E9002351EC190B02F078
:1049800003FA054680BB2AA3D3E9002351EC190B97
:1049900002F0DCF900B394F90030284A08950026AB
:1049A00000270421022B8DED049B8DED029BCDE9A8
:1049B00006678DE8060030D0684601F069FC60B3F8
:1049C000089B1BB102F0A4FA089B03609DED060B47
:1049D0000BB0BDEC048BF0BDB0EE480AF0EE680AF7
:1049E0000BB0BDEC048BF0BD144A94F90030019279
:1049F000032100228DED049B8DED029B0091089216
:104A00002BB90F4B4FF06042CDE90623D4E70D4997
:104A10000020022BCDE90601CED102F079FA222343
:104A20000360CDE7AFF30080EF39FAFE422E8640F7
:104A300051302DD5104987C0CE0EFF1FA87C000035
:104A4000FFFFEF470000F07F2DE9F0432DED028BD3
:104A50008BB055EC104B00F0AFFB3A4BB0EE408AF8
:104A6000F0EE608A93F90060731C0DD022462B464D
:104A70002046294602F092F930B900220023204650
:104A8000294602F081F940B1B0EE480AF0EE680A1A
:104A90000BB0BDEC028BBDE8F0832B4B0890CDE949
:104AA0000245CDE904450193DEB9284F4FF0604639
:104AB0002046294600220023CDE9066702F03CF992
:104AC000002837D002230093684601F0E1FBC8B10B
:104AD000089BE3B99DED060B0BB0BDEC028BBDE866
:104AE000F083DFF870904FF000082046294600223E
:104AF0000023CDE9068902F01FF968B102239E4226
:104B00000093E1D102F004FA22230360E0E702F00F
:104B1000FFF9089B0360DDE70123022E00930BD110
:104B200002F0F6F921230360094801F0B5FB8DED91
:104B3000060BCDE701230093684601F0A9FB00288E
:104B4000F2D1EDE7CE0EFF1FAC7C0000FFFFEFC7F8
:104B5000207900000000F0FF2DE9F04F2DED028BD1
:104B6000DFF824A38BB057EC106B55EC114B00F021
:104B700027FD9AF90080B0EE408AF0EE608AB8F125
:104B8000FF3F48D022462B462046294602F006F930
:104B9000834600283FD132463B463046394602F034
:104BA000FDF88146002840F09080304639460022CA
:104BB000002302F0C1F8002836D00022002320464E
:104BC000294602F0B9F88346B8B19FEDA57B0122D2
:104BD000A94BCDF820900092CDE90267CDE90445BC
:104BE0008DED067B0193B8F1000F5BD09FED9E0B1E
:104BF0000BB0BDEC028BBDE8F08F45EC104B01F023
:104C00003FFB40B1002200232046294602F09EF8D7
:104C1000002840F0C580B0EE480AF0EE680A0BB0FC
:104C2000BDEC028BBDE8F08FB0EE480AF0EE680AEA
:104C300001F026FB8046002861D04FF000084FF0BD
:104C4000000951EC180B42464B4602F075F800285B
:104C5000E1D047EC106B01F013FB0028DBD045ECF2
:104C6000104B01F00DFB0028D5D09AF90030824A94
:104C7000019204210022022BCDE90267CDE904450F
:104C8000CDE906890091089203D0684601F000FB47
:104C900070B902F03DF92223036009E09FED707BBB
:104CA0008DED067B684601F0F3FA002800F08E8057
:104CB000089B1BB102F02CF9089B03609DED060BCD
:104CC0000BB0BDEC028BBDE8F08F00220023204624
:104CD000294602F031F800289DD09FED630B664B0A
:104CE000CDF820B00122B8F1020FCDE90267CDE97D
:104CF00004458DED060B8DE80C00D3D18FE747EC12
:104D0000106B01F0BDFA002897D045EC104B01F074
:104D1000B7FA002891D053EC182B18EE100A194658
:104D200002F03CF800287CD103239AF9008000931C
:104D3000514B0890CDE90267CDE904450193B8F1E4
:104D4000000F48D1DFF844914FF060480022002363
:104D500030463946CDE9068901F0F8FF002894D0A5
:104D60000022464B2046294601F07EFD04460D46B2
:104D700045EC104B01F098FA204653EC102B2946D5
:104D800001F0DAFF002849D13D4B9AF900804FF03D
:104D90006042CDE90623B8F1020F7FF476AF78E7E1
:104DA000354A9AF90030CDF820B00121CDE90267EB
:104DB000CDE904458DE80600002B3FF46FAF314983
:104DC0000020022BCDE906017FF46CAF02F0A0F8C1
:104DD000212303606CE79FED267B002200233046F1
:104DE00039468DED067B01F0B1FF0028D3D00022BB
:104DF000224B2046294601F037FD04460D4645EC7E
:104E0000104B01F051FA204653EC102B294601F0CB
:104E100093FF18B91B4B0022CDE906239AF90080B5
:104E2000B9E7154B9AF90090CDF820800122CDE921
:104E30000267CDE904458DE80C00B9F1000F3FF49D
:104E40002DAF002200231046194601F037FEB9F1BC
:104E5000020FCDE90601B9D024E700BFAFF300800F
:104E60000000000000000000000000000000F03F13
:104E7000000000000000F07FB07C00000000E03F78
:104E8000FFFFEFC70000F0FFCE0EFF1FFFFFEF4751
:104E90002DE9F04F55EC104BBD4925F000428A42F8
:104EA00083B04FEAD5770DD9BA498A422AD9C5F3DA
:104EB0001303234340F0FA800FB19FED9D0B03B025
:104EC000BDE8F08FB44B9A4200F2D580B34B9A42C2
:104ED00000F2EA8098A3D3E9002310EE100A2946D5
:104EE00001F010FB0022AE4B01F04EFF002800F055
:104EF0001C81204629460022A94B01F003FB41EC0E
:104F0000100BDCE78EA3D3E9002310EE100A29462C
:104F100001F03AFF002840F0D3808BA3D3E90023AF
:104F20002046294601F012FF0028C6D19D4E88A3D5
:104F3000D3E9002306EBC7062046294601F094FC7E
:104F4000D6E9002301F0DEFA01F03EFF064601F04B
:104F500025FC81A3D3E900238046894601F084FC27
:104F600002460B462046294601F0CAFA7CA3D3E943
:104F70000023CDE900014046494601F075FC824618
:104F80008B4652465B46DDE9000101F0B9FA044662
:104F90000D4622462B462046294601F065FC72A3A9
:104FA000D3E900238046894601F05EFC70A3D3E973
:104FB000002301F0A5FA42464B4601F055FC6EA3D2
:104FC000D3E9002301F09EFA42464B4601F04CFC27
:104FD0006BA3D3E9002301F093FA42464B4601F05C
:104FE00043FC69A3D3E9002301F08CFA42464B4607
:104FF00001F03AFC02460B462046294601F080FAB1
:1050000080468946002E65D02046294642464B46BA
:1050100001F02AFC424604460D464B4600204FF064
:10502000804101F06DFA02460B462046294601F008
:1050300045FD02460B465046594601F061FADDE94E
:10504000002301F05DFA0B4602465549002001F0AD
:1050500057FA6FF47F739E4260DA06F57A7601EBB9
:10506000065100224FF0B87301F0FEFB41EC100B2B
:1050700003B0BDE8F08F4C4B9A423FF657AF4B4B15
:105080004FEAC7084344D3E9002310EE100A29462B
:1050900001F036FA464BC7F101069844CDE900010C
:1050A000D8E900ABF61B6CE7002672E710EE102A79
:1050B0002B462046294601F025FA41EC100BFEE66E
:1050C0001DA3D3E900231046194601F0CDFB41ECA6
:1050D000100BF4E602460B462046294601F0C4FBBD
:1050E000002206460F464FF080434046494601F0F5
:1050F00007FA02460B463046394601F0DFFC2246ED
:105100002B4601F0FDF902460B460020244901F030
:10511000F7F941EC100B03B0BDE8F08F01EB06513D
:1051200041EC100B03B0BDE8F08F064631E700BF3D
:1051300000000000000000009C7500883CE4377E01
:10514000EF39FAFE422E864051302DD5104987C0E6
:10515000FE822B654715F73F0000E0FE422EE63F3A
:10516000763C7935EF39EA3DD0A4BE726937663EA8
:10517000F16BD2C541BDBB3E2CDE25AF6A56113F57
:1051800093BDBE166CC1663F3E5555555555C53F3E
:10519000412E8640FFFFEF7F422ED63FFFFF2F3E7E
:1051A0000000F03FB87C0000B1A2F03FD87C0000C6
:1051B000C87C0000FFFFFFFF2DE9F04F51EC100B02
:1051C000B1F5801F85B00B4659DA10EE102A21F098
:1051D0000044224300F0F8800029C0F280810022C0
:1051E000DD4BDE4C01F040FB0B46A3426FF0350275
:1051F0004ADCC3F3130505F5152404F6647404F4BE
:10520000801686F07F541B1584F44014A3F2FF33FC
:1052100044EA05019C180022D14B01F071F9AB1C46
:10522000C3F31303022B04EB165482468B464FF054
:10523000000232DC002301F07FFD002800F0CF8067
:10524000002C00F05881204601F0A8FAACA3D3E965
:10525000002306460F4601F007FBABA3D3E900236A
:1052600004460D463046394601F0FEFA02460B462A
:105270002046294601F046F941EC100B0AE0B74CF4
:10528000A3424FF00002B4DD02460B4601F03AF9AA
:1052900041EC100B05B0BDE8F08F4FF0804301F0FA
:1052A00031F902460B465046594601F007FC0646C6
:1052B00020460F4601F072FA3246CDE900013B4626
:1052C00030463946CDE9026701F0CEFA02460B4678
:1052D0008046894601F0C8FA8DA3D3E9002306462B
:1052E0000F4601F0C1FA8CA3D3E9002301F00AF9BB
:1052F00032463B4601F0B8FA89A3D3E9002301F016
:1053000001F932463B4601F0AFFA87A3D3E9002307
:1053100001F0F8F842464B4601F0A6FA84A3D3E91F
:105320000023804689463046394601F09DFA82A323
:10533000D3E9002301F0E6F832463B4601F094FA47
:105340007FA3D3E9002301F0DDF832463B4601F0AC
:105350008BFA0B4602464946404601F0D3F8A5F5C4
:10536000C223C5F5D725A3F27A4351351D43002D3D
:10537000804689465CDD00227A4B5046594601F052
:1053800073FA52465B4601F06FFA06460F46002C50
:105390006ED132463B464046494601F0B3F8DDE95E
:1053A000022301F061FA02460B463046394601F00D
:1053B000A7F802460B465046594601F0A1F841ECC9
:1053C000100B05B0BDE8F08F0022002300206649D5
:1053D00001F074FB41EC100B05B0BDE8F08F5AA34F
:1053E000D3E900235046594601F03EFA02460B46E7
:1053F00000205C4901F084F8524606460F465B46A1
:105400005046594601F030FA02460B4630463946BE
:1054100001F02AFA06460F46002C40F0A78002460B
:105420000B465046594601F06BF841EC100B31E742
:10543000002C00F0AF8032A3D3E90023DDE90001A6
:1054400001F012FA42464B4604460D465046594674
:1054500001F056F8DDE9022301F006FA2AA3D3E9A8
:10546000002306460F46DDE9000101F0FDF921E0C9
:1054700023A3D3E90023DDE9000101F0F5F9324669
:105480003B4604460D464046494601F03BF8DDE9FF
:10549000022301F0E9F91CA3D3E9002380468946E1
:1054A000DDE9000101F0E0F902460B4640464946BD
:1054B00001F028F802460B463046394601F020F844
:1054C00052465B4601F01CF802460B462046294630
:1054D00001F016F841EC100B05B0BDE8F08F10EEAE
:1054E000102A0B4601F00CF80022002301F0E6FA26
:1054F00041EC100BCEE69FED160BCBE6AFF3008030
:105500000000E0FE422EE63F763C7935EF39EA3D79
:1055100044523EDF12F1C23FDE03CB966446C73FE2
:10552000599322942449D23F935555555555E53FFB
:105530009FC678D0099AC33FAF788E1DC571CC3F06
:1055400004FA97999999D93F555555555555D53FD1
:10555000000000000000000000005043FFFFEF7F4C
:105560000000F03F0000E03F000050C3204601F083
:1055700015F90FA3D3E900238046894601F074F999
:105580000DA3D3E9002304460D464046494601F0E9
:105590006BF98FE702460B465046594600F0B0FFC4
:1055A000DDE9022301F060F903E700BFAFF30080FB
:1055B0000000E0FE422EE63F763C7935EF39EA3DC9
:1055C0002DE9F04F51EC110B21F0004858EA00048E
:1055D00093B03CD053EC102B6D4E23F00044B442FA
:1055E00010EE10AA1D462BDC894611EE10EA26D0DB
:1055F000B04525DC664EB04577D0002D16461F46D7
:10560000CDE9000175DB4FF0000BBEF1000F2DD18D
:105610005F4B984500F089805E4B98455ED0B9F1AC
:10562000804F00F0DE835C4B99451FD1002D1DDBC0
:1056300047EC106B13B0BDE8F04F00F049BD5AB114
:1056400004F1404404F5801454EA0A0306D19FEDA6
:105650004A0B13B0BDE8F08FA045CBDD4F4813B027
:10566000BDE8F04F00F018BE4FF0000B47EC106B98
:1056700000F0FEFD51EC100BBAF1000F1ED0ED0F43
:1056800005F1FF3A5BEA0A0363D0454B984540F3C6
:105690008D8003F10473984540F33884414B9C425C
:1056A00062DDB9F1000F62DD35A3D3E900231046B6
:1056B000194601F0D9F841EC100BCAE724B1354B7B
:1056C00025F040429A42DAD1B9F1000FC0F2CB8303
:1056D000002DC0F2748341EC100BBAE7B9F1000F52
:1056E000C0F27A8447EC106BB3E7BEF1000F84D0B0
:1056F000A6E72D4B984529DCA3F15473984582DD2C
:105700004FEA2853A3F2FF33142B40F37F84C3F1F5
:1057100034032EFA03F202FA03F39E457FF473AFCB
:1057200002F00102C2F1020B6FE704F1404303F5FE
:10573000801353EA0A038AD01A4B9C4240F38583B4
:10574000B9F1000F13DB9DED000B82E74FF0020B68
:105750005BE732463B461046194600F0D1FE024652
:105760000B4601F0ABF9B6E7B9F1000F9CDB9FEDFA
:10577000060B6EE7AFF30080000000000000F03F72
:105780009C7500883CE4377E0000000000000000AB
:105790000000F07F0000F03F0000E03F20790000B3
:1057A0000000E041FFFFEF3FFFFF3F43B4F5801FE4
:1057B0004FF0000205DAD64B01F056F86FF03402D4
:1057C0000C462315D34EC4F31304A3F2FF33134442
:1057D00044F07F55B4421A460D9345F4401540F30A
:1057E0004983CD4B9C4240F32D849FEDB37B8DEDDF
:1057F000087B8DED0E7B9FEDB27B13468DED067B16
:1058000001330D93A5F580154FF00008DDE906235F
:105810002946CDE90A0100F073FEDDE906230646BC
:105820000F46DDE90A0100F06DFE02460B4600203E
:10583000BA4901F043F903460C46CDE9103402465B
:105840000B463046394601F00FF86B1043F0005319
:1058500003F5002303EB08050A4600230146CDE9C2
:1058600002120293DDE902890024CDE904122B46DD
:1058700022464046494600F0F7FF02460B463046B6
:10588000394600F03DFEDDE9062306460F46204678
:10589000294600F035FE02460B46DDE90A0100F01C
:1058A0002FFE42464B4600F0DFFF02460B463046D5
:1058B000394600F025FEDDE9102300F0D5FFDDE9D3
:1058C0000445CDE9060122462B462046294600F034
:1058D000CBFF7DA3D3E9002304460D4600F0C4FFAF
:1058E0007BA3D3E9002300F00DFE22462B4600F0F7
:1058F000BBFF79A3D3E9002300F004FE22462B4628
:1059000000F0B2FF76A3D3E9002300F0FBFD2246AE
:105910002B4600F0A9FF74A3D3E9002300F0F2FDA9
:1059200022462B4600F0A0FF71A3D3E9002300F02C
:10593000E9FD224606460F462B462046294600F042
:1059400093FF02460B463046394600F08DFF424633
:1059500004460D464B46DDE9040100F0D3FDDDE9C8
:10596000062300F081FF22462B4600F0CBFD424685
:1059700006460F464B464046494600F075FF00225A
:10598000674BCDE90A0100F0BDFD32463B4600F011
:10599000B9FD02980D46044622462B46404649462C
:1059A00000F062FF0022804689465D4B2046294672
:1059B00000F0A6FDDDE90A2300F0A2FD02460B4639
:1059C0003046394600F09CFDDDE9042300F04CFF31
:1059D000224606460F462B46DDE9060100F044FF4D
:1059E00002460B463046394600F08CFD06460F460F
:1059F00002460B4640464946CDE9048900F082FD47
:105A000002983DA3D3E9002304460D4600F02CFF85
:105A1000DDE90423804689462046294600F070FDD2
:105A200002460B463046394600F06AFD34A3D3E9FE
:105A3000002300F019FF34A3D3E9002306460F46E4
:105A40002046294600F010FF02460B4630463946F4
:105A500000F058FDDDE90E2300F054FD06460D98D8
:105A60000F4600F09BFE324604460D463B4640463C
:105A7000494600F047FDDDE9082300F043FD2246DA
:105A80002B4600F03FFD029822462B46CDE902014D
:105A900000F036FDDDE9082300F032FD42464B46BA
:105AA00000F02EFD02460B463046394600F028FD38
:105AB0008046894636E000BF00000000000000007C
:105AC000000000000000F03FEF4E454A287ECA3F2C
:105AD00065DBC9934A86CD3F01411DA96074D13F62
