:1000000000000320D1010000CD470000854700001B
:1000100085470000854700008547000085470000B0
:10002000854700008547000085470000CD47000058
:10003000CD47000085470000E5530000E95400006B
:10004000CD470000CD470000CD470000CD47000060
:10005000CD470000CD470000CD470000CD47000050
:10006000CD470000CD470000CD470000CD47000040
:10007000CD470000CD470000CD470000CD47000030
:10008000CD470000CD470000CD470000CD47000020
:10009000CD470000CD470000CD470000CD47000010
:1000A000CD470000CD470000CD470000CD47000000
:1000B000CD470000CD470000CD4700005D4C00005B
:1000C000CD470000894D0000CD470000B54E00002F
:1000D000CD470000AD4F0000CD470000CD470000E8
:1000E000CD470000CD470000CD470000CD470000C0
:1000F000CD470000CD470000CD470000CD470000B0
:10010000CD470000CD470000CD470000CD4700009F
:10011000CD4700008D340000CD470000CD470000E2
:10012000CD470000CD470000CD470000CD4700007F
:10013000CD470000CD470000CD470000CD4700006F
:10014000CD470000CD470000A5500000CD4700007E
:10015000CD470000CD470000CD470000CD4700004F
:10016000CD470000CD470000CD470000CD4700003F
:10017000CD470000CD470000CD470000CD4700002F
:10018000CD470000CD470000CD470000CD4700001F
:10019000CD470000CD4700009D510000CD47000035
:1001A000CD470000CD470000CD470000CD470000FF
:1001B000CD470000CD470000CD470000CD470000EF
:1001C000CD470000CD470000CD470000CD470000DF
:1001D0005C4B4CF2205210B51A804DF628121A8052
:1001E00000BF00BF04F0F6FA574B4FF030621A60C0
:1001F000564A9A60564ADA60564B4FF470021A60BB
:10020000554B564A1A60564A136813F4807304D14A
:1002100054490B604FF4A8531360534B1A781107DD
:1002200003D51A7842F008021A70504B5049AA229E
:100230001A70504A504B8B4204D252F8040F43F8C4
:10024000040BF8E74D4B4E4900228B4202D243F893
:10025000042BFAE74B494C4A002352F8230041F89B
:1002600023000133742BF8D1484B494A802103F80D
:10027000011B9342FBD1474B424A1A60464B8A22EC
:100280001A70A3F5805324225A70A0221A709A790A
:100290009207FCD59A79D406FCD4404A937903F0AE
:1002A0000C03082BFAD13E4B60221A7002331A78E5
:1002B000802AFCD1394B01221A715D225A719A7938
:1002C0009006FCD59979354A4906FBD5354B364918
:1002D00019600021596020231370937903F00C03F7
:1002E0000C2BFAD1314B324A1A60324B324A1A6027
:1002F00000225A60072243F8042C304AC3F80C2D20
:1003000062B602F067FF174B1B68DA0705D52C4869
:1003100002F0E2FE2B4B2C4A1A602C4B1B785B063A
:1003200009D5284C284B22689A4204D1244802F06F
:10033000D3FE0023236007F009FB04F051FA03F019
:1003400005FFFEE70E20054030800440823F040098
:100350000100002B88ED00E0002008E0030000858C
:1003600010D0034014D0034002D0074000E0074003
:100370003014FF1FF4A900003007FF1F3014FF1FC7
:100380002419FF1F0002FF1F0000000000E400E02E
:1003900064E400E008ED00E0005006400040064044
:1003A00001E007404480044000000602048004404D
:1003B000C010070014E000E01FBF02000000202072
:1003C0005D34C85C1CE00340A5C3945A00F00740AC
:1003D000FFFFFFFFFFFFFFFFFFFFFFFFFFFFFFFF2D
:1003E000FFFFFFFFFFFFFFFFFFFFFFFFFFFFFFFF1D
:1003F000FFFFFFFFFFFFFFFFFFFFFFFFFFFFFFFF0D
:10040000FFFFFFFFFFFFFFFFFFFFFFFFDEF9FFFF23
:1004100010B5054C237833B9044B13B10448AFF33E
:1004200000800123237010BD3014FF1F0000000066
:10043000F8A90000084B10B51BB108490848AFF3F4
:1004400000800848036803B910BD074B002BFBD0A0
:10045000BDE81040184700BF000000003414FF1F23
:10046000F8A900003014FF1F0000000008B5064B7B
:10047000187802F049FE054B10B904221A7008BD25
:1004800003221A7008BD00BF0F08FF1F5014FF1F82
:10049000014800F0B5BE00BF5414FF1FF0B587B08F
:1004A0001E469DF8307004460D4602A8114603F022
:1004B000ABFE2A46214602AB8DE8C000034800F09F
:1004C000ABFF02A803F04CFE07B0F0BD5414FF1FB1
:1004D00010B582B09DF810408DE8180013460A460A
:1004E0000146024800F0C2FF02B010BD5414FF1FC5
:1004F00000B583B0009313460A460146024800F057
:1005000043FE03B05DF804FB5414FF1F10B5114BFC
:10051000187802F0F9FD104B0446187802F0F4FD4B
:1005200004EB4000C0B203280AD8DFE800F0020A5A
:100530000A020A4A0A49136802200133136008704C
:1005400010BD064A064913680120013B136008707C
:1005500010BD00BF1C08FF1F1D08FF1F4C14FF1F0C
:100560005014FF1F2DE9F04FC64CDFF878B3207808
:10057000DFF874A3ADF2446D012102F0D3FD2078C1
:10058000002102F0BBFD2078012102F0B7FD2078A8
:10059000002102F0B3FD2078012102F0AFFD2078A8
:1005A000002102F0ABFDB848B84BB94AB9492578EB
:1005B0001B781278097804780095B74801940125D2
:1005C00002900395B54800F02FFEB44800F018FEE5
:1005D000B34BB44A5A641E221A61B34ADA63002448
:1005E0004FF080084FF003093C26B04ADFF8FCC208
:1005F0009BF80000C3F800804FF0080E06274FF06C
:1006000012082146C3F81C901E634FF00C09052602
:100610009A630A22C3F840C0C3F804E0C3F80CE0B0
:100620001A625A629F605C61C3F81880C3F8289010
:10063000DE625E6302F076FD9D4B2146187802F083
:1006400071FD21469AF8000002F06CFD9BF8000055
:100650009849402828BFFF20042202F0C1FC9AF8E4
:1006600000009549402828BFFF20042202F0B8FC72
:100670004FF0140A0DF24C50904903F0B1FD2B4697
:1006800022460DF24C510394029401954CA8CDF8EA
:1006900000A001F01DF80DF24C5003F061FD214661
:1006A0004CA800F08DFF0DF24C50854903F098FDE9
:1006B0002B463A460DF24C51039402940195CDF825
:1006C00000A05EA801F004F80DF24C5003F048FDC4
:1006D00021465EA800F074FF0DF24C50794903F0FA
:1006E0007FFD2B464A460DF24C51CDF800A00394F5
:1006F0000294019570A800F0EBFF0DF24C5003F04E
:100700002FFD214670A800F05BFF4FF47A7002F0D5
:100710000FFD4CA800F05CFF5EA800F059FF70A828
:1007200000F056FF4FF47A7002F002FD2246314687
:100730000223039402948DE8300008A800F084FF9F
:10074000214608A800F03CFF3A46394602230394AC
:1007500002948DE8300019A800F076FF214619A810
:1007600000F02EFF4A460223039402948DE83000E5
:100770002AA8072100F068FF21462AA800F020FFE0
:100780004FF47A7002F0D4FC08A800F021FF19A8F9
:1007900000F01EFF2AA800F01BFF4FF47A7002F051
:1007A000C7FC82A800F0D2FF0DF24C50464903F07E
:1007B00017FD0DF24C5182A800F0D6FF0DF24C50FF
:1007C00003F0CEFC4FF0040E3B462A46414603950B
:1007D00002950194009594A89FED3C0A8DF83AE2A9
:1007E0008DF838428DF839428DF83D5200F0D6FF31
:1007F0009FED360A94A801F015F8354A354B8DF86F
:10080000808235498DF882724FF00B089CA8A39224
:10081000A4938DF881528DF894528DF8855203F08F
:100820007FFD33462146CDF80080362203940294A2
:1008300001953BA800F008FF3BA840F2DB3100F037
:100840003FFF362741F28832244B25494A929CA823
:100850004B938DF81D618DF81E818DF81C718DF8FC
:10086000214103F05DFDA6A801F000F882A9A6A829
:1008700001F020F894A9A6A800F0FEFFA6A801F0B8
:10088000A3F835E00C08FF1F0E08FF1F1E08FF1F0E
:100890000D08FF1F1008FF1F1408FF1F5414FF1F2F
:1008A0007414FF1F91040000D10400009D04000097
:1008B0001D08FF1F0D0500006D04000094A200003C
:1008C00098A200009CA20000A0A200003333F6C250
:1008D0000000FA430000FAC3A8A2000078ECFFFF72
:1008E000B0A200001C08FF1F0F08FF1FF10400004A
:1008F0004FF47A7002F01CFCA6A801F0CFF84FF478
:100900007A7002F015FCA6A801F0C8F84FF47A70CE
:1009100002F00EFCA6A801F0C7F84FF47A7002F0BE
:1009200007FC0DF24C50E04903F05AFC0DF24C511B
:1009300082A800F019FF0DF24C5003F011FC4FF4A7
:100940007A7002F0F5FB9FEDD90A94A800F06AFFD7
:100950004FF47A7002F0ECFBA6A801F075F84FF4A2
:100960007A7002F0E5FBDBA801F0A4F8D0490DF2A3
:100970004C5003F035FC482003F0F0FB23462246A0
:10098000074600960DF24C5103940294019500F035
:100990009FFE3946DBA800F08DFF0DF24C5003F0AE
:1009A000DFFBC3490DF24C5003F01AFC482003F062
:1009B000D5FB23466022074600960DF24C51039466
:1009C0000294019500F084FE3946DBA800F072FF26
:1009D0000DF24C5003F0C4FBB6490DF24C5003F03D
:1009E000FFFB482003F0BAFB152707232246804669
:1009F0000DF24C51039402940195009700F068FEAB
:100A00004146DBA800F056FF0DF24C5003F0A8FB66
:100A10000DF24C50A84903F0E3FB0DF24C5294A99F
:100A2000DBA801F0CDFA0DF24C5003F099FB4FF426
:100A30007A7002F07DFBDBA801F0D8FB4FF47A70EE
:100A400002F076FBDBA801F0D1FB4FF47A7002F0E4
:100A50006FFBDBA801F0CAFB4FF47A7002F068FB71
:100A6000DBA801F0D9FB4FF47A7002F061FBDBA840
:100A700001F0D2FB4FF47A7002F05AFBDBA801F0D0
:100A800073FB4FF47A7002F053FBDBA801F0C4FB58
:100A90004FF47A7002F04CFBDBA801F0BDFB4FF481
:100AA0007A7002F045FBDBA801F0A0FB4FF47A70EE
:100AB00002F03EFBDBA801F057FB4FF47A7002F026
:100AC00037FBDBA800F0C0FF4FF47A7002F030FB78
:100AD0000DF25C4001F0B6FB75490DF24C5003F08D
:100AE0007FFB482003F03AFB2346224680460096CF
:100AF0000DF24C5103940294019500F0E9FD41463A
:100B00000DF25C4000F0D6FE0DF24C5003F028FBD5
:100B100067490DF24C5003F063FB482003F01EFBC5
:100B200023466022804600960DF24C5103940294B5
:100B3000019500F0CDFD41460DF25C4000F0BAFE9B
:100B40000DF24C5003F00CFB5A490DF24C5003F0DF
:100B500047FB482003F002FB0723224606460DF21E
:100B60004C51009703940294019500F0B1FD314679
:100B70000DF25C4000F09EFE0DF24C5003F0F0FAD6
:100B80000DF24C504C4903F02BFB0DF24C523BA99B
:100B90000DF25C4001F0BCFD0DF24C5003F0E0FAA8
:100BA0004FF47A7002F0C4FA0DF25C4001F0A0FE3E
:100BB0004FF47A7002F0BCFA0DF25C4001F098FE3E
:100BC0004FF47A7002F0B4FA0DF25C4001F090FE3E
:100BD0004FF47A7002F0ACFA0DF25C4001F09EFE28
:100BE0004FF47A7002F0A4FA0DF25C4001F096FE28
:100BF0004FF47A7002F09CFA0DF25C4001F02EFE88
:100C00004FF47A7002F094FA0DF25C4001F086FE27
:100C10004FF47A7002F08CFA0DF25C4001F07EFE27
:100C20004FF47A7002F084FA0DF25C4001F060FE3D
:100C30004FF47A7002F07CFA0DF25C4001F00EFE87
:100C40004FF47A7002F074FA0DF25C4000F0FCFE92
:100C50004FF47A7002F06CFA0DF24C5001F074FE11
:100C600004A8154903F0BCFA04AA82A90DF24C505D
:100C700001F0E2FF04A803F073FA4FF47A7002F077
:100C800057FA0DF24C5002F051F84FF47A7002F01E
:100C90004FFA0DF24C5002F049F84FF47A7002F01E
:100CA00047FA0DF24C5009E0BCA200009AE976C464
:100CB000D4A20000C4A20000C0A2000002F036F8D6
:100CC0004FF47A7002F034FA0DF24C5002F044F80E
:100CD0004FF47A7002F02CFA0DF24C5002F03CF80E
:100CE0004FF47A7002F024FA0DF24C5002F0B0F892
:100CF0004FF47A7002F01CFA0DF24C5002F02CF80E
:100D00004FF47A7002F014FA0DF24C5002F024F80D
:100D10004FF47A7002F00CFA0DF24C5002F006F823
:100D20004FF47A7002F004FA0DF24C5002F090F891
:100D30004FF47A7002F0FCF90DF24C5000F084FE92
:100D40004FF47A7002F0F4F90DF5C46003F008FA7C
:100D500043A803F005FA3CA803F002FA9CA803F0AC
:100D6000FFF995A803F0FCF990A803F0F9F98AA817
:100D700003F0F6F983A803F0F3F932A803F0F0F9D1
:100D80002BA803F0EDF921A803F0EAF91AA803F063
:100D9000E7F910A803F0E4F909A803F0E1F97EA847
:100DA00003F0DEF978A803F0DBF971A803F0D8F9B5
:100DB0006CA803F0D5F966A803F0D2F95FA803F098
:100DC000CFF95AA803F0CCF954A803F0C9F94DA8FB
:100DD00003F0C6F90DF2446DBDE8F08F704700BF17
:100DE0002DE9F84FDFF8D0A0DFF8D080DFF8D09001
:100DF0002E4F2F4C054600219AF8000002F07EF994
:100E000098F80000002102F079F999F8000001211A
:100E100002F074F9274B0121187802F06FF9387845
:100E2000012102F06BF96DB24FF0000B012606FABA
:100E30000BF12940C9B20BF1010B14F8010F02F0BC
:100E40005DF9BBF1080FF2D19AF80000002102F021
:100E500055F998F80000002102F050F93878002187
:100E600002F04CF999F80000012102F047F93878B6
:100E7000012102F043F99AF80000002102F03EF946
:100E800099F80000012102F039F90A4B0121187884
:100E900002F034F93878012102F030F998F80000B6
:100EA0000121BDE8F84F02F029B900BF5514FF1F1A
:100EB0006714FF1F6414FF1F5614FF1F6614FF1FE3
:100EC0006514FF1F2DE9F04FDFF828A1DFF8289106
:100ED000444F454C83B0054601919AF8000000212B
:100EE00002F00CF9414B0021187802F007F999F84B
:100EF0000000012102F002F93D4B0121187802F0B7
:100F0000FDF83878012102F0F9F86DB2A0464FF0F3
:100F1000000B012606FA0BF12940C9B20BF1010BB7
:100F200018F8010F02F0EAF8BBF1080FF2D1002126
:100F30009AF8000002F0E2F82C4B0021187802F039
:100F4000DDF80021387802F0D9F8012199F8000085
:100F500002F0D4F80121387802F0D0F89DF904604D
:100F60004FF0000B012505FA0BF13140C9B20BF12E
:100F7000010B14F8010F02F0C1F8BBF1080FF2D118
:100F80009AF80000002102F0B9F8184B00211878F7
:100F900002F0B4F83878002102F0B0F899F80000B7
:100FA000012102F0ABF83878012102F0A7F89AF895
:100FB0000000002102F0A2F899F80000012102F0DF
:100FC0009DF80B4B0121187802F098F83878012130
:100FD00002F094F8054B1878012103B0BDE8F04FFA
:100FE00002F08CB85514FF1F6714FF1F6614FF1F13
:100FF0006414FF1F5614FF1F6514FF1F2DE9F04FE7
:10100000524BDFF85481DFF85491514E83B00D46B6
:10101000824601211878144602F070F898F8000012
:10102000002102F06BF899F80000012102F066F847
:10103000484B0121187802F061F83078012102F064
:101040005DF8002D4DD18CB3013C5AFA84F3019325
:101050000AF1FF3A01251AF9017FDFF804B1FF43D5
:10106000002405FA04F13940C9B201341BF8010F1C
:1010700002F044F8082CF4D1344B0121187802F026
:101080003DF8002198F8000002F038F8002130788F
:1010900002F034F8012199F8000002F02FF8012144
:1010A000307802F02BF8019B5345D4D1274B012116
:1010B000187802F023F899F80000012102F01EF8D8
:1010C000244B0121187802F019F83078012102F040
:1010D00015F898F80000012103B0BDE8F04F02F0C8
:1010E0000DB8002CE2D0013C5AFA84F301930AF1C6
:1010F000FF3A01251AF9017FDFF864B0002405FAF0
:1011000004F13940C9B201341BF8010F01F0F6FFB8
:10111000082CF4D10D4B0121187801F0EFFF0021CC
:1011200098F8000001F0EAFF0021307801F0E6FFB6
:10113000012199F8000001F0E1FF0121307801F070
:10114000DDFF019B5345D5D1B0E700BF5614FF1F0B
:101150005514FF1F6414FF1F6614FF1F6514FF1F43
:101160006714FF1F10B5503A0C46D0B2FFF738FE97
:10117000200940F01000FFF733FE04F00F00BDE837
:101180001040FFF72DBE00BF70B57A2988BFC1F1AE
:101190008005A3F120039DF810608CBFEDB20625F9
:1011A000DCB2FFF7DFFF054804EB44042A46314672
:1011B00000EB4400BDE87040FFF720BFDCA2000058
:1011C0002DE9F0411D4682B01B789DF82080A3B127
:1011D0007E290C4611D80646174601E07E2C0CD815
:1011E0002146CDF800803A463046FFF7CDFF15F88E
:1011F000013F0634E4B2002BF0D102B0BDE8F0812B
:1012000070B5064682B000240125E2B20095054B78
:10121000002101343046FFF7D3FF082CF5D102B08E
:1012200070BD00BF04A500002DE9F04F85B0DFF8C8
:10123000D8A1DFF8D881109EDFF8D4B1DFF8D491BF
:101240006D4F6E4C9DF838E08AF8002088F8003029
:101250009DF83C209DF84430039305468BF8001020
:10126000701E89F800E007363A70234610F8012F07
:1012700003F8012FB042F9D10846012101F052FFD5
:1012800001219AF800005E4E01F04CFF012198F810
:10129000000001F047FF012199F8000001F042FF32
:1012A0000121387801F03EFF14F8010F012101F00F
:1012B00039FFA642F8D101219BF8000001F01EFF82
:1012C00001219AF8000001F019FF012199F80000AE
:1012D00001F014FF012198F8000001F00FFF012137
:1012E000387801F00BFF01219BF8000001F006FFA8
:1012F00000219AF8000001F001FF012199F8000097
:1013000001F0FCFE012198F8000001F0F7FE012138
:10131000387801F0F3FE9BF80000012101F0EEFEA9
:101320009AF80000012101F0E9FE99F8000001217E
:1013300001F0E4FE98F80000012101F0DFFE012138
:10134000387801F0DBFEFD20FFF74AFD1220FFF7A1
:1013500047FDAE20FFF744FDA021D520FFF7B2FDE9
:101360003F21A820FFF7AEFD0021D320FFF7AAFD03
:101370004020FFF735FD039BB3BBA120FFF730FDF5
:10138000C820FFF72DFD1221DA20FFF79BFDFF217A
:101390008120FFF797FD8221D920FFF793FD3421AB
:1013A000DB20FFF78FFDA420FFF71AFDA620FFF733
:1013B00017FDAF20FFF714FD00240126E2B20096CE
:1013C000104B002101342846FFF7FAFE082CF5D116
:1013D000B020FFF705FD1020FFF702FD002005B04B
:1013E000BDE8F04FFFF7FCBCA020FFF7F9FCC020E0
:1013F000FFF7F6FCC7E700BF6514FF1F6714FF1F68
:101400006F14FF1F04A500006414FF1F5514FF1F75
:101410006614FF1F5614FF1F2DE9F04782B01F46C8
:101420009DF82C609B689DF828A09E4288BFDEB284
:1014300080460C469146B6B17E2914D8002501E0BD
:101440007E2C10D82946384602F0D2FF01350378A9
:10145000CDF800A021464A464046FFF795FE0634E7
:10146000B542E4B2ECD102B0BDE8F0872DE9F04717
:101470001D1E9DF820C09DF82480154BDFF854E018
:10148000BABF6D424FF001094FF0000901268EFBF3
:101490000547EC17C4EBA70404EB840A2746A5EB29
:1014A0004A04303403F8014D3D460FB9664502DA6F
:1014B00001360D2EEBD1B9F1000F03D02D2403F826
:1014C000014C013BCDF82080BDE8F047FFF778BE26
:1014D0006314FF1F676666662DE9F04F304F90F882
:1014E000326090F83350012387B004463B7011B14D
:1014F000B5FA85F56D0994F830A094F831B0DFF8AD
:10150000A8802849D8F8389002A802F069FE012383
:101510005946504602AA0096C84702A802F020FE8B
:101520002378032B0CD8DFE803F028101002D8F83A
:101530004060227F94F8311094F830002B46B04779
:1015400000233B7007B0BDE8F08F94F8309094F81A
:1015500031A0D8F83880211D02A802F055FE2B4694
:101560005146484602AA0096C04702A802F0F8FD7C
:1015700000233B7007B0BDE8F08F626994F831102A
:1015800094F830000095002AA4BF0136F6B2334625
:10159000D8F83C40A04700233B7007B0BDE8F08F6F
:1015A0007014FF1F04A500007414FF1F034B1B7869
:1015B00003F0FF0103B17047FFF78EBF7014FF1FE8
:1015C000024B1B780BB9FFF787BF70477014FF1FE2
:1015D000F0B5037890F8324087B023B94369002B07
:1015E000A4BF0134E4B290F8306090F83170084B39
:1015F00008499D6B02A802F0F3FD3946304602AA65
:1016000001230094A84702A802F0AAFD07B0F0BD8C
:101610007414FF1F04A5000038B50A4D044629467E
:10162000043002F0DDFD294604F1200002F0D8FD6F
:101630000023012284F8332084F8343084F83530D4
:10164000204638BDC0A200002DE9F04F1B4E87B0E8
:1016500004460D4602A83146019200939DF840B021
:101660009DF844A09DF848909DF84C8002F0B8FD8C
:101670002046002702A900F8047B02F0C5FD0020E7
:101680003146A0616561277704F1200002F0A8FDD2
:10169000019A009B84F8302084F8313084F832B00D
:1016A00084F833A084F8349084F8358002A802F0DE
:1016B00057FD2046A56307B0BDE8F08FC0A200002B
:1016C00090F83420816341610AB1FFF76FBF704722
:1016D0002DE9F04F85B00446684692469B460D467C
:1016E0009DF838909DF83C809DF840709DF84460CE
:1016F00002F08AFD20460223694600F8043B02F00E
:1017000083FD00230020A3610F496061207704F16D
:10171000200002F065FD84F830A084F831B084F830
:10172000329084F8338084F8347084F835606846E9
:1017300002F016FD294604F1380002F065FD20464E
:1017400005B0BDE8F08F00BFC0A2000010B5044690
:10175000FFF762FF04F13800002102F041FD02238F
:101760002370204610BD00BF38B504460D46383002
:1017700002F0C6FD2946201D02F0C2FD94F8343067
:1017800023B1054B1B7803F0FF0103B138BD2046A0
:10179000BDE83840FFF7A0BE7014FF1F2DE9F04FE1
:1017A0002DED028B85B004469DF848509DF8408091
:1017B0009DF844709DF84C60894668462946B0EE15
:1017C000408A92469B4602F051FD2046012300F8D4
:1017D000043B694602F018FD00216161217784ED28
:1017E000068A0F4904F1200002F0FAFC84F83090D8
:1017F00084F831A084F832B084F8338084F83470EF
:1018000084F83560684602F0ABFC204684ED0E8A11
:1018100084F8445005B0BDEC028BBDE8F08F00BFEA
:10182000C0A2000010B584B080ED0E0A80ED060A5B
:10183000044690F84410684602F018FD6946201DE1
:1018400002F066FD684602F08BFC94F8343023B158
:10185000054B1B7803F0FF010BB104B010BD20460F
:10186000FFF73AFE04B010BD7014FF1F00220260A3
:1018700042608260704700BF71B191F8353030B47A
:101880005BB903680125C41803F108022B442573D2
:1018900040F82210036030BC704743680125C4182B
:1018A00000EB83022B4484F87050C2F8841043602C
:1018B000F1E700BF71B191F8353030B45BB903681E
:1018C000C41803F1080202250133257340F82210E1
:1018D000036030BC70474368C41800EB83020225E4
:1018E000013384F87050C2F884104360F1E700BF00
:1018F00001290AD001D3022906D10949097801201A
:1019000082F8340039B170477047054882F83410C6
:1019100001780029F7D119461046FFF7DDBD00BF59
:101920007014FF1F70B5826800EB820581180446B1
:10193000D5F8842091F870100023FFF7D9FFA36831
:10194000626801339342A360A4BF0023A36004EB49
:1019500083022344204693F87010D2F88420012398
:10196000BDE87040FFF7C4BF70B58268811800EB16
:10197000820504460023D5F8842091F87010FFF703
:10198000B7FFA368013B002BA3600CDB04EB8302D1
:101990002344204693F87010D2F884200123BDE838
:1019A0007040FFF7A5BF6368013BA360EEE700BF8F
:1019B000012902D001D3022905D1002382F8343055
:1019C0001046FFF705BE70470368002B2DE9F04174
:1019D000044610DD00F10B0700F11C060025002372
:1019E00056F8042F17F8011F2046FFF781FF2368E0
:1019F0000135AB42F3DC6368002B22DD04F16F0795
:101A000004F180060025002356F8042F17F8011F63
:101A10002046FFF76DFF63680135AB42F3DC002B16
:101A20000DDDA36804EB83022344204693F8701075
:101A3000D2F884200123BDE8F041FFF759BFBDE88B
:101A4000F081BDE8F08100BFF8B50368002B0446C3
:101A50000FDD00F10B0700F11C06002556F8042FDE
:101A600017F8011F2046FFF7A3FF23680135AB429B
:101A7000F4DC6368002B10DD04F16F0704F18006CD
:101A8000002556F8042F17F8011F2046FFF790FF96
:101A900063680135AB42F4DCF8BDF8BD4368002B48
:101AA00001DDFFF73FBF70474368002B01DDFFF703
:101AB0005BBF70472DE9F047002488B0DFF8D48180
:101AC0006F49046007464460846080F8E64004A8DB
:101AD000D8F81860D8F81CA002F082FB482002F069
:101AE0003DFB012598F8201098F8143098F8102044
:101AF0000091814604A9039402940195FFF7E8FD43
:101B000049463846FFF7D6FE04A802F029FB5D4996
:101B100004A802F065FB482002F020FB5FFA8AFA75
:101B20005346F2B2814604A90394029401950095AC
:101B3000FFF7CEFD49463846FFF7BCFE04A802F089
:101B40000FFB504904A802F04BFB482002F006FBB3
:101B500098F824100091B21D5346D2B2814604A9D0
:101B6000039402940195FFF7B3FD49463846FFF709
:101B7000A1FE04A802F0F4FAD8F82430A34220DD34
:101B80000C36414904A802F02BFB482002F0E6FA8B
:101B90000023F2B28146029304A9534603950195AE
:101BA0000095FFF795FD49463846FFF783FE04A8E8
:101BB00002F0D6FAD8F824300134A34206F1060622
:101BC000DFDC442002F0CAFA002401250AF1FF33C9
:101BD000224621460646DBB2039402940094019506
:101BE000FFF732FDC7F8E860442002F0B7FA0AEBCD
:101BF00005032246DBB206462146039402948DE893
:101C00003000FFF721FDC7F8EC60204904A802F07E
:101C1000E7FA482002F0A2FA032198F82C3098F84D
:101C20002820039506468DE82200029404A9FFF7B8
:101C30004FFD31463846FFF73DFE04A802F090FA0A
:101C4000134904A802F0CCFA482002F087FA0221D6
:101C500098F8343098F83020029406468DE8220037
:101C6000039504A9FFF734FD31463846FFF722FEFD
:101C700004A802F075FA384608B0BDE8F08700BF46
:101C8000C0A200001CA500009CA7000020A5000029
:101C900024A500007414FF1F2DE9F041D0ED357A22
:101CA0002DED028BF5EEC07A064688B0F1EE10FA03
:101CB000F5EEC07AD4BFB1EE678AB0EE678A04ACA5
:101CC000F1EE10FA756A4CBF54495549204602F0AE
:101CD00087FA21462846FFF747FD204602F040FAE2
:101CE000B0EE480A684696F8E51002F0BFFA96F89A
:101CF000E52096F8E430029F1344DF1B02B1013760
:101D0000002FC0F2848018BF002511D0454920461D
:101D100002F066FA6946204602F052FB0146684628
:101D200002F0EEFA0135204602F01AFAAF42EDD188
:101D30006946B06AFFF718FD012296F8E41068467C
:101D400002F064FB96F8E53096F8E420D3421BD00D
:101D500006F1800700252946684657F8048F02F0EF
:101D600047FB0178204602F099FA21464046FFF7EA
:101D7000FBFC204602F0F4F996F8E42096F8E530F2
:101D800001351344AB42E6DCB368D6F8E84006EB15
:101D90008303D3F88400383002F082FBD6F8E830B1
:101DA000A063D6F8EC009A6B82639A6B013A9A634F
:101DB000826B01328263996B00291BDB93F83440FC
:101DC0005961ECB9092A0DDD90F8342000238363B2
:101DD000436162B9684602F0C3F908B0BDEC028BFA
:101DE000BDE8F08190F834304261002BF2D0FFF76B
:101DF000DDFBEFE793F8341009229A635A6121B1B1
:101E00001846FFF7D3FBD6F8EC00826BDAE77A428C
:101E10000021684602F0FAFA8AE700BF28A5000010
:101E20001CA500009CA7000070B50446194DA368CE
:101E3000D4F8E8102A7804EB83030120D3F8843027
:101E400093F8303081F83030A368D4F8EC6004EBBC
:101E50008303D3F8843093F8303086F83030D4F8E8
:101E6000E83083F83400D4F8EC3083F8340052B111
:101E70002B7803F0FF0103B170BDD4F8EC00BDE88E
:101E80007040FFF729BB02F0FF01D4F8E800FFF72C
:101E900023FBEDE77014FF1FD0F8E820002310B5F6
:101EA00082F83430D0F8EC20044682F83430D0F890
:101EB000E800FFF78DFBD4F8EC00BDE81040FFF719
:101EC00087BB00BF10B50B68C0F8D4300446FFF7DD
:101ED000E3FEA36804EB83022344204693F87010CA
:101EE000D2F884200123BDE81040FFF701BD00BFF8
:101EF000D0B5044682B0D0F8D40005F06FF994F85C
:101F0000E4300646A068181A01380F4605F054F967
:101F10009FED0F0B41EC110B03F01AFC304653EC14
:101F2000102B394604F0FCFF05F0A4FC94ED377A41
:101F3000019007EE900AF4EEC77AF1EE10FA20460F
:101F400001A9C8BF8DED017AFFF7BCFF02B0D0BD7B
:101F50000000000000002440D0B5044682B0D0F854
:101F6000D40005F03BF994F8E4300646A068181A4E
:101F700001380F4605F020F99FED0F0B41EC110BD6
:101F800003F0E6FB304653EC102B394604F0C6FF55
:101F900005F070FC94ED387A019007EE900AF4EEAB
:101FA000C77AF1EE10FA204601A948BF8DED017AFB
:101FB000FFF788FF02B0D0BD000000000000244001
:101FC0002DE9F047174684B004460E4668460021C6
:101FD00002F006F9DFF88CA1BB68DAF81850C4F8F3
:101FE000D860002B40F0B580B36A002B40F0AB8086
:101FF0005A49684602F094F96946206AFFF7B4FB33
:10200000D4F8D830D3ED0F7A1B6CC4ED377AF5EEE7
:10201000C07AF1EE10FAD8BFF1EE677AC4F8E0307A
:1020200017EE900A05F0DAF841EC100B03F004FB10
:1020300003F072FAD4ED387AF5EEC07AF1EE10FAC8
:10204000D8BFF1EE677A17EE900A57EC106B05F0E7
:10205000C5F841EC100B03F0EFFA03F05DFA59EC10
:10206000108B10EE102A4B463046394605F090FB97
:1020700008B946464F463A4B30463946002204F0EE
:102080004FFF05F0D7FBD4F8D830DAF82460C0B29F
:1020900084F8E40093F8441084F8E51043189E4255
:1020A000074605DC701AC0B284F8E40007460B1836
:1020B00002330022636084F8E620AB1D78B104F19E
:1020C000800151F8040F80F8303094F8E4000132B8
:1020D000904203F106030746F3DC94F8E51006335B
:1020E00099B1002201E094F8E400104404EB800070
:1020F0000132D0F8841081F8303094F8E510914224
:1021000003F10603EFDC94F8E47004EB860639442F
:1021100004EB8101D6F88430C1F88430D6F88830D9
:10212000C1F88830D4F8D81000233831A360204695
:10213000FFF7C8FE2046FFF747FC684602F010F89C
:1021400004B0BDE8F08706F12001684602F0D8F837
:1021500052E73946684602F0D3F84DE72CA5000057
:102160000000F03F7414FF1F10B590F8E41090F8D1
:10217000E53082680B449A42044617D001339A42F4
:1021800023D090F8E6301BB1012B26D0184610BDA5
:10219000012380F8E63000F1D401FFF793FE2046DA
:1021A000FFF742FE94F8E630184610BD032380F88E
:1021B000E63090ED350AD0F8D800FFF733FB204623
:1021C000FFF742FC94F8E630E0E7042380F8E630BD
:1021D000FFF73AFC94F8E630D8E7002380F8E630C1
:1021E000FFF75AFE94F8E630D0E700BF10B590F83C
:1021F000E630044643B94268002A03DDFFF792FB4C
:1022000094F8E630184610BD012BFBD1FFF770FEA5
:1022100094F8E630F6E700BF10B590F8E6300446D3
:1022200043B94268002A03DDFFF79EFB94F8E630CD
:10223000184610BD012BFBD1FFF78EFE94F8E63057
:10224000F6E700BF2DE9F047002488B0DFF8D4811D
:102250006F49046007464460846080F8E54004A844
:10226000D8F81860D8F81CA001F0BAFF482001F097
:1022700075FF012598F8201098F8143098F8102070
:102280000091814604A9039402940195FFF720FA76
:1022900049463846FFF70EFB04A801F061FF5D498F
:1022A00004A801F09DFF482001F058FF5FFA8AFA68
:1022B0005346F2B2814604A9039402940195009515
:1022C000FFF706FA49463846FFF7F4FA04A801F08A
:1022D00047FF504904A801F083FF482001F03EFF6A
:1022E00098F824100091B21D5346D2B2814604A939
:1022F000039402940195FFF7EBF949463846FFF73E
:10230000D9FA04A801F02CFFD8F82430A34220DD2C
:102310000C36414904A801F063FF482001F01EFF7C
:102320000023F2B28146029304A953460395019516
:102330000095FFF7CDF949463846FFF7BBFA04A8E8
:1023400001F00EFFD8F824300134A34206F106064E
:10235000DFDC442001F002FF002401250AF1FF33F5
:10236000224621460646DBB203940294009401956E
:10237000FFF76AF9C7F8E860442001F0EFFE0AEBC6
:1023800005032246DBB206462146039402948DE8FB
:102390003000FFF759F9C7F8EC60204904A801F0B4
:1023A0001FFF482001F0DAFE032198F82C3098F83E
:1023B0002820039506468DE82200029404A9FFF721
:1023C00087F931463846FFF775FA04A801F0C8FED0
:1023D000134904A801F004FF482001F0BFFE0221C8
:1023E00098F8343098F83020029406468DE82200A0
:1023F000039504A9FFF76CF931463846FFF75AFAFE
:1024000004A801F0ADFE384608B0BDE8F08700BF73
:10241000C0A200001CA500009CA7000020A5000091
:1024200024A500007414FF1F2DE9F041D0F8D4302A
:10243000804688B0002B04ACD8F82460B4BF4F4964
:102440004F4983EAE3752046A5EBE37501F0C8FE2A
:1024500021463046FFF788F9204601F081FE2946E3
:1024600068460A2201F0EEFE98F8E430029E9E1BB8
:10247000002E7CDB18BF002511D04249204601F018
:10248000AFFE6946204601F09BFF0146684601F019
:1024900037FF0135204601F063FEAE42EDD16946BB
:1024A000D8F82800FFF760F998F8E430C3B108F1D4
:1024B000800600252946684656F8047F01F098FFFB
:1024C0000178204601F0EAFE21463846FFF74CF934
:1024D000204601F045FE98F8E4300135AB42E9DCD6
:1024E000D8F80830D8F8E84008EB8303D3F8840024
:1024F000383001F0D5FFD8F8E830A063D8F8EC0008
:102500009A6B82639A6B013A9A63826B013282639F
:10251000996B00291EDB93F83440596104BB092AEA
:102520000BDD90F8342000238363436152B9684681
:1025300001F016FE08B0BDE8F08190F83430426139
:10254000002BF4D0FFF732F8684601F009FE08B01E
:10255000BDE8F08193F8341009229A635A6121B1E1
:102560001846FFF723F8D8F8EC00826BD7E77242E1
:102570000021684601F04AFF91E700BF28A500004E
:102580001CA500009CA7000010B50B68C0F8D43053
:102590000446FFF749FFA36804EB83022344204667
:1025A00093F87010D2F884200123BDE81040FFF7A3
:1025B0009FB900BF70B50446194DA368D4F8E81060
:1025C0002A7804EB83030120D3F8843093F8303069
:1025D00081F83030A368D4F8EC6004EB8303D3F8BF
:1025E000843093F8303086F83030D4F8E83083F80F
:1025F0003400D4F8EC3083F8340052B12B7803F077
:10260000FF0103B170BDD4F8EC00BDE87040FEF7E7
:1026100063BF02F0FF01D4F8E800FEF75DFFEDE7CD
:102620007014FF1FD0F8E820002310B582F8343072
:10263000D0F8EC20044682F83430D0F8E800FEF7F9
:10264000C7FFD4F8EC00BDE81040FEF7C1BF00BFE3
:10265000D0B5044682B0D0F8D40004F0ADFD94F8B3
:10266000E4300646A068181A01380F4604F0A4FDAD
:102670009FED0D0B41EC110B03F06AF8304653EC63
:10268000102B394604F04CFC05F0ACF8D4F8DC30E3
:102690000190984201A92046C8BF0193FFF774FF3B
:1026A00002B0D0BDAFF30080000000000000244065
:1026B000D0B5044682B0D0F8D40004F07DFD94F883
:1026C000E4300646A068181A01380F4604F074FD7D
:1026D0009FED0D0B41EC110B03F03AF8304653EC33
:1026E000102B394604F01AFC05F07CF8D4F8E030E1
:1026F0000190984201A92046B8BF0193FFF744FF1B
:1027000002B0D0BDAFF30080000000000000244004
:102710002DE9F047174684B004460E46684600216E
:1027200001F05EFDDFF830A1BB68DAF81850C4F89C
:10273000D860002B40F08680B36A002B7CD14449DE
:10274000684601F0EDFD6946206AFFF70DF8D4F800
:10275000D830D86B1B6CC4F8E0300028C4F8DC001B
:10276000B8BF404204F028FD41EC100B02F064FFBA
:1027700002F0D2FED4F8E0000028B8BF404257EC87
:10278000106B04F019FD41EC100B02F055FF02F044
:10279000C3FE59EC108B10EE102A4B4630463946DA
:1027A00004F0F6FF08B946464F460022294B304652
:1027B000394604F0B5FB05F03DF8DAF82460C0B204
:1027C00086420146D8BFF1B284F8E4004FF000031E
:1027D00001F10200D8BF84F8E460AA1D606084F8AB
:1027E000E53061B104F1800050F8041F81F8302019
:1027F00094F8E4100133994202F10602F4DC04EB90
:10280000860604EB8101D6F88430C1F88430D6F80E
:102810008830C1F88830D4F8D81000233831A3604C
:102820002046FFF7B1FE2046FFF7CEF8684601F0DC
:1028300097FC04B0BDE8F08706F12001684601F07E
:102840005FFD80E73946684601F05AFD7BE700BF2F
:102850002CA500000000F03F7414FF1F10B5826823
:1028600090F8E4309A42044609D001339A422FD0BE
:1028700090F8E530B3B1012B32D0184610BDD0F836
:10288000D800032384F8E53090F83420D4F8D4300D
:1028900083634361A2B92046FFF7D6F894F8E53088
:1028A000184610BD012380F8E53000F1D401FFF790
:1028B0006BFE2046FFF77EFE94F8E530184610BD0B
:1028C000FEF774FE2046FFF7BFF894F8E530E7E71F
:1028D000042380F8E530FFF7B7F894F8E530CCE74B
:1028E000002380F8E530FFF79DFE94F8E530C4E75B
:1028F00010B590F8E530044643B94268002A03DD7C
:10290000FFF710F894F8E530184610BD012BFBD105
:10291000FFF79EFE94F8E530F6E700BF10B590F89B
:10292000E530044643B94268002A03DDFFF71CF88E
:1029300094F8E530184610BD012BFBD1FFF7B8FE27
:1029400094F8E530F6E700BF2DE9F047002407468C
:1029500088B0DFF884810460446084602146D4300C
:1029600001F03EFC584987F8E84004A8D8F8245004
:10297000D8F81860D8F81CA001F032FC482001F00B
:10298000EDFBE9B2012598F8143098F81020009179
:10299000814604A9039402940195FEF799FE4946E5
:1029A0003846FEF787FF04A801F0DAFBD8F8243098
:1029B000A34221DD5FFA8AFA444904A801F010FC21
:1029C000482001F0CBFB0023F2B28146029304A918
:1029D0005346039501950095FEF77AFE4946384621
:1029E000FEF768FF04A801F0BBFBD8F824300134DF
:1029F000A34206F10606DFDC344904A801F0F0FB2F
:102A0000482001F0ABFB002401252346224604A9FF
:102A100006460394029401950095FEF759FEC7F807
:102A2000EC6004A801F09CFB284904A801F0D8FB45
:102A3000482001F093FB2346224604A9064603944E
:102A4000029401950095FEF743FEC7F8F06004A8D4
:102A500001F086FB1E4904A801F0C2FB482001F0EA
:102A60007DFB032198F82C3098F828200395064622
:102A70008DE82200029404A9FEF72AFE314638466A
:102A8000FEF718FF04A801F06BFB124904A801F03F
:102A9000A7FB482001F062FB022198F8343098F837
:102AA0003020029406468DE82200039504A9FEF723
:102AB0000FFE31463846FEF7FDFE04A801F050FB3C
:102AC000384608B0BDE8F087C0A200001CA5000091
:102AD00020A5000024A500007414FF1F2DE9F04775
:102AE0000C4600F1D406DFF84C9184B082463046A3
:102AF00001F006FCA568D9F824309D426C4613DA33
:102B00003146204601F080FB2021204601F060FC88
:102B10000146304601F0F4FB204601F021FBD9F8D4
:102B200024300135AB42EBDC002B18DD0AF18007C5
:102B300000252946304657F8048F01F059FC0178EA
:102B4000204601F0ABFB21464046FEF70DFE204635
:102B500001F006FBD9F824300135AB42E9DCDAF8A4
:102B6000EC30DAF80810304603F1380501F040FC8B
:102B70000178284601F0DEFBDAF8F030DAF80810C8
:102B8000304603F1380501F033FC0178284601F0A6
:102B9000D1FBDAF8EC000021383001F029FC037891
:102BA000202B40D0DAF8EC50002105F1380001F07C
:102BB0001FFC01780139C9B2204601F06FFB2146A4
:102BC0002846FEF7D1FD204601F0CAFADAF8F000F7
:102BD0000021383001F00CFC0378DAF8F0507B2B40
:102BE00025D0002105F1380001F002FC0178013107
:102BF000C9B2204601F052FB21462846FEF7B4FD3B
:102C0000204601F0ADFADAF808300AEB83025344AB
:102C1000D2F8842093F8701050460123FEF768FE26
:102C200004B0BDE8F087DAF8EC507B21C4E720213E
:102C3000DFE700BF7414FF1F70B5164684B004466A
:102C40000D466846002101F0CBFAB368C4F8E450A1
:102C500003BBAB6AC3B91249684601F061FBD4F803
:102C6000E41020463831FFF739FF6946206AFEF745
:102C70007BFD002384F8E8302046FEF7A5FE684679
:102C800001F06EFA04B070BD05F12001684601F054
:102C900037FBE4E73146684601F032FBDFE700BF6F
:102CA00034A5000038B5044600F1D405A1682846D3
:102CB00001F09EFB0378A1687B2B28460AD001F027
:102CC00097FB03780133037029462046BDE838405E
:102CD000FFF704BF01F08CFB202303702946204638
:102CE000BDE83840FFF7FABE38B5044600F1D40518
:102CF000A168284601F07CFB0378A168202B2846B8
:102D00000AD001F075FB0378013B03702946204689
:102D1000BDE83840FFF7E2BE01F06AFB7B23037099
:102D200029462046BDE83840FFF7D8BE10B590F8D8
:102D3000E830044643B94268002A03DDFEF7F2FD9D
:102D400094F8E830184610BD012BFBD1FFF7AAFF1D
:102D500094F8E830F6E700BF10B590F8E830044684
:102D600043B94268002A03DDFEF7FEFD94F8E8301F
:102D7000184610BD012BFBD1FFF7B6FF94F8E830E1
:102D8000F6E700BF8368D0F8EC1070B500EB830362
:102D90000446D3F88430224D93F8303081F8303037
:102DA0008368D0F8EC002A7804EB83030126D3F87B
:102DB000843093F83130013B80F83130A368D4F887
:102DC000F00004EB8303D3F8843093F8303080F8BC
:102DD0003030A368D4F8F00004EB8303D3F88430D8
:102DE00093F83130334480F83130D4F8EC3083F844
:102DF0003460D4F8F03083F8346052B12B7803F0AB
:102E0000FF0103B170BDD4F8F000BDE87040FEF7DB
:102E100063BB02F0FF01D4F8EC00FEF75DFBEDE7C9
:102E20007014FF1FD0F8EC20002310B582F8343066
:102E3000D0F8F020044682F83430D0F8EC00FEF7E9
:102E4000C7FBD4F8F000BDE81040FEF7C1BB00BFDF
:102E500038B5204B82685B6A9A42044617D001332A
:102E60009A4226D090F8E8301BB1012B29D01846A1
:102E700038BD012380F8E83000F1D401FFF72EFEC1
:102E80002046FFF77FFF94F8E830184638BD03234B
:102E900080F8E830D0F8E450D43001F0D3FA01469D
:102EA0002846FEF761FC2046FEF7CEFD94F8E83098
:102EB000DDE7042380F8E830FEF7C6FD94F8E8303B
:102EC000D5E7002380F8E830FFF7ACFF94F8E8304E
:102ED000CDE700BF7414FF1FF0B40E4B8024062012
:102EE0001E210022122703260C251C6098603C241A
:102EF000082019615A610A2105229F61DE619D62E5
:102F00001C635860D86019625962DA625A63F0BC77
:102F1000704700BF7414FF1F704700BF10B4114BFF
:102F200053F8302092F8804234B1012379B182F80D
:102F300080305DF8044B704703EBC0035B681A6890
:102F400051B922F002021A605DF8044B704782F812
:102F500000315DF8044B704742F003021A605DF8DF
:102F6000044B70473CA500001C4A02EBC00301293A
:102F70005B6811D004291BD052F83000002280F881
:102F8000802229B1022920D0032922D01A6070475B
:102F90004FF480721A60704752F830004FF4A272FA
:102FA00080F880121A601A6822F020021A607047B6
:102FB00052F830104FF4A272012081F880021A609A
:102FC0001A6842F020021A60704740F203121A6039
:102FD00070474FF481721A60704700BF3CA5000033
:102FE0003F2848D8F8B5042A44D8DFE802F0484B17
:102FF0004E0345004FF410262B4B03EBC0030D4648
:103000005C68216811F4E06148D0284B284A2949BE
:10301000C3F82C2104F140422748C3F83411A2F52B
:103020009221264FC3F830017C292548C3F8387116
:10303000C3F83C012CD9A2F594237C2B2AD9A2F504
:1030400096237C2B28D9A2F598237C2B29D9A2F58D
:103050009A227C2A27D81B4872B6236823F470234F
:1030600043F08072C4F384011643236040F821507A
:10307000266062B6F8BD70474FF43026BCE74FF4C7
:103080000026B9E74FF44026B6E74FF42026B3E711
:103090000D48E1E70D48DFE70D48DDE7FFF764FF86
:1030A000B3E70C48D8E7F8BD3CA500000002FF1FBD
:1030B000E107FF1F8907FF1FB507FF1F5D07FF1F00
:1030C0003107FF1F6809FF1F2008FF1F9808FF1F17
:1030D000F808FF1F2809FF1F30B4054B054D064CAB
:1030E000002210211A602A602060196030BC7047ED
:1030F00014D0034004D0034000D003403F2801D83F
:10310000FFF70CBF704700BF3F2806D8044B53F8A9
:10311000303093F80002C0B270470020704700BF03
:103120003CA500003F2801D8FFF71EBF704700BF35
:103130002DE9F843054672B6224F234B234A1B68FC
:103140003C68126862B6520102D5322B88BF013446
:10315000B5B3C3F52F3303F21F331D4EDFF868906C
:10316000DFF868809B084FF47A72A6FB031302FB1A
:1031700004F404EB930472B6D9F800103A68D8F856
:1031800000E062B6C1F52F3303F21F339B08A6FBA4
:1031900003031EF0806FC4EB93034FF47A7002D0E8
:1031A000322988BF013200FB0233B3F57A7F04D3A2
:1031B000013D05D004F57A74DDE701F077F9DAE72F
:1031C000BDE8F883BC14FF1F18E000E004ED00E048
:1031D000176CC116F8B54E4B4E48DFF85CC14E4C2B
:1031E0004E49DFF858E14E4E4E4D4F4F4FF00062C2
:1031F0001A604FF080521A604FF000521A604FF080
:1032000080421A604FF000421A60002202602823B8
:103210004EF6FF70CCF80000CEF8003023600EF5BB
:10322000012E0B6033602B6006F500263B6005F530
:103230000025A36207F500278B6204F5012401F540
:10324000012106F6E87605F6E87507F57F67103187
:103250000EF1100E203433602B60CEF800303B604E
:103260000B602360314CBB618B6109212160A7F5A4
:10327000002704F58054203F08343A602060BB608A
:10328000E36047F8041C04F5FD2407F5FE27043726
:1032900004F2FC7422603860A360FB6044F8041CF4
:1032A000083404F6FC74C7F8FC2F2060A4F5E12470
:1032B000A4F2DC7433602B60C7F8F81F21681C4847
:1032C00041F40071216001681A4C0EF57F4E0EF139
:1032D000E80E07F5883706F5803605F5803541F0AC
:1032E00000710160CEF8002047F6FF7108223960B6
:1032F00033602B60226001F0D5F91920FFF718FF29
:1033000000F02CFE40F21310BDE8F840FFF710BFAC
:1033100004E100E004800340148003401C8003406B
:10332000248003402C80034034800340008003400D
:103330000480044000900C40088003400C8003404F
:1033400030B472B62B4A13781D0706D52A4B196A7A
:10335000002936D0996A002941D053781C0706D538
:10336000254B196C00293ED0996C002939D09378EF
:10337000190705D5204B196E002936D0996E89B1F1
:10338000D3781B0707D51C4BD3F880207AB3D3F82A
:10339000882011213AB162B6184B00221A7030BC55
:1033A00000F07CBE0D21154C154D227843F83150AC
:1033B00003EBC1030830013A5860227062B630BC9A
:1033C000704704220D4C0F4D217843F8325003EB27
:1033D000C20308304A1E5860227062B6EFE705212A
:1033E000E1E70921DFE70822ECE70C22EAE71022F7
:1033F000E8E700BF40A700000000FF1F9515FF1F72
:10340000C800400088004000431E032B1DD81B4A03
:10341000400140F0100030B4104472B6184CE25C29
:10342000032A1BD8DFE802F00212151703220D88C9
:10343000E25410F0080F14BFC823882343EA054361
:1034400008310360416062B630BC70470830022228
:10345000EDE70522EBE708300422E8E7094A52F8D5
:10346000230038B1084A52F82300416042F8231083
:1034700062B6E9E742F82310034AF7E70000FF1FAE
:10348000A415FF1F6C15FF1F7C15FF1F2DE9F04FC2
:10349000DFF80CB3DFF80CA387B044E0AB4F4FEA82
:1034A000930807EBC809013ED9F8042003F008038C
:1034B000F6B2A2F1080003F0FF04002B40F00281F5
:1034C00057F838301B0C99B222F8081C002B00F07A
:1034D000F0809F4B22F8064C42F8044C53F826200B
:1034E000002A00F0C5829B4D55F8263058609A4C52
:1034F00045F8260034F81630194424F8161000F068
:10350000ADFD002800F0AD82944A954B19F0080FEC
:1035100000F1080018BF1346C9F8040047F8383016
:1035200008238BF800309BF80040E4B261071AD5FD
:103530008C4B1B78A3B18C490A7802F0FF0322B1AF
:10354000013BDBB20B7003B900BE88490A7802F078
:10355000FF032AB1013BDBB20B70002B00F0578256
:1035600004238BF8003004F0080303F0FF02002B63
:1035700000F0CC809AF80030DBB21E098ED19C0896
:10358000DFF8C89159F8342009EBC401C2F3830273
:10359000013A49680C2A00F28880DFE802F07C7C5E
:1035A0008686868686864786868607000868704DEA
:1035B0004A68704F704E286081B240F28160674B5C
:1035C0006A604FF0010E0022814249F834303A60BF
:1035D000C9F81020C9F8182086F800E05B4C00F20A
:1035E000E380B1F5D06F80F04683B1F5817F00F0C4
:1035F000FC8200F28D82802900F07783822940F0DE
:10360000FA82A98801F07F01042900F2F4825B4864
:103610005B4C89000844227062700278930740F185
:10362000588484F800E04FF0020E42E3514F3A68AC
:1036300032B3544B504E5449188834780D78402892
:10364000864645F0020828BF4FF0400E002C84F05B
:1036500001043470CEEB00000CBF8824C82409EBB1
:10366000C80680B285F0010544EA0E4472601880F5
:1036700049F8384072440D70002800F045813A60E6
:103680003B4B1A88B2F5A06F0FD100219A78597080
:103690003E4B1A7009E0364A108842F221029042ED
:1036A00000F037812D4A49F83420394A012313703C
:1036B00036E72A4A2A4B19F0080F18BF134647F875
:1036C00038302DE700F0EAFC324A334952F8263010
:1036D000002B00F0D18158688C5D42F8260003F180
:1036E0000802C9F80420032C05D8DFE804F02C02F6
:1036F000292602228A551A8819F0080F0CBF882340
:10370000C82343EA024347F8383009E7E00700F1ED
:103710008181210600F1F281A20706D51F4A2049C6
:1037200013780220DBB213700870E30602D51C4B3D
:1037300010221A7007B0BDE8F08F04228A55DAE72C
:1037400005228A55D7E703228A55D4E70000FF1FD8
:103750001815FF1FC414FF1F0C19FF1FC8004000DD
:1037600088004000A015FF1F2915FF1FA815FF1F87
:103770008C15FF1FC014FF1F2815FF1FC020074016
:103780009815FF1FD414FF1F9415FF1F98200740A2
:10379000942007406C15FF1FA415FF1F88200740C9
:1037A000802007409020074042F22100814200F033
:1037B0002A8100F2D880B1F5086F00F07682B1F569
:1037C000106F40F01882226AB349A8780870120678
:1037D00000F13A83D9F82820B049130600F10C8390
:1037E000D9F83020AD49150600F10183D9F8382009
:1037F000AA49140600F1F682D9F84020A74910061C
:1038000000F14A83D9F84820A449120600F13F8309
:10381000D9F85020A149130600F13483D9F8582073
:103820009E49150600F12983D9F860209B491406AA
:1038300000F11E83D9F868209849100600F113831F
:10384000D9F870209549120600F10883D9F878203C
:103850009249130600F1FD82D9F880208F491506A0
:1038600000F13183D9F888208C49140600F12583B2
:10387000D9F890208949100600F11983D9F89820C9
:103880008649120600F10D838548864A86490190D3
:103890008648874D874C04970023059602958046FD
:1038A0000F4616461D460394306828B1446800F060
:1038B000F5FB2046002CF9D100233360029B3868C9
:1038C0001A46002342F8253028B1446800F0E6FB90
:1038D0002046002CF9D100223A60019A98F8003075
:1038E0001146002241F8042B039A0191023B4FF04C
:1038F000000122F81510032B00F22B81DFE813F0F2
:103900007001250170012501BEF1400F18BF002292
:10391000B5E6694A0D784878157050708D78C8788A
:103920009570D07010680D79157186284D79897958
:103930005571917100F09B816049614E0A78307831
:1039400082F00105002842F002020D700CBF8821B0
:10395000C82149F8321009EBC20280F001000021B1
:10396000307051609EE642F22120814240F0CB81CE
:10397000544B554C5549A8781D682560CDF804E096
:103980000870002002908046844604464B490D781A
:1039900045F0020E09EBCE030393019B002B039B22
:1039A0005C600CBF8824C82444EA080385F0010445
:1039B00049F83E3032700C70DFF8E0E0404BDFF841
:1039C000FC80002840F01E81BCF1400F1BD144F068
:1039D000020C09EBCC03029CDFF8C0E05C60002A1B
:1039E00040F02681020442F088029DF804304EF82F
:1039F0003C20044433700D702346402803D100203E
:103A0000334A3B601080334A012313704DE600F0C7
:103A100079FBA5E5214B2F4828491A614FF0020E8A
:103A200080F800E02C4F0A702C49196099602C4EE8
:103A30002C4D2D4C9A610D213970FF213170DFF82A
:103A4000B8E029702270294D294A8EF800109F276E
:103A5000012406F8047C5D600470DA6007B0BDE8FC
:103A6000F08F244A47F8380013780133137057E574
:103A700043F826000E4D3AE58B5D032B00F2F080F3
:103A800001A252F823F000BF2135000021350000CB
:103A9000453B00003F3B0000A015FF1F0000FF1F3B
:103AA0007C15FF1F1815FF1F6C15FF1FA415FF1FA6
:103AB000C414FF1F0C19FF1F1419FF1F9415FF1FBB
:103AC0002815FF1FBC14FF1F1C19FF1FB415FF1F73
:103AD000D414FF1F94200740C020074088004000F6
:103AE000882007408020074098200740D814FF1FF7
:103AF0002C15FF1F9515FF1F8C200740C149C24B95
:103B000080220D2008701A70A2077FF50EAE05E620
:103B100040F20232914240F0EE80A98801F07F012C
:103B2000042968D86A88002A65D1B648CDF804E02F
:103B300089000844017841F00201017021E7012366
:103B40008B55EDE400238B55EAE44FF0010388F830
:103B500000300135042D06F1040607F1040708F1D1
:103B600001087FF4A1AEA94CA94B2278A94D049F6E
:103B7000059E002129701A70130700F105816278F3
:103B8000A549DFF8A0820A7010074FF00001C9F8BC
:103B90003010C9F8381000F1E080A049A2780A700E
:103BA0000021C9F85010C9F858101107DFF87482C5
:103BB00000F10181E2789A499A4C0A7000211207BB
:103BC000C9F87010C9F8781000F1B080337801930B
:103BD000002183F00102C9F89010C9F89810D0E6CE
:103BE0004FF0000388F80030B3E7A98801F07F01A7
:103BF000042940F28D80834A0F2313708A4A0123DF
:103C0000137052E540287FF6E2AE44F002040EEB5A
:103C1000C401029E4E60BAB19DF80410834A197027
:103C20003346403888F8005040334EF83420E7E6F9
:103C30009DF8043033700204029B0D7042F0C802FC
:103C400003444EF83C20D8E69DF804101970029BFE
:103C5000774A88F80050403840334EF83420CFE699
:103C600019F0080F0CBF022303238B5558E4714A47
:103C70000F21117060E6704A5468002CBBD0688830
:103C8000B5F804E003E00C325468002CB3D013887C
:103C90008342F8D153887345F5D1000A03280CBF3D
:103CA00094F800E0B2F808E003E0644A644C12784B
:103CB0002270E888704580F03F8162490D78402885
:103CC000844645F0020E28BF4FF0400C04EB0C0375
:103CD00009EBCE02029301235460CCEB00004FEAC3
:103CE0000C4800220193C8245EE6554C4FF0020EAA
:103CF00022706270DDE7B1F5A06F7FF47CAF012325
:103D0000002201933DE642F221329142F7D072E760
:103D10006A88002A7FF46FAF3A48CDF804E0890042
:103D20000844017821F0020101702AE600F096F9BA
:103D3000002800F0EF8008303D4AC4F88400C4F841
:103D4000802000F08BF9002800F0DE800830374A30
:103D5000C9F88C00C9F8882038E700F07FF90028FE
:103D600000F0C0800830324AC8F84400C8F840204B
:103D700000F074F9002800F0AF8008302B4AC9F831
:103D80004C00C9F8482008E700F068F9002800F066
:103D9000CD800830264AC9F82400C9F8202000F058
:103DA0005DF9002800F0BC800830204AC9F82C00DA
:103DB000C9F82820E3E600F051F9002800F09E80C1
:103DC00008301B4AC8F86400C8F8602000F046F9C3
:103DD000002800F08D800830144AC9F86C00C9F83A
:103DE0006820E7E6C86B083800F058F904E5486B2E
:103DF000083800F053F9F9E4C86A083800F04EF9C1
:103E0000EEE400BFC02007408020074040A700002C
:103E1000C42007409515FF1FC8200740CC2007404D
:103E2000D02007400000FF1F94200740C80040003A
:103E3000880040002915FF1F44A70000A015FF1FA0
:103E40009815FF1F9415FF1F606A083800F026F9C7
:103E5000C0E4C86F083800F021F9FDE4486F083865
:103E600000F01CF9F2E4C86E083800F017F9E7E436
:103E7000486E083800F012F9DCE4C86D083800F02C
:103E80000DF9D1E4486D083800F008F9C6E4C86CB3
:103E9000083800F003F9BBE4486C083800F0FEF87D
:103EA000B0E4D1F89C00083800F0F8F8ECE4D1F860
:103EB0009400083800F0F2F8E0E4D1F88C000838FB
:103EC00000F0ECF8D4E4D1F88400083800F0E6F80B
:103ED000C8E44FF0020EECE62A78C9F84800013237
:103EE0002A705AE62A78C8F8400001322A703FE763
:103EF0002A78C9F8680001322A705BE62A78C8F887
:103F0000600001322A7061E72A78C9F8880001321E
:103F10002A705BE62A78C4F8800001322A7010E724
:103F20002A78C9F8280001322A7028E62A78C9F8C8
:103F3000200001322A7032E7BEF1400FF44628BF5C
:103F40004FF0400C04EB0C0302930123CCEB0E006A
:103F50004FEA0C480022019318E500BF2DE9F0411B
:103F600001F08EF9314C324B3248DFF8E480324EAA
:103F7000DFF8E0C0314F324DDFF8DCE000221A609C
:103F80005A609A60DA601A615A619A61DA611A625B
:103F90005A629A62DA621A635A639A63DA631A643B
:103FA0005A649A64DA641A655A659A65DA651A661B
:103FB0005A669A66DA661A675A679A67DA67C3F8C2
:103FC00080202168C3F8842041F4802121600168A9
:103FD00041F040710160032188F80010A020C3F374
:103FE00007218CF8000004F528343170C3F3074032
:103FF000144938701B0E2B70CC34FF238EF8003020
:10400000114D0CF8B83C11480B70012306F8083C20
:10401000227070264FF40014102207F82C3C2E70EA
:10402000046081F8F820BDE8F08100BF34800440CE
:104030000000FF1F00D800409C200740B020074030
:10404000B42007401020074035E400E004E100E020
:1040500044210740402107408020074072B60D48A8
:104060000268B2FA82F30B2B10DC4FF00041D9400A
:1040700022EA0102026062B6074803EBC303DB00D9
:10408000C2180021C15010465160704762B600202E
:10409000704700BFD409FF1FD003FF1F0D4B0E4A0E
:1040A000C31AA2FB03231B090B2B0CD80B4A127853
:1040B00052B972B60A484FF00041026821FA03F380
:1040C0001A43026062B67047064A1278002AF0D09E
:1040D000FFF736B9D003FF1F398EE3389515FF1F60
:1040E000D409FF1FA015FF1F044B054A1B689088C9
:1040F0001BB11A885B88D31A18447047B015FF1F8C
:104100000C19FF1F38B50E4B1B7873B90D4C216885
:1041100061B103F0FF054B880B800420FFF774F9B1
:10412000256038BD084B01221A7038BDFFF796FF95
:104130000028F7D00146BDE838400420FFF764B9F5
:10414000A915FF1FAC15FF1FA815FF1F08B5FCF729
:1041500009FAFCF743FE00F0A9F9FAE703F042BCC4
:1041600010B50446006803F045FC204610BD00BFB2
:1041700038B543688B4201D3012038BD0D46044653
:104180000131006803F0C2FF0028F6D0A36884E87C
:104190002100002BF0D10370EEE700BFF8B5044614
:1041A000154632B9036803B11A700023A360204694
:1041B000F8BD0E461146FFF7DBFF074648B92068F9
:1041C00010B103F017FC276000236360A360204652
:1041D000F8BDA5603146206804F0A2F9E7E700BF0A
:1041E00038B500230446036043608360037341B124
:1041F00008460D4604F004FA294602462046FFF719
:10420000CDFF204638BD00BF0023884210B50446CC
:10421000036043608360037303D08A680968FFF713
:10422000BDFF204610BD00BF38B5054608460C4608
:1042300004F0E6F9214602462846BDE83840FFF77B
:10424000ADBF00BF10B5044600238AB02360636091
:10425000A3602373084601A900F034FB01A920469E
:10426000FFF7E2FF20460AB010BD00BF10B50023E3
:104270008AB0044603604360836003736A46881C07
:1042800000F032FB30B101462046FFF7CDFF20465B
:104290000AB010BDA06020460AB010BD10B582B0B3
:1042A00000238DF8041003604360836003730122D0
:1042B00001A904468DF80530FFF770FF204602B0D3
:1042C00010BD00BF38B5054600680C4628B16A68C5
:1042D0008B689A420CD203F08DFB23686168A26858
:1042E0002B6000236960AA6023606360A36038BD0F
:1042F000096804F015F9A368AB600023A36038BD1A
:10430000814203D08A680968FFF748BF704700BF41
:10431000884210B5044601D0FFF7D4FF204610BDF7
:1043200010B5044619B1FFF77FFF204610BDA1600C
:10433000204610BD00B583B000238DF80410012283
:1043400001A98DF80530FFF729FF03B05DF804FBE4
:104350002DE9F84303680F46BB42044681681546C1
:104360000AD85A18974207D2C3EB07094FF0010841
:1043700035B92046BDE8F8834FF00008002DF8D08D
:104380004E1931462046FFF7F3FE0028F1D0B8F170
:10439000000F0ED02368A0682A4603EB09011844D9
:1043A00000F0E6F8236800229A55A6602046BDE892
:1043B000F8832068A3683946184404F0B1F8F4E79C
:1043C00010B58A6809680446FFF7C2FF204610BD91
:1043D00010B582B000238DF80410012201A9044613
:1043E0008DF80530FFF7B4FF204602B010BD00BFC6
:1043F00083688B4203D9006808B1084470470249BA
:1044000000230B7008467047B515FF1F38B5836849
:104410008B42044614D99AB1084611448B4238BFE6
:104420001A1A2568A3EB020238BF1946A260294474
:10443000121A284403F0B4FD2268A3680021D15465
:10444000204638BD2DE9F04106680746EEB1846884
:10445000DCB1354600E04546287805F1010803F057
:104460009DFA0028F7D1013C344402E0A54205D86A
:10447000013C207803F092FA0028F7D1621C521B0D
:10448000B542BA6004D80023B3543846BDE8F08181
:104490003046294600F06CF83E68BA68F3E700BF82
:1044A000006808B103F036BA704700BF38B52C4C2D
:1044B000237803B138BD01232370FFF715FE0028D0
:1044C00042D100F0BBFB00283BD100F04DFC00289E
:1044D00034D100F0DFFC70BB00F058FD40BB00F0B1
:1044E000D1FD10BB00F04AFEE0B900232370EFF3CA
:1044F0000583002BDED1EFF3108172B6194B1868DB
:1045000028B3194C227812BB45691D600123237022
:104510000DB3AA6101B962B6002545778368984753
:104520002570C7E700F0F2FFDFE700F0EDFFD9E705
:1045300000F0E8FFD3E700F0E3FFCDE700F0DEFF97
:10454000C7E700F0D9FFC0E700F0E2FFB9E70029B4
:10455000B0D162B638BD054B1D600029DCD1DAE769
:10456000B615FF1FCC18FF1FD018FF1FC818FF1F5C
:10457000844641EA000313F003036DD1403A41D36E
:1045800051F8043B40F8043B51F8043B40F8043B2D
:1045900051F8043B40F8043B51F8043B40F8043B1D
:1045A00051F8043B40F8043B51F8043B40F8043B0D
:1045B00051F8043B40F8043B51F8043B40F8043BFD
:1045C00051F8043B40F8043B51F8043B40F8043BED
:1045D00051F8043B40F8043B51F8043B40F8043BDD
:1045E00051F8043B40F8043B51F8043B40F8043BCD
:1045F00051F8043B40F8043B51F8043B40F8043BBD
:10460000403ABDD2303211D351F8043B40F8043B5C
:1046100051F8043B40F8043B51F8043B40F8043B9C
:1046200051F8043B40F8043B103AEDD20C3205D36C
:1046300051F8043B40F8043B043AF9D2043208D064
:10464000D2071CBF11F8013B00F8013B01D30B88D6
:1046500003806046704700BF082A13D38B078DD0B4
:1046600010F003038AD0C3F10403D21ADB071CBF86
:1046700011F8013B00F8013B80D331F8023B20F8F0
:10468000023B7BE7043AD9D3013A11F8013B00F829
:10469000013BF9D20B7803704B7843708B788370B1
:1046A0006046704730B42948294A2A4B2A4D602475
:1046B000E121047011701B78284C082B30D00A2B94
:1046C0002748284937D00C2B0CBF35225D221223F6
:1046D0002A60236002600B60234B24491B78244A24
:1046E000BBB101230B601360224B23491B78234A83
:1046F000012B26D9042B0FD9082B1ED9102B94BFC0
:10470000862387230B6013601D4B01221A7030BC77
:1047100070470B601360E7E784230B601360F3E7D7
:1047200000F58E200F490830212213232A602360D0
:1047300002600B60D0E73922F7E785230B60136036
:10474000E2E780230B601360DEE700BF0040074014
:1047500001400740D809FF1F08B003400CB00340D8
:1047600008B00B400CB00B40B815FF1F20B0034041
:1047700020B00B40D909FF1F24B0034024B00B40E8
:10478000B715FF1F08B5104C08E0236859050DD474
:1047900023681A050FD42368DB0411D42368580357
:1047A000F3D5FEF773FE23685905F1D500F056FAEC
:1047B00023681A05EFD500F0E7FA2368DB04EDD58E
:1047C00000F078FBEAE700BF3480044008B5FFF74B
:1047D000D9FF00BF014B10221A807047002005400E
:1047E000704700BF094908B50B6830B16A461844E4
:1047F000A2F50052904202D20860184608BD03F0AC
:104800009FF80C2303604FF0FF3008BDDC09FF1F49
:10481000084A1378802B01D0002070470649074BC7
:1048200007480860002119701378802BFCD0012004
:10483000704700BF03E007404480044001E00740A8
:1048400000002822094A1378012B01D0002070476C
:1048500003F1804303F5FC23602119701378802B4A
:10486000FCD1034B034A1A600120704703E0074064
:104870004480044000000602F0B44D1E2E46002481
:1048800000E00134B0FBF2F302FB1300092800F151
:1048900030078ABF3730F8B2C0B206F8010F1846A9
:1048A000002BEED10A1953704CB1107815F8016F36
:1048B00028700133E01A834202F80169F5DB0846EB
:1048C000F0BC704710B5041E03DBBDE81040FFF7D5
:1048D000D3BF2D23204640420C4601F8013BFFF791
:1048E000CBFF204610BD00BF2DE9F0472DED028B18
:1048F000B4EE400A80EAE073F1EE10FA84B0B0EE54
:10490000408A05461446A3EBE07380F12D81DFED6C
:10491000C87AB0EEC07AB4EE677AF1EE10FA42DDF2
:10492000B5EEC00AF1EE10FA4CBF04200320984205
:1049300021DB002DC0F273810020B5EEC08AF1EEBC
:1049400010FA48BF23462AD449214E22462321701B
:104950006270A3700334002800F065812044202396
:1049600004F8013BA042FBD10023037004B0BDEC6E
:10497000028BBDE8F087002DA3EB0000DDDA0028F4
:1049800000F04D811318202204F8012B9C42FBD12A
:10499000B5EEC08AF1EE10FA40F11C8100202D2204
:1049A0001A705C1CD0E70F4602AA01A9384602F033
:1049B000B5FFBA468046DDF80490002F59D0C9F102
:1049C0000003BB4200F39680404603F019FE064602
:1049D000B145B8BF0136B9F1000F40F09A800136F9
:1049E000DDF808E0BEF1000F55D00136A81B002805
:1049F00004EB060155DC23462D221A700133B9F170
:104A0000000F65D137B11A46302002F8020B2E2074
:104A1000587013468B4220D25F1C98F800201A7001
:104A20008F4208F1010819D0019A4FF02E0E0BE0C9
:104A300083F801E002338B4203F101070DD218F82D
:104A4000010B18708F4209D0013A0192002AEFD071
:104A50003B468B4203F10107F1D31946002DC0F20A
:104A6000A380002320460B7004B0BDEC028BBDE890
:104A7000F087B9F1000FA2D190F800806D496E4A1D
:104A8000012301939946B8F1340F8CBF88469046B4
:104A90004FF0FF3395E7A81B002804EB060140F315
:104AA000C4800144224601384FF0200C02F801CBAB
:104AB000C2F1010303442344002BF7DC20EAE07336
:104AC00001332344BEF1000F96D1B9F1000F99D004
:104AD000A0DA002F9ED01A46302002F8020B2E27B3
:104AE0005F70C9EB020302F8010B9342FBD1002275
:104AF00001928FE7C7F100090126B1453046B8BFE2
:104B00000136B9F1000FDFF83081CDF804903FF4A1
:104B100066AFBFF665AF002F3FF462AF09EB070346
:104B2000984207F102067FF65BAF002F06DDF2EE3A
:104B3000047ABAF1010A28EE278AFAD102AA50466D
:104B4000B0EE480A03A902F0E9FEDDF80490039AEA
:104B50007B1CC9EB02029A4208BF09F10109804699
:104B600008BFCDF804903BE7B5EEC00AF1EE10FAAD
:104B70004CBF04200320984234DA002DA3EB00033D
:104B800039DB18EE102A002A30DB4E224121227038
:104B9000A27061700334002B45D0E018202304F884
:104BA000013B8442FBD1DFE6A8194342002B6FEAA8
:104BB00000007FF756AF0A46202502F8015BC2F1DC
:104BC000010303440B44002BF7DC20EAE0730133BC
:104BD000194446E749204E214622187059709A70B0
:104BE000D81CC1E6002D18DB0023CAE720462D2281
:104BF0000270441CC9E783B1D018202304F8013B9C
:104C00008442FBD118EE103A002B0ADB4E234122DE
:104C10000370837042700330A6E62046F2E7234615
:104C2000B6E60023E3E720469EE62346E7E600BF1C
:104C3000FFFF7F7F3CA700009CA70000054A064BB2
:104C400010781B78C0B2DBB2984238BF4030C01A2F
:104C5000704700BFC015FF1FC115FF1FF0B4384BD0
:104C60001A7912F0300F2CD072B6997D01F0FF0244
:104C700000293DD062B6334F334938780D78334E32
:104C80001C46C0B2EDB2431C402BE17928BF002383
:104C9000AB4202F1FF32C9B21CBFF154184612F008
:104CA000FF02F0D12A4B1B68C2B23A704BB1A84246
:104CB00036BFC5F14005401B40192728C4BF01225B
:104CC0001A701F49CA78D2B2150616D452060DD5ED
:104CD0001B4B1B795B0609D51E4B1F491B68002225
:104CE0000A7003B11A70164B3C22DA70F0BC7047A0
:104CF0004022D9795A7462B6E3E70B791C06E5D5F0
:104D0000164B174E1C783378E4B2DBB29C420ED0BF
:104D1000144D01E0A3420AD00133402B28BF0023E9
:104D20000879E85CC0B2C871087D0728F2D9DBB207
:104D3000034933700B79180644BF7C23CB70C5E759
:104D400000A00640C015FF1FC115FF1F0416FF1F5E
:104D5000BC15FF1F4816FF1F4416FF1F4C16FF1FF0
:104D60004516FF1FC415FF1F054A064B10781B7818
:104D7000C0B2DBB2984238BF4030C01A704700BFA3
:104D8000C016FF1F5516FF1FF0B4384B1A7912F0EA
:104D9000300F2CD072B6997D01F0FF0200293DD072
:104DA00062B6334F334938780D78334E1C46C0B263
:104DB000EDB2431C402BE17928BF0023AB4202F146
:104DC000FF32C9B21CBFF154184612F0FF02F0D1F5
:104DD0002A4B1B68C2B23A704BB1A84236BFC5F12C
:104DE0004005401B40192728C4BF01221A701F49E3
:104DF000CA78D2B2150616D452060DD51B4B1B79B4
:104E00005B0609D51E4B1F491B6800220A7003B1BF
:104E10001A70164B3C22DA70F0BC70474022D979E8
:104E20005A7462B6E3E70B791C06E5D5164B174EAC
:104E30001C783378E4B2DBB29C420ED0144D01E012
:104E4000A3420AD00133282B28BF00230879E85C4D
:104E5000C0B2C871087D0728F2D9DBB203493370AC
:104E60000B79180644BF7C23CB70C5E700B0064021
:104E7000C016FF1F5516FF1F8016FF1F5016FF1F7D
:104E8000C416FF1F5416FF1FC816FF1FC116FF1FB1
:104E90005816FF1F054A064B10781B78C0B2DBB2CC
:104EA000984238BF4030C01A704700BFD016FF1F6D
:104EB000D116FF1F30B42B4B1A7994061FD52A4800
:104EC000DA790378294901333F2B0978C8BF0023D9
:104ED0008B42D2B203D0264CD9B2E2540170254A9B
:104EE000116861B1244A1278D2B2934236BFC2F13E
:104EF00040029B1A9B18272BC4BF01230B70194A31
:104F0000D378DBB2180611D45A060DD5154B1B7990
:104F10005B0609D5194B1A491B6800220A7003B1B8
:104F20001A70104B2C22DA7030BC704711790906C8
:104F3000EAD5144910480C780178C9B28C420DD0DA
:104F40004A1C272A84BF00210A460F4D054C98BFF2
:104F5000D1B2AA5CD2B2E2710170D5E76C21D170F6
:104F6000D2E700BF00C00640D016FF1FD116FF1FBA
:104F7000FC16FF1FCC16FF1F3D17FF1F4017FF1F1A
:104F80003C17FF1F4417FF1FD416FF1F054A064B8F
:104F900010781B78C0B2DBB2984238BF4030C01ADC
:104FA000704700BF4C17FF1F4D17FF1F30B42B4B2E
:104FB0001A7994061FD52A48DA79037829490133EA
:104FC0003F2B0978C8BF00238B42D2B203D0264CB6
:104FD000D9B2E2540170254A116861B1244A1278AD
:104FE000D2B2934236BFC2F140029B1A9B18272BC4
:104FF000C4BF01230B70194AD378DBB2180611D451
:105000005A060DD5154B1B795B0609D5194B1A4964
:105010001B6800220A7003B11A70104B2C22DA7040
:1050200030BC704711790906EAD5144910480C784C
:105030000178C9B28C420DD04A1C272A84BF0021B6
:105040000A460F4D054C98BFD1B2AA5CD2B2E271AC
:105050000170D5E76C21D170D2E700BF00D00640C7
:105060004C17FF1F4D17FF1F7817FF1F4817FF1F13
:10507000B917FF1FBC17FF1FB817FF1FC017FF1F6F
:105080005017FF1F054A064B10781B78C0B2DBB2E1
:10509000984238BF4030C01A704700BFC817FF1F82
:1050A000C917FF1F30B42B4B1A7994061FD52A4815
:1050B000DA790378294901333F2B0978C8BF0023E7
:1050C0008B42D2B203D0264CD9B2E2540170254AA9
:1050D000116861B1244A1278D2B2934236BFC2F14C
:1050E00040029B1A9B18272BC4BF01230B70194A3F
:1050F000D378DBB2180611D45A060DD5154B1B799F
:105100005B0609D5194B1A491B6800220A7003B1C6
:105110001A70104B2C22DA7030BC704711790906D6
:10512000EAD5144910480C780178C9B28C420DD0E8
:105130004A1C272A84BF00210A460F4D054C98BF00
:10514000D1B2AA5CD2B2E2710170D5E76C21D17004
:10515000D2E700BF00A00E40C817FF1FC917FF1FEE
:10516000F417FF1FC417FF1F3518FF1F3818FF1F44
:105170003418FF1F3C18FF1FCC17FF1F054A064BB2
:1051800010781B78C0B2DBB2984238BF4030C01AEA
:10519000704700BF4418FF1F4518FF1F30B42C4B49
:1051A0005A6894021FD52B48DA6803782A490133DC
:1051B0003F2B0978C8BF00238B4204D0274CD2B2C2
:1051C000D9B2E2540170264A116861B1254A1278B9
:1051D000D2B2934236BFC2F140029B1A9B18272BD2
:1051E000C4BF01230B701A4A9368180202D5526893
:1051F000110211D45A020DD5154B5B685B0209D51B
:10520000194B1A491B6800220A7003B11A70184B17
:1052100000221A6030BC7047164A124910780A788A
:10522000D2B290420DD00132272A84BF002002461C
:10523000114D074C98BFD0B2AA5CD2B2E2600870A0
:10524000D8E70E480A4A0024012104601160D1E722
:1052500000400C404418FF1F4518FF1F7018FF1F27
:105260004018FF1FB118FF1FB418FF1FB018FF1F11
:1052700058018843B818FF1F4818FF1F5C01884376
:1052800010B584B072B6FFF7C3FA184A184B194923
:105290001160702280211A701A46197013781B064B
:1052A000FCD5154B1C68FFF7CDFA62B6134B9C4238
:1052B0009CBF04EB840464002046114C01A90A221F
:1052C000FFF7DAFA01A92046002311F8012B013378
:1052D0003AB10A2B20F8022FF7D11623237004B01D
:1052E00010BD5B00DBB2237004B010BD04000240AF
:1052F00000000240000007410C0002407F96980029
:105300006C0AFF1F10B4EFF3108272B6437F33B9FB
:10531000017F012908D0032910D00123437702B966
:1053200062B65DF8044B7047114C2168A1B1114978
:1053300043610B68836108605861EEE70E4C216899
:1053400081B10E4943610B688361086058610C4B61
:105350004FF080511960E0E7064B416181612060A8
:105360001860DAE7054B4161816120601860EEE763
:10537000CC18FF1FC818FF1FBC18FF1FC018FF1F45
:1053800004ED00E010B4047F4160022CC26003D041
:105390005DF8044BFFF7B6BF83685DF8044B184710
:1053A00070B5EFF3108272B60C4C206880B10C4ED1
:1053B00000254369236073B19D6102B962B64577E8
:1053C00083689847EFF3108272B620680028F0D106
:1053D00002B962B670BD3360EFE700BFBC18FF1FB3
:1053E000C018FF1FFFF7DCBF184A30B41468002C48
:1053F00027D0036821688B420ED2CB1A002184602B
:10540000C1602360E06010600223037530BC704708
:1054100011688B42144608D3A2685B1A0360002A05
:10542000F6D18260C460A060EEE7D268C26084609A
:10543000E060C568CB1A0222A8602360027530BC08
:1054400070478460C4601060DEE700BFC418FF1FAF
:10545000F8B5224E34682CB32368002B3AD1204F84
:105460001D4604E03468ECB12368002B32D1A368F8
:1054700003B1DD6020693360036825751B68BB429A
:1054800021D1037F4560022BC46020D0FFF73AFF93
:105490006368002BE6D023602046FFF7A5FF346841
:1054A000002CE1D1EFF3108372B60E4A0021106890
:1054B000116003B962B628B18468FFF795FF2046F2
:1054C0000028F9D1F8BD224600219847E0E783681B
:1054D0009847DDE7013B2360E4E700BFC418FF1FE6
:1054E00085530000D418FF1F024A1368013313606C
:1054F000FFF7AEBFBC14FF1F704700BF704700BF6F
:10550000704700BF704700BF704700BF704700BFC3
:10551000704700BFFFFFFFFF51EC100BC1F30A53B0
:105520002DE9F041A3F2FF35132D0C460F4610EE86
:10553000106A1DDC002D43DB3D4B43FA05F801EA00
:105540000803034319D038A3D3E9002301F0E8FC92
:105550000022002302F026F920B1002C49DB27EAC3
:10556000080400262346324643EC102BBDE8F081A8
:10557000332D06DDB5F5806F32D041EC100BBDE860
:10558000F081A3F213434FF0FF3828FA03F810EA32
:10559000080FF2D024A3D3E9002301F0C1FC0022BC
:1055A000002302F0FFF80028DCD0002C27DB3C466B
:1055B00026EA08062346324643EC102BBDE8F0816C
:1055C00019A3D3E9002301F0ABFC0022002302F071
:1055D000E9F80028C6D0002C1CDB00263446C1E7C1
:1055E00010EE102A0B4601F09BFC41EC100BBDE8BD
:1055F000F0814FF4801343FA05F52F44AFE7142DE3
:1056000010D00123C5F1340503FA05F5AE1928BF02
:10561000FF18CCE724F00042064B324318BF1C466B
:1056200000269FE70137C2E79C7500883CE4377E7F
:10563000FFFF0F000000F0BF2DE9F0432DED028BBE
:105640008BB055EC104B00F01FFA3B4BB0EE408A8C
:10565000F0EE608A93F90060731C0ED022462B4650
:105660002046294602F0A8F8074630B90022002358
:105670002046294602F082F840B9B0EE480AF0EE22
:10568000680A0BB0BDEC028BBDE8F0832B4B08978A
:10569000CDE90245CDE904450193DEB9284F4FF02D
:1056A00060462046294600220023CDE9066702F025
:1056B00051F8002837D002230093684601F0F0F833
:1056C000C8B1089BE3B99DED060B0BB0BDEC028B96
:1056D000BDE8F083DFF870904FF0000820462946BF
:1056E00000220023CDE9068902F034F868B10223D4
:1056F0009E420093E1D102F023F922230360E0E708
:1057000002F01EF9089B0360DDE70123022E0093DF
:105710000BD102F015F9212303600A4801F0C4F807
:105720008DED060BCDE701230093684601F0B8F834
:105730000028F2D1EDE700BF820AFF1F98A7000002
:10574000FFFFEFC7C0A200000000F0FFFFFFFFFF58
:105750002DE9F04F2DED028BDFF824A38BB057EC31
:10576000106B55EC114B00F033FA9AF90080B0EE53
:10577000408AF0EE608AB8F1FF3F48D022462B46BF
:105780002046294602F018F8834600283FD13246C9
:105790003B463046394602F00FF88146002840F07B
:1057A0009080304639460022002301F0D3FF0028C4
:1057B00036D0002200232046294601F0CBFF834645
:1057C000B8B19FEDA57B0122A94BCDF820900092A6
:1057D000CDE90267CDE904458DED067B0193B8F173
:1057E000000F5BD09FED9E0B0BB0BDEC028BBDE8B4
:1057F000F08F45EC104B01F04BF840B10022002334
:105800002046294601F0B0FF002840F0C580B0EEE8
:10581000480AF0EE680A0BB0BDEC028BBDE8F08FD1
:10582000B0EE480AF0EE680A01F032F8804600282F
:1058300061D04FF000084FF0000951EC180B4246C0
:105840004B4601F087FF0028E1D047EC106B01F0D8
:105850001FF80028DBD045EC104B01F019F80028A8
:10586000D5D09AF90030824A019204210022022BFD
:10587000CDE90267CDE90445CDE90689009108929A
:1058800003D0684601F00CF870B902F059F82223F1
:10589000036009E09FED707B8DED067B684600F0AC
:1058A000FFFF002800F08E80089B1BB102F048F833
:1058B000089B03609DED060B0BB0BDEC028BBDE8B1
:1058C000F08F002200232046294601F043FF0028E4
:1058D0009DD09FED630B664BCDF820B00122B8F14F
:1058E000020FCDE90267CDE904458DED060B8DE889
:1058F0000C00D3D18FE747EC106B00F0C9FF0028F4
:1059000097D045EC104B00F0C3FF002891D053EC2A
:10591000182B18EE100A194601F04EFF00287CD112
:1059200003239AF900800093514B0890CDE9026758
:10593000CDE904450193B8F1000F48D1DFF8449157
:105940004FF060480022002330463946CDE90689F1
:1059500001F00AFF002894D00022464B2046294639
:1059600001F090FC04460D4645EC104B00F0A4FFFE
:10597000204653EC102B294601F0ECFE002849D1BB
:105980003D4B9AF900804FF06042CDE90623B8F113
:10599000020F7FF476AF78E7354A9AF90030CDF8F8
:1059A00020B00121CDE90267CDE904458DE806006C
:1059B000002B3FF46FAF31490020022BCDE90601E7
:1059C0007FF46CAF01F0BCFF212303606CE79FED17
:1059D000267B00220023304639468DED067B01F000
:1059E000C3FE0028D3D00022224B2046294601F0D6
:1059F00049FC04460D4645EC104B00F05DFF204687
:105A000053EC102B294601F0A5FE18B91B4B0022C0
:105A1000CDE906239AF90080B9E7154B9AF9009071
:105A2000CDF820800122CDE90267CDE904458DE85B
:105A30000C00B9F1000F3FF42DAF002200231046F7
:105A4000194601F049FDB9F1020FCDE90601B9D0BF
:105A500024E700BFAFF3008000000000000000005A
:105A6000000000000000F03F000000000000F07F98
:105A7000A0A700000000E03FFFFFEFC70000F0FF1D
:105A8000820AFF1FFFFFEF472DE9F04355EC104B53
:105A9000B5F5801F83B02B4621DA10EE102A25F0D1
:105AA00000410A4364D0002D6DDB29460022444B9F
:105AB00010EE100A01F0E6FB0B460D4641498B4201
:105AC00004466FF035020FDD22462B46204629465C
:105AD00001F026FA41EC100B03B0BDE8F083394920
